{
  "contractName": "Agent",
  "abi": [
    {
      "constant": true,
      "inputs": [],
      "name": "metadataURI",
      "outputs": [
        {
          "name": "",
          "type": "string"
        }
      ],
      "payable": false,
      "stateMutability": "view",
      "type": "function"
    },
    {
      "constant": true,
      "inputs": [],
      "name": "endpoint",
      "outputs": [
        {
          "name": "",
          "type": "string"
        }
      ],
      "payable": false,
      "stateMutability": "view",
      "type": "function"
    },
    {
      "constant": true,
      "inputs": [],
      "name": "owner",
      "outputs": [
        {
          "name": "",
          "type": "address"
        }
      ],
      "payable": false,
      "stateMutability": "view",
      "type": "function"
    },
    {
      "constant": true,
      "inputs": [
        {
          "name": "",
          "type": "address"
        }
      ],
      "name": "createdJobs",
      "outputs": [
        {
          "name": "",
          "type": "bool"
        }
      ],
      "payable": false,
      "stateMutability": "view",
      "type": "function"
    },
    {
      "constant": true,
      "inputs": [],
      "name": "currentPrice",
      "outputs": [
        {
          "name": "",
          "type": "uint256"
        }
      ],
      "payable": false,
      "stateMutability": "view",
      "type": "function"
    },
    {
      "constant": true,
      "inputs": [],
      "name": "state",
      "outputs": [
        {
          "name": "",
          "type": "uint8"
        }
      ],
      "payable": false,
      "stateMutability": "view",
      "type": "function"
    },
    {
      "constant": true,
      "inputs": [],
      "name": "token",
      "outputs": [
        {
          "name": "",
          "type": "address"
        }
      ],
      "payable": false,
      "stateMutability": "view",
      "type": "function"
    },
    {
      "inputs": [
        {
          "name": "_token",
          "type": "address"
        },
        {
          "name": "_currentPrice",
          "type": "uint256"
        },
        {
          "name": "_endpoint",
          "type": "string"
        },
        {
          "name": "_metadataURI",
          "type": "string"
        }
      ],
      "payable": false,
      "stateMutability": "nonpayable",
      "type": "constructor"
    },
    {
      "anonymous": false,
      "inputs": [
        {
          "indexed": false,
          "name": "job",
          "type": "address"
        },
        {
          "indexed": false,
          "name": "consumer",
          "type": "address"
        },
        {
          "indexed": false,
          "name": "jobPrice",
          "type": "uint256"
        }
      ],
      "name": "JobCreated",
      "type": "event"
    },
    {
      "anonymous": false,
      "inputs": [
        {
          "indexed": false,
          "name": "job",
          "type": "address"
        }
      ],
      "name": "JobFunded",
      "type": "event"
    },
    {
      "anonymous": false,
      "inputs": [
        {
          "indexed": false,
          "name": "job",
          "type": "address"
        }
      ],
      "name": "JobCompleted",
      "type": "event"
    },
    {
      "constant": false,
      "inputs": [
        {
          "name": "_currentPrice",
          "type": "uint256"
        }
      ],
      "name": "setPrice",
      "outputs": [],
      "payable": false,
      "stateMutability": "nonpayable",
      "type": "function"
    },
    {
      "constant": false,
      "inputs": [
        {
          "name": "_endpoint",
          "type": "string"
        }
      ],
      "name": "setEndpoint",
      "outputs": [],
      "payable": false,
      "stateMutability": "nonpayable",
      "type": "function"
    },
    {
      "constant": false,
      "inputs": [
        {
          "name": "_metadataURI",
          "type": "string"
        }
      ],
      "name": "setMetadataURI",
      "outputs": [],
      "payable": false,
      "stateMutability": "nonpayable",
      "type": "function"
    },
    {
      "constant": false,
      "inputs": [],
      "name": "disable",
      "outputs": [],
      "payable": false,
      "stateMutability": "nonpayable",
      "type": "function"
    },
    {
      "constant": false,
      "inputs": [],
      "name": "enable",
      "outputs": [],
      "payable": false,
      "stateMutability": "nonpayable",
      "type": "function"
    },
    {
      "constant": false,
      "inputs": [],
      "name": "createJob",
      "outputs": [
        {
          "name": "",
          "type": "address"
        },
        {
          "name": "",
          "type": "uint256"
        }
      ],
      "payable": false,
      "stateMutability": "nonpayable",
      "type": "function"
    },
    {
      "constant": false,
      "inputs": [],
      "name": "fundJob",
      "outputs": [],
      "payable": false,
      "stateMutability": "nonpayable",
      "type": "function"
    },
    {
      "constant": true,
      "inputs": [
        {
          "name": "job",
          "type": "address"
        },
        {
          "name": "v",
          "type": "uint8"
        },
        {
          "name": "r",
          "type": "bytes32"
        },
        {
          "name": "s",
          "type": "bytes32"
        }
      ],
      "name": "validateJobInvocation",
      "outputs": [
        {
          "name": "",
          "type": "bool"
        }
      ],
      "payable": false,
      "stateMutability": "view",
      "type": "function"
    },
    {
      "constant": false,
      "inputs": [
        {
          "name": "job",
          "type": "address"
        },
        {
          "name": "v",
          "type": "uint8"
        },
        {
          "name": "r",
          "type": "bytes32"
        },
        {
          "name": "s",
          "type": "bytes32"
        }
      ],
      "name": "completeJob",
      "outputs": [],
      "payable": false,
      "stateMutability": "nonpayable",
      "type": "function"
    }
  ],
  "bytecode": "0x60806040523480156200001157600080fd5b5060405162001fbf38038062001fbf833981016040908152815160208084015192840151606085015160008054600160a860020a031916326101000217905560018054600160a060020a031916600160a060020a03861617905560038590559085018051939590939101916200008d91600491850190620000ae565b508051620000a3906005906020840190620000ae565b505050505062000153565b828054600181600116156101000203166002900490600052602060002090601f016020900481019282601f10620000f157805160ff191683800117855562000121565b8280016001018555821562000121579182015b828111156200012157825182559160200191906001019062000104565b506200012f92915062000133565b5090565b6200015091905b808211156200012f57600081556001016200013a565b90565b611e5c80620001636000396000f3006080604052600436106100cc5763ffffffff60e060020a60003504166303ee438c81146100d15780630a8ec5871461015b5780632f2770db1461019c5780635b6b5710146101b35780635e280f11146101eb578063750521f5146102005780638da5cb5b1461025957806391b7f5ed1461028a57806394715ac4146102a25780639d1b464a146102c3578063a3907d71146102ea578063bb9df86e146102ff578063bc856b981461032c578063c19d93fb14610385578063ef47243d146103be578063fc0c546a146103d3575b600080fd5b3480156100dd57600080fd5b506100e66103e8565b6040805160208082528351818301528351919283929083019185019080838360005b83811015610120578181015183820152602001610108565b50505050905090810190601f16801561014d5780820380516001836020036101000a031916815260200191505b509250505060405180910390f35b34801561016757600080fd5b50610188600160a060020a036004351660ff60243516604435606435610476565b604080519115158252519081900360200190f35b3480156101a857600080fd5b506101b1610b6e565b005b3480156101bf57600080fd5b506101c8610bbc565b60408051600160a060020a03909316835260208301919091528051918290030190f35b3480156101f757600080fd5b506100e6610d26565b34801561020c57600080fd5b506040805160206004803580820135601f81018490048402850184019095528484526101b1943694929360249392840191908190840183828082843750949750610d819650505050505050565b34801561026557600080fd5b5061026e610db4565b60408051600160a060020a039092168252519081900360200190f35b34801561029657600080fd5b506101b1600435610dc8565b3480156102ae57600080fd5b50610188600160a060020a0360043516610de9565b3480156102cf57600080fd5b506102d8610dfe565b60408051918252519081900360200190f35b3480156102f657600080fd5b506101b1610e04565b34801561030b57600080fd5b506101b1600160a060020a036004351660ff60243516604435606435610e4f565b34801561033857600080fd5b506040805160206004803580820135601f81018490048402850184019095528484526101b19436949293602493928401919081908401838280828437509497506110919650505050505050565b34801561039157600080fd5b5061039a6110c0565b604051808260018111156103aa57fe5b60ff16815260200191505060405180910390f35b3480156103ca57600080fd5b506101b16110c9565b3480156103df57600080fd5b5061026e6111a7565b6005805460408051602060026001851615610100026000190190941693909304601f8101849004840282018401909252818152929183018282801561046e5780601f106104435761010080835404028352916020019161046e565b820191906000526020600020905b81548152906001019060200180831161045157829003601f168201915b505050505081565b60006104806111b6565b5060408051610200810182527f303030313032303330343035303630373038303930613062306330643065306681527f313031313132313331343135313631373138313931613162316331643165316660208201527f3230323132323233323432353236323732383239326132623263326432653266818301527f33303331333233333334333533363337333833393361336233633364336533666060828101919091527f343034313432343334343435343634373438343934613462346334643465346660808301527f353035313532353335343535353635373538353935613562356335643565356660a08301527f363036313632363336343635363636373638363936613662366336643665366660c08301527f373037313732373337343735373637373738373937613762376337643765376660e08301527f38303831383238333834383538363837383838393861386238633864386538666101008301527f39303931393239333934393539363937393839393961396239633964396539666101208301527f61306131613261336134613561366137613861396161616261636164616561666101408301527f62306231623262336234623562366237623862396261626262636264626562666101608301527f63306331633263336334633563366337633863396361636263636364636563666101808301527f64306431643264336434643564366437643864396461646264636464646564666101a08301527f65306531653265336534653565366537653865396561656265636564656565666101c08301527f66306631663266336634663566366637663866396661666266636664666566666101e08301528251602a808252818301909452919290916000918291829182918291816020016020820280388339019050509550600160a060020a038c169450600093505b60148410156108275784600c85016020811061074b57fe5b60f860020a91901a810204925050601060ff80841682900492506002600f851602918891841690811061077a57fe5b60200201518160ff1660208110151561078f57fe5b1a60f860020a0286856002026002018151811015156107aa57fe5b906020010190600160f860020a031916908160001a9053508660ff8316601081106107d157fe5b60200201518160010160ff166020811015156107e957fe5b1a60f860020a02868560020260030181518110151561080457fe5b906020010190600160f860020a031916908160001a905350600190930192610733565b85517f3000000000000000000000000000000000000000000000000000000000000000908790600090811061085857fe5b906020010190600160f860020a031916908160001a90535085517f780000000000000000000000000000000000000000000000000000000000000090879060019081106108a157fe5b906020010190600160f860020a031916908160001a905350600160a060020a038c1660009081526002602052604090205460ff168015610955575060018c600160a060020a031663c19d93fb6040518163ffffffff1660e060020a028152600401602060405180830381600087803b15801561091c57600080fd5b505af1158015610930573d6000803e3d6000fd5b505050506040513d602081101561094657600080fd5b5051600281111561095357fe5b145b8015610b4c57508b600160a060020a031663b4fd72966040518163ffffffff1660e060020a028152600401602060405180830381600087803b15801561099a57600080fd5b505af11580156109ae573d6000803e3d6000fd5b505050506040513d60208110156109c457600080fd5b50516040517f19457468657265756d205369676e6564204d6573736167653a0a34320000000060208281019182528951600160a060020a03909416936001938b9392603c90910191908401908083835b60208310610a335780518252601f199092019160209182019101610a14565b6001836020036101000a0380198251168184511680821785525050505050509050019150506040516020818303038152906040526040518082805190602001908083835b60208310610a965780518252601f199092019160209182019101610a77565b6001836020036101000a03801982511681845116808217855250505050505090500191505060405180910390208d8d8d604051600081526020016040526040518085600019166000191681526020018460ff1660ff1681526020018360001916600019168152602001826000191660001916815260200194505050505060206040516020810390808403906000865af1158015610b37573d6000803e3d6000fd5b50505060206040510351600160a060020a0316145b15610b5a5760019750610b5f565b600097505b50505050505050949350505050565b6000805460ff166001811115610b8057fe5b14610b8a57600080fd5b6000546101009004600160a060020a03163214610ba657600080fd5b600080546001919060ff191682805b0217905550565b600080808060005460ff166001811115610bd257fe5b14610bdc57600080fd5b600154600354600160a060020a0390911690610bf66111d6565b600160a060020a0390921682526020820152604080519182900301906000f080158015610c27573d6000803e3d6000fd5b50600160a060020a0381166000818152600260209081526040808320805460ff1916600117905580517fb4fd729600000000000000000000000000000000000000000000000000000000815290519495507fa746868d6453f8bae4369a738168c9b369a52f877ee08ab4c0dd0448b903d37f9486949363b4fd729693600480850194919392918390030190829087803b158015610cc357600080fd5b505af1158015610cd7573d6000803e3d6000fd5b505050506040513d6020811015610ced57600080fd5b505160035460408051600160a060020a03948516815293909216602084015282820152519081900360600190a160035490939092509050565b6004805460408051602060026001851615610100026000190190941693909304601f8101849004840282018401909252818152929183018282801561046e5780601f106104435761010080835404028352916020019161046e565b6000546101009004600160a060020a03163214610d9d57600080fd5b8051610db09060059060208401906111e6565b5050565b6000546101009004600160a060020a031681565b6000546101009004600160a060020a03163214610de457600080fd5b600355565b60026020526000908152604090205460ff1681565b60035481565b600160005460ff166001811115610e1757fe5b14610e2157600080fd5b6000546101009004600160a060020a03163214610e3d57600080fd5b60008054819060ff1916600182610bb5565b600160a060020a03841660009081526002602052604090205460ff161515610e7657600080fd5b604080517f6a3e83b300000000000000000000000000000000000000000000000000000000815260ff8516600482015260248101849052604481018390529051600160a060020a03861691636a3e83b39160648083019260209291908290030181600087803b158015610ee857600080fd5b505af1158015610efc573d6000803e3d6000fd5b505050506040513d6020811015610f1257600080fd5b50511515610f1f57600080fd5b600160009054906101000a9004600160a060020a0316600160a060020a03166323b872dd85600060019054906101000a9004600160a060020a031687600160a060020a031663556a61216040518163ffffffff1660e060020a028152600401602060405180830381600087803b158015610f9857600080fd5b505af1158015610fac573d6000803e3d6000fd5b505050506040513d6020811015610fc257600080fd5b50516040805160e060020a63ffffffff8716028152600160a060020a0394851660048201529290931660248301526044820152905160648083019260209291908290030181600087803b15801561101857600080fd5b505af115801561102c573d6000803e3d6000fd5b505050506040513d602081101561104257600080fd5b5051151561104f57600080fd5b60408051600160a060020a038616815290517fa7ce9489b811cd79bb8695d6ad4051484c96aea68805ffa76eea626f7121f8009181900360200190a150505050565b6000546101009004600160a060020a031632146110ad57600080fd5b8051610db09060049060208401906111e6565b60005460ff1681565b3360008181526002602052604090205460ff1615156110e757600080fd5b600081600160a060020a031663c19d93fb6040518163ffffffff1660e060020a028152600401602060405180830381600087803b15801561112757600080fd5b505af115801561113b573d6000803e3d6000fd5b505050506040513d602081101561115157600080fd5b5051600281111561115e57fe5b1461116857600080fd5b60408051600160a060020a038316815290517f0fb2f12acb9930f9d48a95b9614dd225d181403301c8c740dd760fe9698aeafd9181900360200190a150565b600154600160a060020a031681565b610200604051908101604052806010906020820280388339509192915050565b604051610baf8061128283390190565b828054600181600116156101000203166002900490600052602060002090601f016020900481019282601f1061122757805160ff1916838001178555611254565b82800160010185558215611254579182015b82811115611254578251825591602001919060010190611239565b50611260929150611264565b5090565b61127e91905b80821115611260576000815560010161126a565b905600608060405234801561001057600080fd5b50604051604080610baf83398101604052805160209091015160008054600160a060020a038416600160a060020a031991821617825560018390556002805482163217905560038054909116331780825560a060020a60ff021916740100000000000000000000000000000000000000008302179055505050610b17806100986000396000f3006080604052600436106100825763ffffffff7c0100000000000000000000000000000000000000000000000000000000600035041663556a612181146100875780636a3e83b3146100ae578063b4fd7296146100e3578063c19d93fb14610114578063ef47243d1461014d578063f5ff5c7614610164578063fc0c546a14610179575b600080fd5b34801561009357600080fd5b5061009c61018e565b60408051918252519081900360200190f35b3480156100ba57600080fd5b506100cf60ff60043516602435604435610194565b604080519115158252519081900360200190f35b3480156100ef57600080fd5b506100f86108af565b60408051600160a060020a039092168252519081900360200190f35b34801561012057600080fd5b506101296108be565b6040518082600281111561013957fe5b60ff16815260200191505060405180910390f35b34801561015957600080fd5b506101626108df565b005b34801561017057600080fd5b506100f8610aad565b34801561018557600080fd5b506100f8610abc565b60015481565b600061019e610acb565b6060600080808080600160035474010000000000000000000000000000000000000000900460ff1660028111156101d157fe5b146101db57600080fd5b60408051610200810182527f303030313032303330343035303630373038303930613062306330643065306681527f313031313132313331343135313631373138313931613162316331643165316660208201527f3230323132323233323432353236323732383239326132623263326432653266818301527f33303331333233333334333533363337333833393361336233633364336533666060808301919091527f343034313432343334343435343634373438343934613462346334643465346660808301527f353035313532353335343535353635373538353935613562356335643565356660a08301527f363036313632363336343635363636373638363936613662366336643665366660c08301527f373037313732373337343735373637373738373937613762376337643765376660e08301527f38303831383238333834383538363837383838393861386238633864386538666101008301527f39303931393239333934393539363937393839393961396239633964396539666101208301527f61306131613261336134613561366137613861396161616261636164616561666101408301527f62306231623262336234623562366237623862396261626262636264626562666101608301527f63306331633263336334633563366337633863396361636263636364636563666101808301527f64306431643264336434643564366437643864396461646264636464646564666101a08301527f65306531653265336534653565366537653865396561656265636564656565666101c08301527f66306631663266336634663566366637663866396661666266636664666566666101e08301528251602a808252918101909352909850816020016020820280388339019050509550309450600093505b601484101561056c5784600c85016020811061049057fe5b60f860020a91901a810204925050601060ff80841682900492506002600f85160291889184169081106104bf57fe5b60200201518160ff166020811015156104d457fe5b1a60f860020a0286856002026002018151811015156104ef57fe5b906020010190600160f860020a031916908160001a9053508660ff83166010811061051657fe5b60200201518160010160ff1660208110151561052e57fe5b1a60f860020a02868560020260030181518110151561054957fe5b906020010190600160f860020a031916908160001a905350600190930192610478565b85517f3000000000000000000000000000000000000000000000000000000000000000908790600090811061059d57fe5b906020010190600160f860020a031916908160001a90535085517f780000000000000000000000000000000000000000000000000000000000000090879060019081106105e657fe5b906020010190600160f860020a031916908160001a9053506002546040517f19457468657265756d205369676e6564204d6573736167653a0a34320000000060208083019182528951600160a060020a03909416936001938b9392603c90910191908401908083835b6020831061066e5780518252601f19909201916020918201910161064f565b6001836020036101000a0380198251168184511680821785525050505050509050019150506040516020818303038152906040526040518082805190602001908083835b602083106106d15780518252601f1990920191602091820191016106b2565b6001836020036101000a03801982511681845116808217855250505050505090500191505060405180910390208d8d8d604051600081526020016040526040518085600019166000191681526020018460ff1660ff1681526020018360001916600019168152602001826000191660001916815260200194505050505060206040516020810390808403906000865af1158015610772573d6000803e3d6000fd5b50505060206040510351600160a060020a031614151561079157600080fd5b60008054600354600154604080517f095ea7b3000000000000000000000000000000000000000000000000000000008152600160a060020a039384166004820152602481019290925251919092169263095ea7b392604480820193602093909283900390910190829087803b15801561080957600080fd5b505af115801561081d573d6000803e3d6000fd5b505050506040513d602081101561083357600080fd5b5051151561084057600080fd5b6003805474ff00000000000000000000000000000000000000001916740200000000000000000000000000000000000000001790556040517fc3feda8a94e1e6d26005ad24f78b1e773162175a4cfe587ffa6513036f1b17f590600090a15060019a9950505050505050505050565b600254600160a060020a031681565b60035474010000000000000000000000000000000000000000900460ff1681565b600060035474010000000000000000000000000000000000000000900460ff16600281111561090a57fe5b1461091457600080fd5b60008054600254600154604080517f23b872dd000000000000000000000000000000000000000000000000000000008152600160a060020a03938416600482015230602482015260448101929092525191909216926323b872dd92606480820193602093909283900390910190829087803b15801561099257600080fd5b505af11580156109a6573d6000803e3d6000fd5b505050506040513d60208110156109bc57600080fd5b505115156109c957600080fd5b600360009054906101000a9004600160a060020a0316600160a060020a031663ef47243d6040518163ffffffff167c0100000000000000000000000000000000000000000000000000000000028152600401600060405180830381600087803b158015610a3557600080fd5b505af1158015610a49573d6000803e3d6000fd5b50506003805474ff000000000000000000000000000000000000000019167401000000000000000000000000000000000000000017905550506040517f416215c90ce8ab9c8cf26413706dc28a3d64986c56f85cd12a17de69b234776190600090a1565b600354600160a060020a031681565b600054600160a060020a031681565b6102006040519081016040528060109060208202803883395091929150505600a165627a7a72305820da009824ea43e40fab5010d1dcddaf58fc039ee007f1231e4028f05c7487720b0029a165627a7a7230582058034efdd24239b4c95defaa7cef61170dec2032ca26e21ebd3f572f274fb1230029",
  "source": "pragma solidity ^0.4.24;\n\nimport \"openzeppelin-solidity/contracts/token/ERC20/ERC20.sol\";\nimport \"./Job.sol\";\n\ncontract Agent {\n    enum AgentState {\n        ENABLED,\n        DISABLED\n    }\n\n    AgentState public state;\n    address public owner;\n    ERC20 public token;\n    mapping(address => bool) public createdJobs;\n    uint public currentPrice;\n    string public endpoint;\n    string public metadataURI;\n\n    event JobCreated(address job, address consumer, uint jobPrice);\n    event JobFunded(address job);\n    event JobCompleted(address job);\n\n    constructor(address _token, uint _currentPrice, string _endpoint, string _metadataURI) public {\n        state = AgentState.ENABLED;\n        owner = tx.origin;\n        token = ERC20(_token);\n        currentPrice = _currentPrice;\n        endpoint = _endpoint;\n        metadataURI = _metadataURI;\n    }\n\n    function setPrice(uint _currentPrice) public {\n        require(tx.origin == owner);\n        currentPrice = _currentPrice;\n    }\n\n    function setEndpoint(string _endpoint) public {\n        require(tx.origin == owner);\n        endpoint = _endpoint;\n    }\n\n    function setMetadataURI(string _metadataURI) public {\n      require(tx.origin == owner);\n      metadataURI = _metadataURI;\n    }\n\n    function disable() public {\n        require(state == AgentState.ENABLED);\n        require(tx.origin == owner);\n        state = AgentState.DISABLED;\n    }\n\n    function enable() public {\n        require(state == AgentState.DISABLED);\n        require(tx.origin == owner);\n        state = AgentState.ENABLED;\n    }\n\n    function createJob() public returns (address, uint) {\n        require(state == AgentState.ENABLED);\n        address job = new Job(address(token), currentPrice);\n        createdJobs[job] = true;\n        emit JobCreated(job, Job(job).consumer(), currentPrice);\n        return (job, currentPrice);\n    }\n\n    function fundJob() public {\n        address job = msg.sender;\n        require(createdJobs[job]);\n        require(Job(job).state() == Job.JobState.PENDING);\n        emit JobFunded(job);\n    }\n\n\n    /*\n        With:\n        prefix = \"\\x19Ethereum Signed Message:\\n\"\n        payload = \"%x\".format(job_address)    || This is the 0x-prefixed hex-encoded\n                                              || string representation of the 20-byte\n                                              || job address\n\n        The signature payload is:\n        keccak256(prefix + str(len(payload)) + payload) || len(payload) is always 42\n                                                        || because addresses are 20\n                                                        || bytes (40 hex characters)\n                                                        || plus the 0x prefix\n    */\n    function validateJobInvocation(address job, uint8 v, bytes32 r, bytes32 s) public view returns (bool) {\n\n        // Convert 20-byte job address into 42-byte 0x-prefixed hex-encoded string.\n        // For each byte, the high nibble (uint8(byte) / 16) determines the target\n        // row in the conversion table (which contains the 16 2-char hex strings in\n        // the corresponding hexdecade), and the low nibble * 2 (uint8(byte) % 16 * 2)\n        // determines the offset of byte's 2-character hex representation\n        // within the row (* 2 because each byte is 2 characters long)\n        bytes32[16] memory conv = [\n            bytes32(\"000102030405060708090a0b0c0d0e0f\"),\n            bytes32(\"101112131415161718191a1b1c1d1e1f\"),\n            bytes32(\"202122232425262728292a2b2c2d2e2f\"),\n            bytes32(\"303132333435363738393a3b3c3d3e3f\"),\n            bytes32(\"404142434445464748494a4b4c4d4e4f\"),\n            bytes32(\"505152535455565758595a5b5c5d5e5f\"),\n            bytes32(\"606162636465666768696a6b6c6d6e6f\"),\n            bytes32(\"707172737475767778797a7b7c7d7e7f\"),\n            bytes32(\"808182838485868788898a8b8c8d8e8f\"),\n            bytes32(\"909192939495969798999a9b9c9d9e9f\"),\n            bytes32(\"a0a1a2a3a4a5a6a7a8a9aaabacadaeaf\"),\n            bytes32(\"b0b1b2b3b4b5b6b7b8b9babbbcbdbebf\"),\n            bytes32(\"c0c1c2c3c4c5c6c7c8c9cacbcccdcecf\"),\n            bytes32(\"d0d1d2d3d4d5d6d7d8d9dadbdcdddedf\"),\n            bytes32(\"e0e1e2e3e4e5e6e7e8e9eaebecedeeef\"),\n            bytes32(\"f0f1f2f3f4f5f6f7f8f9fafbfcfdfeff\")\n        ];\n\n        bytes memory jobAddressHexAsciiBytes = new bytes(42);\n\n        // Address isn't convertible straight to bytes32, but is once converted to uint256\n        bytes32 jobAddressBytes = bytes32(uint256(job));\n\n        for (uint i = 0; i < 20; i++) {\n\n            // jobAddressBytes contains 0x00 in bytes 0-12 since address has 20-byte length\n            uint8 curr = uint8(jobAddressBytes[i + 12]);\n            uint8 first = curr / 16;\n            uint8 second = curr % 16 * 2;\n            jobAddressHexAsciiBytes[2 + (i * 2)] = conv[first][second];\n            jobAddressHexAsciiBytes[3 + (i * 2)] = conv[first][second + 1];\n        }\n\n        // Set prefix to \"0x\"\n        jobAddressHexAsciiBytes[0] = byte(48);\n        jobAddressHexAsciiBytes[1] = byte(120);\n\n        if (createdJobs[job] && Job(job).state() == Job.JobState.FUNDED && ecrecover(keccak256(abi.encodePacked(\"\\x19Ethereum Signed Message:\\n42\", jobAddressHexAsciiBytes)), v, r, s) == Job(job).consumer()) {\n            return true;\n        }\n        return false;\n    }\n\n    function completeJob(address job, uint8 v, bytes32 r, bytes32 s) public {\n        require(createdJobs[job]);\n        require(Job(job).completeJob(v, r, s));\n        require(token.transferFrom(job, owner, Job(job).jobPrice()));\n        emit JobCompleted(job);\n    }\n}\n",
  "sourcePath": "/Users/erickearns/Documents/repositories/erickearns/singnet-forks/alpha-blockchain/contracts/Agent.sol",
  "compiler": {
    "name": "solc",
    "version": "0.4.24+commit.e67f0147.Emscripten.clang"
  },
  "schemaVersion": "2.0.1",
  "updatedAt": "2018-07-19T18:42:03.549Z"
}