{
  "contractName": "Agent",
  "abi": [
    {
      "constant": true,
      "inputs": [],
      "name": "endpoint",
      "outputs": [
        {
          "name": "",
          "type": "string"
        }
      ],
      "payable": false,
      "stateMutability": "view",
      "type": "function"
    },
    {
      "constant": true,
      "inputs": [],
      "name": "owner",
      "outputs": [
        {
          "name": "",
          "type": "address"
        }
      ],
      "payable": false,
      "stateMutability": "view",
      "type": "function"
    },
    {
      "constant": true,
      "inputs": [
        {
          "name": "",
          "type": "address"
        }
      ],
      "name": "createdJobs",
      "outputs": [
        {
          "name": "",
          "type": "bool"
        }
      ],
      "payable": false,
      "stateMutability": "view",
      "type": "function"
    },
    {
      "constant": true,
      "inputs": [],
      "name": "currentPrice",
      "outputs": [
        {
          "name": "",
          "type": "uint256"
        }
      ],
      "payable": false,
      "stateMutability": "view",
      "type": "function"
    },
    {
      "constant": true,
      "inputs": [],
      "name": "definition",
      "outputs": [
        {
          "name": "",
          "type": "string"
        }
      ],
      "payable": false,
      "stateMutability": "view",
      "type": "function"
    },
    {
      "constant": true,
      "inputs": [],
      "name": "state",
      "outputs": [
        {
          "name": "",
          "type": "uint8"
        }
      ],
      "payable": false,
      "stateMutability": "view",
      "type": "function"
    },
    {
      "constant": true,
      "inputs": [],
      "name": "token",
      "outputs": [
        {
          "name": "",
          "type": "address"
        }
      ],
      "payable": false,
      "stateMutability": "view",
      "type": "function"
    },
    {
      "inputs": [
        {
          "name": "_token",
          "type": "address"
        },
        {
          "name": "_currentPrice",
          "type": "uint256"
        },
        {
          "name": "_endpoint",
          "type": "string"
        },
        {
          "name": "_definition",
          "type": "string"
        }
      ],
      "payable": false,
      "stateMutability": "nonpayable",
      "type": "constructor"
    },
    {
      "anonymous": false,
      "inputs": [
        {
          "indexed": false,
          "name": "job",
          "type": "address"
        },
        {
          "indexed": false,
          "name": "consumer",
          "type": "address"
        },
        {
          "indexed": false,
          "name": "jobPrice",
          "type": "uint256"
        }
      ],
      "name": "JobCreated",
      "type": "event"
    },
    {
      "anonymous": false,
      "inputs": [
        {
          "indexed": false,
          "name": "job",
          "type": "address"
        }
      ],
      "name": "JobFunded",
      "type": "event"
    },
    {
      "anonymous": false,
      "inputs": [
        {
          "indexed": false,
          "name": "job",
          "type": "address"
        }
      ],
      "name": "JobCompleted",
      "type": "event"
    },
    {
      "constant": false,
      "inputs": [
        {
          "name": "_currentPrice",
          "type": "uint256"
        }
      ],
      "name": "setPrice",
      "outputs": [],
      "payable": false,
      "stateMutability": "nonpayable",
      "type": "function"
    },
    {
      "constant": false,
      "inputs": [
        {
          "name": "_endpoint",
          "type": "string"
        }
      ],
      "name": "setEndpoint",
      "outputs": [],
      "payable": false,
      "stateMutability": "nonpayable",
      "type": "function"
    },
    {
      "constant": false,
      "inputs": [
        {
          "name": "_definition",
          "type": "string"
        }
      ],
      "name": "setDefinition",
      "outputs": [],
      "payable": false,
      "stateMutability": "nonpayable",
      "type": "function"
    },
    {
      "constant": false,
      "inputs": [],
      "name": "disable",
      "outputs": [],
      "payable": false,
      "stateMutability": "nonpayable",
      "type": "function"
    },
    {
      "constant": false,
      "inputs": [],
      "name": "enable",
      "outputs": [],
      "payable": false,
      "stateMutability": "nonpayable",
      "type": "function"
    },
    {
      "constant": false,
      "inputs": [],
      "name": "createJob",
      "outputs": [
        {
          "name": "",
          "type": "address"
        },
        {
          "name": "",
          "type": "uint256"
        }
      ],
      "payable": false,
      "stateMutability": "nonpayable",
      "type": "function"
    },
    {
      "constant": false,
      "inputs": [],
      "name": "fundJob",
      "outputs": [],
      "payable": false,
      "stateMutability": "nonpayable",
      "type": "function"
    },
    {
      "constant": true,
      "inputs": [
        {
          "name": "job",
          "type": "address"
        },
        {
          "name": "v",
          "type": "uint8"
        },
        {
          "name": "r",
          "type": "bytes32"
        },
        {
          "name": "s",
          "type": "bytes32"
        }
      ],
      "name": "validateJobInvocation",
      "outputs": [
        {
          "name": "",
          "type": "bool"
        }
      ],
      "payable": false,
      "stateMutability": "view",
      "type": "function"
    },
    {
      "constant": false,
      "inputs": [
        {
          "name": "job",
          "type": "address"
        },
        {
          "name": "v",
          "type": "uint8"
        },
        {
          "name": "r",
          "type": "bytes32"
        },
        {
          "name": "s",
          "type": "bytes32"
        }
      ],
      "name": "completeJob",
      "outputs": [],
      "payable": false,
      "stateMutability": "nonpayable",
      "type": "function"
    }
  ],
  "bytecode": "0x606060405234156200001057600080fd5b6040516200201c3803806200201c8339810160405280805190602001909190805190602001909190805182019190602001805182019190505060008060006101000a81548160ff021916908360018111156200006857fe5b021790555032600060016101000a81548173ffffffffffffffffffffffffffffffffffffffff021916908373ffffffffffffffffffffffffffffffffffffffff16021790555083600160006101000a81548173ffffffffffffffffffffffffffffffffffffffff021916908373ffffffffffffffffffffffffffffffffffffffff1602179055508260038190555081600490805190602001906200010e92919062000132565b5080600590805190602001906200012792919062000132565b5050505050620001e1565b828054600181600116156101000203166002900490600052602060002090601f016020900481019282601f106200017557805160ff1916838001178555620001a6565b82800160010185558215620001a6579182015b82811115620001a557825182559160200191906001019062000188565b5b509050620001b59190620001b9565b5090565b620001de91905b80821115620001da576000816000905550600101620001c0565b5090565b90565b611e2b80620001f16000396000f3006060604052600436106100e6576000357c0100000000000000000000000000000000000000000000000000000000900463ffffffff1680630a8ec587146100eb5780632f2770db146101625780635b6b5710146101775780635e280f11146101d35780638da5cb5b1461026157806391b7f5ed146102b657806394715ac4146102d95780639d1b464a1461032a578063a3907d7114610353578063aab8f0a714610368578063bb9df86e146103f6578063bc856b9814610455578063c19d93fb146104b2578063dc3f5e80146104e9578063ef47243d14610546578063fc0c546a1461055b575b600080fd5b34156100f657600080fd5b610148600480803573ffffffffffffffffffffffffffffffffffffffff1690602001909190803560ff1690602001909190803560001916906020019091908035600019169060200190919050506105b0565b604051808215151515815260200191505060405180910390f35b341561016d57600080fd5b610175610873565b005b341561018257600080fd5b61018a610927565b604051808373ffffffffffffffffffffffffffffffffffffffff1673ffffffffffffffffffffffffffffffffffffffff1681526020018281526020019250505060405180910390f35b34156101de57600080fd5b6101e6610b60565b6040518080602001828103825283818151815260200191508051906020019080838360005b8381101561022657808201518184015260208101905061020b565b50505050905090810190601f1680156102535780820380516001836020036101000a031916815260200191505b509250505060405180910390f35b341561026c57600080fd5b610274610bfe565b604051808273ffffffffffffffffffffffffffffffffffffffff1673ffffffffffffffffffffffffffffffffffffffff16815260200191505060405180910390f35b34156102c157600080fd5b6102d76004808035906020019091905050610c24565b005b34156102e457600080fd5b610310600480803573ffffffffffffffffffffffffffffffffffffffff16906020019091905050610c8a565b604051808215151515815260200191505060405180910390f35b341561033557600080fd5b61033d610caa565b6040518082815260200191505060405180910390f35b341561035e57600080fd5b610366610cb0565b005b341561037357600080fd5b61037b610d63565b6040518080602001828103825283818151815260200191508051906020019080838360005b838110156103bb5780820151818401526020810190506103a0565b50505050905090810190601f1680156103e85780820380516001836020036101000a031916815260200191505b509250505060405180910390f35b341561040157600080fd5b610453600480803573ffffffffffffffffffffffffffffffffffffffff1690602001909190803560ff169060200190919080356000191690602001909190803560001916906020019091905050610e01565b005b341561046057600080fd5b6104b0600480803590602001908201803590602001908080601f0160208091040260200160405190810160405280939291908181526020018383808284378201915050505050509190505061112d565b005b34156104bd57600080fd5b6104c56111a3565b604051808260018111156104d557fe5b60ff16815260200191505060405180910390f35b34156104f457600080fd5b610544600480803590602001908201803590602001908080601f016020809104026020016040519081016040528093929190818152602001838380828437820191505050505050919050506111b5565b005b341561055157600080fd5b61055961122b565b005b341561056657600080fd5b61056e61138c565b604051808273ffffffffffffffffffffffffffffffffffffffff1673ffffffffffffffffffffffffffffffffffffffff16815260200191505060405180910390f35b6000600260008673ffffffffffffffffffffffffffffffffffffffff1673ffffffffffffffffffffffffffffffffffffffff16815260200190815260200160002060009054906101000a900460ff16801561069a57506001600281111561061357fe5b8573ffffffffffffffffffffffffffffffffffffffff1663c19d93fb6040518163ffffffff167c0100000000000000000000000000000000000000000000000000000000028152600401602060405180830381600087803b151561067657600080fd5b5af1151561068357600080fd5b50505060405180519050600281111561069857fe5b145b801561085857508473ffffffffffffffffffffffffffffffffffffffff1663b4fd72966040518163ffffffff167c0100000000000000000000000000000000000000000000000000000000028152600401602060405180830381600087803b151561070457600080fd5b5af1151561071157600080fd5b5050506040518051905073ffffffffffffffffffffffffffffffffffffffff16600186604051808273ffffffffffffffffffffffffffffffffffffffff1673ffffffffffffffffffffffffffffffffffffffff166c01000000000000000000000000028152601401915050604051809103902060405180807f19457468657265756d205369676e6564204d6573736167653a0a333200000000815250601c0182600019166000191681526020019150506040518091039020868686604051600081526020016040526040518085600019166000191681526020018460ff1660ff1681526020018360001916600019168152602001826000191660001916815260200194505050505060206040516020810390808403906000865af1151561083757600080fd5b50506020604051035173ffffffffffffffffffffffffffffffffffffffff16145b15610866576001905061086b565b600090505b949350505050565b6000600181111561088057fe5b6000809054906101000a900460ff16600181111561089a57fe5b1415156108a657600080fd5b600060019054906101000a900473ffffffffffffffffffffffffffffffffffffffff1673ffffffffffffffffffffffffffffffffffffffff163273ffffffffffffffffffffffffffffffffffffffff1614151561090257600080fd5b60016000806101000a81548160ff0219169083600181111561092057fe5b0217905550565b600080600080600181111561093857fe5b6000809054906101000a900460ff16600181111561095257fe5b14151561095e57600080fd5b600160009054906101000a900473ffffffffffffffffffffffffffffffffffffffff1660035461098c6113b2565b808373ffffffffffffffffffffffffffffffffffffffff1673ffffffffffffffffffffffffffffffffffffffff16815260200182815260200192505050604051809103906000f08015156109df57600080fd5b90506001600260008373ffffffffffffffffffffffffffffffffffffffff1673ffffffffffffffffffffffffffffffffffffffff16815260200190815260200160002060006101000a81548160ff0219169083151502179055507fa746868d6453f8bae4369a738168c9b369a52f877ee08ab4c0dd0448b903d37f818273ffffffffffffffffffffffffffffffffffffffff1663b4fd72966040518163ffffffff167c0100000000000000000000000000000000000000000000000000000000028152600401602060405180830381600087803b1515610abe57600080fd5b5af11515610acb57600080fd5b50505060405180519050600354604051808473ffffffffffffffffffffffffffffffffffffffff1673ffffffffffffffffffffffffffffffffffffffff1681526020018373ffffffffffffffffffffffffffffffffffffffff1673ffffffffffffffffffffffffffffffffffffffff168152602001828152602001935050505060405180910390a18060035492509250509091565b60048054600181600116156101000203166002900480601f016020809104026020016040519081016040528092919081815260200182805460018160011615610100020316600290048015610bf65780601f10610bcb57610100808354040283529160200191610bf6565b820191906000526020600020905b815481529060010190602001808311610bd957829003601f168201915b505050505081565b600060019054906101000a900473ffffffffffffffffffffffffffffffffffffffff1681565b600060019054906101000a900473ffffffffffffffffffffffffffffffffffffffff1673ffffffffffffffffffffffffffffffffffffffff163273ffffffffffffffffffffffffffffffffffffffff16141515610c8057600080fd5b8060038190555050565b60026020528060005260406000206000915054906101000a900460ff1681565b60035481565b600180811115610cbc57fe5b6000809054906101000a900460ff166001811115610cd657fe5b141515610ce257600080fd5b600060019054906101000a900473ffffffffffffffffffffffffffffffffffffffff1673ffffffffffffffffffffffffffffffffffffffff163273ffffffffffffffffffffffffffffffffffffffff16141515610d3e57600080fd5b60008060006101000a81548160ff02191690836001811115610d5c57fe5b0217905550565b60058054600181600116156101000203166002900480601f016020809104026020016040519081016040528092919081815260200182805460018160011615610100020316600290048015610df95780601f10610dce57610100808354040283529160200191610df9565b820191906000526020600020905b815481529060010190602001808311610ddc57829003601f168201915b505050505081565b600260008573ffffffffffffffffffffffffffffffffffffffff1673ffffffffffffffffffffffffffffffffffffffff16815260200190815260200160002060009054906101000a900460ff161515610e5957600080fd5b8373ffffffffffffffffffffffffffffffffffffffff16636a3e83b38484846040518463ffffffff167c0100000000000000000000000000000000000000000000000000000000028152600401808460ff1660ff168152602001836000191660001916815260200182600019166000191681526020019350505050602060405180830381600087803b1515610eed57600080fd5b5af11515610efa57600080fd5b505050604051805190501515610f0f57600080fd5b600160009054906101000a900473ffffffffffffffffffffffffffffffffffffffff1673ffffffffffffffffffffffffffffffffffffffff166323b872dd85600060019054906101000a900473ffffffffffffffffffffffffffffffffffffffff168773ffffffffffffffffffffffffffffffffffffffff1663556a61216040518163ffffffff167c0100000000000000000000000000000000000000000000000000000000028152600401602060405180830381600087803b1515610fd457600080fd5b5af11515610fe157600080fd5b505050604051805190506040518463ffffffff167c0100000000000000000000000000000000000000000000000000000000028152600401808473ffffffffffffffffffffffffffffffffffffffff1673ffffffffffffffffffffffffffffffffffffffff1681526020018373ffffffffffffffffffffffffffffffffffffffff1673ffffffffffffffffffffffffffffffffffffffff1681526020018281526020019350505050602060405180830381600087803b15156110a257600080fd5b5af115156110af57600080fd5b5050506040518051905015156110c457600080fd5b7fa7ce9489b811cd79bb8695d6ad4051484c96aea68805ffa76eea626f7121f80084604051808273ffffffffffffffffffffffffffffffffffffffff1673ffffffffffffffffffffffffffffffffffffffff16815260200191505060405180910390a150505050565b600060019054906101000a900473ffffffffffffffffffffffffffffffffffffffff1673ffffffffffffffffffffffffffffffffffffffff163273ffffffffffffffffffffffffffffffffffffffff1614151561118957600080fd5b806004908051906020019061119f9291906113c2565b5050565b6000809054906101000a900460ff1681565b600060019054906101000a900473ffffffffffffffffffffffffffffffffffffffff1673ffffffffffffffffffffffffffffffffffffffff163273ffffffffffffffffffffffffffffffffffffffff1614151561121157600080fd5b80600590805190602001906112279291906113c2565b5050565b6000339050600260008273ffffffffffffffffffffffffffffffffffffffff1673ffffffffffffffffffffffffffffffffffffffff16815260200190815260200160002060009054906101000a900460ff16151561128857600080fd5b6000600281111561129557fe5b8173ffffffffffffffffffffffffffffffffffffffff1663c19d93fb6040518163ffffffff167c0100000000000000000000000000000000000000000000000000000000028152600401602060405180830381600087803b15156112f857600080fd5b5af1151561130557600080fd5b50505060405180519050600281111561131a57fe5b14151561132657600080fd5b7f0fb2f12acb9930f9d48a95b9614dd225d181403301c8c740dd760fe9698aeafd81604051808273ffffffffffffffffffffffffffffffffffffffff1673ffffffffffffffffffffffffffffffffffffffff16815260200191505060405180910390a150565b600160009054906101000a900473ffffffffffffffffffffffffffffffffffffffff1681565b6040516109988061146883390190565b828054600181600116156101000203166002900490600052602060002090601f016020900481019282601f1061140357805160ff1916838001178555611431565b82800160010185558215611431579182015b82811115611430578251825591602001919060010190611415565b5b50905061143e9190611442565b5090565b61146491905b80821115611460576000816000905550600101611448565b5090565b9056006060604052341561000f57600080fd5b60405160408061099883398101604052808051906020019091908051906020019091905050816000806101000a81548173ffffffffffffffffffffffffffffffffffffffff021916908373ffffffffffffffffffffffffffffffffffffffff1602179055508060018190555032600260006101000a81548173ffffffffffffffffffffffffffffffffffffffff021916908373ffffffffffffffffffffffffffffffffffffffff16021790555033600360006101000a81548173ffffffffffffffffffffffffffffffffffffffff021916908373ffffffffffffffffffffffffffffffffffffffff1602179055506000600360146101000a81548160ff0219169083600281111561011c57fe5b02179055505050610866806101326000396000f300606060405260043610610083576000357c0100000000000000000000000000000000000000000000000000000000900463ffffffff168063556a6121146100885780636a3e83b3146100b1578063b4fd729614610109578063c19d93fb1461015e578063ef47243d14610195578063f5ff5c76146101aa578063fc0c546a146101ff575b600080fd5b341561009357600080fd5b61009b610254565b6040518082815260200191505060405180910390f35b34156100bc57600080fd5b6100ef600480803560ff16906020019091908035600019169060200190919080356000191690602001909190505061025a565b604051808215151515815260200191505060405180910390f35b341561011457600080fd5b61011c61055e565b604051808273ffffffffffffffffffffffffffffffffffffffff1673ffffffffffffffffffffffffffffffffffffffff16815260200191505060405180910390f35b341561016957600080fd5b610171610584565b6040518082600281111561018157fe5b60ff16815260200191505060405180910390f35b34156101a057600080fd5b6101a8610597565b005b34156101b557600080fd5b6101bd6107ef565b604051808273ffffffffffffffffffffffffffffffffffffffff1673ffffffffffffffffffffffffffffffffffffffff16815260200191505060405180910390f35b341561020a57600080fd5b610212610815565b604051808273ffffffffffffffffffffffffffffffffffffffff1673ffffffffffffffffffffffffffffffffffffffff16815260200191505060405180910390f35b60015481565b60006001600281111561026957fe5b600360149054906101000a900460ff16600281111561028457fe5b14151561029057600080fd5b600260009054906101000a900473ffffffffffffffffffffffffffffffffffffffff1673ffffffffffffffffffffffffffffffffffffffff16600130604051808273ffffffffffffffffffffffffffffffffffffffff1673ffffffffffffffffffffffffffffffffffffffff166c01000000000000000000000000028152601401915050604051809103902060405180807f19457468657265756d205369676e6564204d6573736167653a0a333200000000815250601c0182600019166000191681526020019150506040518091039020868686604051600081526020016040526040518085600019166000191681526020018460ff1660ff1681526020018360001916600019168152602001826000191660001916815260200194505050505060206040516020810390808403906000865af115156103cf57600080fd5b50506020604051035173ffffffffffffffffffffffffffffffffffffffff161415156103fa57600080fd5b6000809054906101000a900473ffffffffffffffffffffffffffffffffffffffff1673ffffffffffffffffffffffffffffffffffffffff1663095ea7b3600360009054906101000a900473ffffffffffffffffffffffffffffffffffffffff166001546040518363ffffffff167c0100000000000000000000000000000000000000000000000000000000028152600401808373ffffffffffffffffffffffffffffffffffffffff1673ffffffffffffffffffffffffffffffffffffffff16815260200182815260200192505050602060405180830381600087803b15156104e157600080fd5b5af115156104ee57600080fd5b50505060405180519050151561050357600080fd5b6002600360146101000a81548160ff0219169083600281111561052257fe5b02179055507fc3feda8a94e1e6d26005ad24f78b1e773162175a4cfe587ffa6513036f1b17f560405160405180910390a1600190509392505050565b600260009054906101000a900473ffffffffffffffffffffffffffffffffffffffff1681565b600360149054906101000a900460ff1681565b600060028111156105a457fe5b600360149054906101000a900460ff1660028111156105bf57fe5b1415156105cb57600080fd5b6000809054906101000a900473ffffffffffffffffffffffffffffffffffffffff1673ffffffffffffffffffffffffffffffffffffffff166323b872dd600260009054906101000a900473ffffffffffffffffffffffffffffffffffffffff16306001546040518463ffffffff167c0100000000000000000000000000000000000000000000000000000000028152600401808473ffffffffffffffffffffffffffffffffffffffff1673ffffffffffffffffffffffffffffffffffffffff1681526020018373ffffffffffffffffffffffffffffffffffffffff1673ffffffffffffffffffffffffffffffffffffffff1681526020018281526020019350505050602060405180830381600087803b15156106e657600080fd5b5af115156106f357600080fd5b50505060405180519050151561070857600080fd5b600360009054906101000a900473ffffffffffffffffffffffffffffffffffffffff1673ffffffffffffffffffffffffffffffffffffffff1663ef47243d6040518163ffffffff167c0100000000000000000000000000000000000000000000000000000000028152600401600060405180830381600087803b151561078d57600080fd5b5af1151561079a57600080fd5b5050506001600360146101000a81548160ff021916908360028111156107bc57fe5b02179055507f416215c90ce8ab9c8cf26413706dc28a3d64986c56f85cd12a17de69b234776160405160405180910390a1565b600360009054906101000a900473ffffffffffffffffffffffffffffffffffffffff1681565b6000809054906101000a900473ffffffffffffffffffffffffffffffffffffffff16815600a165627a7a723058209ece6c1c287a7f8f77ab87226b61617b056dfc7825daf4fe803ae6c803ef16910029a165627a7a723058203fd5b96e643ea7907b3ce20b66b9efddc03baee8525664f26da07c3c333a7fb70029",
  "source": "pragma solidity ^0.4.21;\n\nimport \"zeppelin-solidity/contracts/token/ERC20.sol\";\nimport \"./Job.sol\";\n\ncontract Agent {\n    enum AgentState {\n        ENABLED,\n        DISABLED\n    }\n\n    AgentState public state;\n    address public owner;\n    ERC20 public token;\n    mapping(address => bool) public createdJobs;\n    uint public currentPrice;\n    string public endpoint;\n    string public definition;\n\n    event JobCreated(address job, address consumer, uint jobPrice);\n    event JobFunded(address job);\n    event JobCompleted(address job);\n\n    function Agent(address _token, uint _currentPrice, string _endpoint, string _definition) public {\n        state = AgentState.ENABLED;\n        owner = tx.origin;\n        token = ERC20(_token);\n        currentPrice = _currentPrice;\n        endpoint = _endpoint;\n        definition = _definition;\n    }\n\n    function setPrice(uint _currentPrice) public {\n        require(tx.origin == owner);\n        currentPrice = _currentPrice;\n    }\n\n    function setEndpoint(string _endpoint) public {\n        require(tx.origin == owner);\n        endpoint = _endpoint;\n    }\n\n    function setDefinition(string _definition) public {\n      require(tx.origin == owner);\n      definition = _definition;\n    }\n\n    function disable() public {\n        require(state == AgentState.ENABLED);\n        require(tx.origin == owner);\n        state = AgentState.DISABLED;\n    }\n\n    function enable() public {\n        require(state == AgentState.DISABLED);\n        require(tx.origin == owner);\n        state = AgentState.ENABLED;\n    }\n\n    function createJob() public returns (address, uint) {\n        require(state == AgentState.ENABLED);\n        address job = new Job(address(token), currentPrice);\n        createdJobs[job] = true;\n        emit JobCreated(job, Job(job).consumer(), currentPrice);\n        return (job, currentPrice);\n    }\n\n    function fundJob() public {\n        address job = msg.sender;\n        require(createdJobs[job]);\n        require(Job(job).state() == Job.JobState.PENDING);\n        emit JobFunded(job);\n    }\n\n    function validateJobInvocation(address job, uint8 v, bytes32 r, bytes32 s) public view returns (bool) {\n        if (createdJobs[job] && Job(job).state() == Job.JobState.FUNDED && ecrecover(keccak256(\"\\x19Ethereum Signed Message:\\n32\", keccak256(job)), v, r, s) == Job(job).consumer()) {\n            return true;\n        }\n        return false;\n    }\n\n    function completeJob(address job, uint8 v, bytes32 r, bytes32 s) public {\n        require(createdJobs[job]);\n        require(Job(job).completeJob(v, r, s));\n        require(token.transferFrom(job, owner, Job(job).jobPrice()));\n        emit JobCompleted(job);\n    }\n}\n",
  "sourcePath": "/Users/valerio.versace/repo/SingularityNET/alpha-blockchain/contracts/Agent.sol",
  "compiler": {
    "name": "solc",
    "version": "0.4.21+commit.dfe3193c.Emscripten.clang"
  },
  "schemaVersion": "2.0.0",
  "updatedAt": "2018-05-22T17:00:38.670Z"
}