{
  "contractName": "AgentFactory",
  "abi": [
    {
      "constant": true,
      "inputs": [
        {
          "name": "",
          "type": "uint256"
        }
      ],
      "name": "createdAgents",
      "outputs": [
        {
          "name": "",
          "type": "address"
        }
      ],
      "payable": false,
      "stateMutability": "view",
      "type": "function"
    },
    {
      "constant": true,
      "inputs": [],
      "name": "token",
      "outputs": [
        {
          "name": "",
          "type": "address"
        }
      ],
      "payable": false,
      "stateMutability": "view",
      "type": "function"
    },
    {
      "inputs": [
        {
          "name": "_token",
          "type": "address"
        }
      ],
      "payable": false,
      "stateMutability": "nonpayable",
      "type": "constructor"
    },
    {
      "anonymous": false,
      "inputs": [
        {
          "indexed": false,
          "name": "agent",
          "type": "address"
        }
      ],
      "name": "AgentCreated",
      "type": "event"
    },
    {
      "constant": false,
      "inputs": [
        {
          "name": "price",
          "type": "uint256"
        }
      ],
      "name": "createAgent",
      "outputs": [
        {
          "name": "",
          "type": "address"
        }
      ],
      "payable": false,
      "stateMutability": "nonpayable",
      "type": "function"
    }
  ],
  "bytecode": "0x6060604052341561000f57600080fd5b604051602080611c2e83398101604052808051906020019091905050806000806101000a81548173ffffffffffffffffffffffffffffffffffffffff021916908373ffffffffffffffffffffffffffffffffffffffff16021790555050611bb38061007b6000396000f300606060405260043610610057576000357c0100000000000000000000000000000000000000000000000000000000900463ffffffff16806356e36b931461005c578063ac629034146100bf578063fc0c546a14610122575b600080fd5b341561006757600080fd5b61007d6004808035906020019091905050610177565b604051808273ffffffffffffffffffffffffffffffffffffffff1673ffffffffffffffffffffffffffffffffffffffff16815260200191505060405180910390f35b34156100ca57600080fd5b6100e060048080359060200190919050506102c9565b604051808273ffffffffffffffffffffffffffffffffffffffff1673ffffffffffffffffffffffffffffffffffffffff16815260200191505060405180910390f35b341561012d57600080fd5b610135610308565b604051808273ffffffffffffffffffffffffffffffffffffffff1673ffffffffffffffffffffffffffffffffffffffff16815260200191505060405180910390f35b6000806000809054906101000a900473ffffffffffffffffffffffffffffffffffffffff16836101a561032d565b808373ffffffffffffffffffffffffffffffffffffffff1673ffffffffffffffffffffffffffffffffffffffff16815260200182815260200192505050604051809103906000f08015156101f857600080fd5b90506001805480600101828161020e919061033d565b9160005260206000209001600083909190916101000a81548173ffffffffffffffffffffffffffffffffffffffff021916908373ffffffffffffffffffffffffffffffffffffffff160217905550507f877308701f17f466f5159690a00bffce67cd40c83b6e7894a4003de99e7b911c81604051808273ffffffffffffffffffffffffffffffffffffffff1673ffffffffffffffffffffffffffffffffffffffff16815260200191505060405180910390a180915050919050565b6001818154811015156102d857fe5b90600052602060002090016000915054906101000a900473ffffffffffffffffffffffffffffffffffffffff1681565b6000809054906101000a900473ffffffffffffffffffffffffffffffffffffffff1681565b6040516117f98061038f83390190565b815481835581811511610364578183600052602060002091820191016103639190610369565b5b505050565b61038b91905b8082111561038757600081600090555060010161036f565b5090565b9056006060604052341561000f57600080fd5b6040516040806117f983398101604052808051906020019091908051906020019091905050326000806101000a81548173ffffffffffffffffffffffffffffffffffffffff021916908373ffffffffffffffffffffffffffffffffffffffff16021790555081600160006101000a81548173ffffffffffffffffffffffffffffffffffffffff021916908373ffffffffffffffffffffffffffffffffffffffff16021790555080600381905550505061172c806100cd6000396000f300606060405260043610610099576000357c0100000000000000000000000000000000000000000000000000000000900463ffffffff1680630a8ec5871461009e5780635b6b5710146101155780638da5cb5b1461017157806391b7f5ed146101c657806394715ac4146101e95780639d1b464a1461023a578063bb9df86e14610263578063ef47243d146102c2578063fc0c546a146102d7575b600080fd5b34156100a957600080fd5b6100fb600480803573ffffffffffffffffffffffffffffffffffffffff1690602001909190803560ff16906020019091908035600019169060200190919080356000191690602001909190505061032c565b604051808215151515815260200191505060405180910390f35b341561012057600080fd5b6101286105ef565b604051808373ffffffffffffffffffffffffffffffffffffffff1673ffffffffffffffffffffffffffffffffffffffff1681526020018281526020019250505060405180910390f35b341561017c57600080fd5b6101846107f6565b604051808273ffffffffffffffffffffffffffffffffffffffff1673ffffffffffffffffffffffffffffffffffffffff16815260200191505060405180910390f35b34156101d157600080fd5b6101e7600480803590602001909190505061081b565b005b34156101f457600080fd5b610220600480803573ffffffffffffffffffffffffffffffffffffffff16906020019091905050610880565b604051808215151515815260200191505060405180910390f35b341561024557600080fd5b61024d6108a0565b6040518082815260200191505060405180910390f35b341561026e57600080fd5b6102c0600480803573ffffffffffffffffffffffffffffffffffffffff1690602001909190803560ff1690602001909190803560001916906020019091908035600019169060200190919050506108a6565b005b34156102cd57600080fd5b6102d5610bd1565b005b34156102e257600080fd5b6102ea610d32565b604051808273ffffffffffffffffffffffffffffffffffffffff1673ffffffffffffffffffffffffffffffffffffffff16815260200191505060405180910390f35b6000600260008673ffffffffffffffffffffffffffffffffffffffff1673ffffffffffffffffffffffffffffffffffffffff16815260200190815260200160002060009054906101000a900460ff16801561041657506001600281111561038f57fe5b8573ffffffffffffffffffffffffffffffffffffffff1663200d2ed26040518163ffffffff167c0100000000000000000000000000000000000000000000000000000000028152600401602060405180830381600087803b15156103f257600080fd5b5af115156103ff57600080fd5b50505060405180519050600281111561041457fe5b145b80156105d457508473ffffffffffffffffffffffffffffffffffffffff1663b4fd72966040518163ffffffff167c0100000000000000000000000000000000000000000000000000000000028152600401602060405180830381600087803b151561048057600080fd5b5af1151561048d57600080fd5b5050506040518051905073ffffffffffffffffffffffffffffffffffffffff16600186604051808273ffffffffffffffffffffffffffffffffffffffff1673ffffffffffffffffffffffffffffffffffffffff166c01000000000000000000000000028152601401915050604051809103902060405180807f19457468657265756d205369676e6564204d6573736167653a0a333200000000815250601c0182600019166000191681526020019150506040518091039020868686604051600081526020016040526040518085600019166000191681526020018460ff1660ff1681526020018360001916600019168152602001826000191660001916815260200194505050505060206040516020810390808403906000865af115156105b357600080fd5b50506020604051035173ffffffffffffffffffffffffffffffffffffffff16145b156105e257600190506105e7565b600090505b949350505050565b6000806000600160009054906101000a900473ffffffffffffffffffffffffffffffffffffffff16600354610622610d58565b808373ffffffffffffffffffffffffffffffffffffffff1673ffffffffffffffffffffffffffffffffffffffff16815260200182815260200192505050604051809103906000f080151561067557600080fd5b90506001600260008373ffffffffffffffffffffffffffffffffffffffff1673ffffffffffffffffffffffffffffffffffffffff16815260200190815260200160002060006101000a81548160ff0219169083151502179055507fa746868d6453f8bae4369a738168c9b369a52f877ee08ab4c0dd0448b903d37f818273ffffffffffffffffffffffffffffffffffffffff1663b4fd72966040518163ffffffff167c0100000000000000000000000000000000000000000000000000000000028152600401602060405180830381600087803b151561075457600080fd5b5af1151561076157600080fd5b50505060405180519050600354604051808473ffffffffffffffffffffffffffffffffffffffff1673ffffffffffffffffffffffffffffffffffffffff1681526020018373ffffffffffffffffffffffffffffffffffffffff1673ffffffffffffffffffffffffffffffffffffffff168152602001828152602001935050505060405180910390a18060035492509250509091565b6000809054906101000a900473ffffffffffffffffffffffffffffffffffffffff1681565b6000809054906101000a900473ffffffffffffffffffffffffffffffffffffffff1673ffffffffffffffffffffffffffffffffffffffff163273ffffffffffffffffffffffffffffffffffffffff1614151561087657600080fd5b8060038190555050565b60026020528060005260406000206000915054906101000a900460ff1681565b60035481565b600260008573ffffffffffffffffffffffffffffffffffffffff1673ffffffffffffffffffffffffffffffffffffffff16815260200190815260200160002060009054906101000a900460ff1615156108fe57600080fd5b8373ffffffffffffffffffffffffffffffffffffffff16636a3e83b38484846040518463ffffffff167c0100000000000000000000000000000000000000000000000000000000028152600401808460ff1660ff168152602001836000191660001916815260200182600019166000191681526020019350505050602060405180830381600087803b151561099257600080fd5b5af1151561099f57600080fd5b5050506040518051905015156109b457600080fd5b600160009054906101000a900473ffffffffffffffffffffffffffffffffffffffff1673ffffffffffffffffffffffffffffffffffffffff166323b872dd856000809054906101000a900473ffffffffffffffffffffffffffffffffffffffff168773ffffffffffffffffffffffffffffffffffffffff1663556a61216040518163ffffffff167c0100000000000000000000000000000000000000000000000000000000028152600401602060405180830381600087803b1515610a7857600080fd5b5af11515610a8557600080fd5b505050604051805190506040518463ffffffff167c0100000000000000000000000000000000000000000000000000000000028152600401808473ffffffffffffffffffffffffffffffffffffffff1673ffffffffffffffffffffffffffffffffffffffff1681526020018373ffffffffffffffffffffffffffffffffffffffff1673ffffffffffffffffffffffffffffffffffffffff1681526020018281526020019350505050602060405180830381600087803b1515610b4657600080fd5b5af11515610b5357600080fd5b505050604051805190501515610b6857600080fd5b7fa7ce9489b811cd79bb8695d6ad4051484c96aea68805ffa76eea626f7121f80084604051808273ffffffffffffffffffffffffffffffffffffffff1673ffffffffffffffffffffffffffffffffffffffff16815260200191505060405180910390a150505050565b6000339050600260008273ffffffffffffffffffffffffffffffffffffffff1673ffffffffffffffffffffffffffffffffffffffff16815260200190815260200160002060009054906101000a900460ff161515610c2e57600080fd5b60006002811115610c3b57fe5b8173ffffffffffffffffffffffffffffffffffffffff1663200d2ed26040518163ffffffff167c0100000000000000000000000000000000000000000000000000000000028152600401602060405180830381600087803b1515610c9e57600080fd5b5af11515610cab57600080fd5b505050604051805190506002811115610cc057fe5b141515610ccc57600080fd5b7f0fb2f12acb9930f9d48a95b9614dd225d181403301c8c740dd760fe9698aeafd81604051808273ffffffffffffffffffffffffffffffffffffffff1673ffffffffffffffffffffffffffffffffffffffff16815260200191505060405180910390a150565b600160009054906101000a900473ffffffffffffffffffffffffffffffffffffffff1681565b60405161099880610d698339019056006060604052341561000f57600080fd5b60405160408061099883398101604052808051906020019091908051906020019091905050816000806101000a81548173ffffffffffffffffffffffffffffffffffffffff021916908373ffffffffffffffffffffffffffffffffffffffff1602179055508060018190555032600260006101000a81548173ffffffffffffffffffffffffffffffffffffffff021916908373ffffffffffffffffffffffffffffffffffffffff16021790555033600360006101000a81548173ffffffffffffffffffffffffffffffffffffffff021916908373ffffffffffffffffffffffffffffffffffffffff1602179055506000600360146101000a81548160ff0219169083600281111561011c57fe5b02179055505050610866806101326000396000f300606060405260043610610083576000357c0100000000000000000000000000000000000000000000000000000000900463ffffffff168063200d2ed214610088578063556a6121146100bf5780636a3e83b3146100e8578063b4fd729614610140578063ef47243d14610195578063f5ff5c76146101aa578063fc0c546a146101ff575b600080fd5b341561009357600080fd5b61009b610254565b604051808260028111156100ab57fe5b60ff16815260200191505060405180910390f35b34156100ca57600080fd5b6100d2610267565b6040518082815260200191505060405180910390f35b34156100f357600080fd5b610126600480803560ff16906020019091908035600019169060200190919080356000191690602001909190505061026d565b604051808215151515815260200191505060405180910390f35b341561014b57600080fd5b610153610571565b604051808273ffffffffffffffffffffffffffffffffffffffff1673ffffffffffffffffffffffffffffffffffffffff16815260200191505060405180910390f35b34156101a057600080fd5b6101a8610597565b005b34156101b557600080fd5b6101bd6107ef565b604051808273ffffffffffffffffffffffffffffffffffffffff1673ffffffffffffffffffffffffffffffffffffffff16815260200191505060405180910390f35b341561020a57600080fd5b610212610815565b604051808273ffffffffffffffffffffffffffffffffffffffff1673ffffffffffffffffffffffffffffffffffffffff16815260200191505060405180910390f35b600360149054906101000a900460ff1681565b60015481565b60006001600281111561027c57fe5b600360149054906101000a900460ff16600281111561029757fe5b1415156102a357600080fd5b600260009054906101000a900473ffffffffffffffffffffffffffffffffffffffff1673ffffffffffffffffffffffffffffffffffffffff16600130604051808273ffffffffffffffffffffffffffffffffffffffff1673ffffffffffffffffffffffffffffffffffffffff166c01000000000000000000000000028152601401915050604051809103902060405180807f19457468657265756d205369676e6564204d6573736167653a0a333200000000815250601c0182600019166000191681526020019150506040518091039020868686604051600081526020016040526040518085600019166000191681526020018460ff1660ff1681526020018360001916600019168152602001826000191660001916815260200194505050505060206040516020810390808403906000865af115156103e257600080fd5b50506020604051035173ffffffffffffffffffffffffffffffffffffffff1614151561040d57600080fd5b6000809054906101000a900473ffffffffffffffffffffffffffffffffffffffff1673ffffffffffffffffffffffffffffffffffffffff1663095ea7b3600360009054906101000a900473ffffffffffffffffffffffffffffffffffffffff166001546040518363ffffffff167c0100000000000000000000000000000000000000000000000000000000028152600401808373ffffffffffffffffffffffffffffffffffffffff1673ffffffffffffffffffffffffffffffffffffffff16815260200182815260200192505050602060405180830381600087803b15156104f457600080fd5b5af1151561050157600080fd5b50505060405180519050151561051657600080fd5b6002600360146101000a81548160ff0219169083600281111561053557fe5b02179055507fc3feda8a94e1e6d26005ad24f78b1e773162175a4cfe587ffa6513036f1b17f560405160405180910390a1600190509392505050565b600260009054906101000a900473ffffffffffffffffffffffffffffffffffffffff1681565b600060028111156105a457fe5b600360149054906101000a900460ff1660028111156105bf57fe5b1415156105cb57600080fd5b6000809054906101000a900473ffffffffffffffffffffffffffffffffffffffff1673ffffffffffffffffffffffffffffffffffffffff166323b872dd600260009054906101000a900473ffffffffffffffffffffffffffffffffffffffff16306001546040518463ffffffff167c0100000000000000000000000000000000000000000000000000000000028152600401808473ffffffffffffffffffffffffffffffffffffffff1673ffffffffffffffffffffffffffffffffffffffff1681526020018373ffffffffffffffffffffffffffffffffffffffff1673ffffffffffffffffffffffffffffffffffffffff1681526020018281526020019350505050602060405180830381600087803b15156106e657600080fd5b5af115156106f357600080fd5b50505060405180519050151561070857600080fd5b600360009054906101000a900473ffffffffffffffffffffffffffffffffffffffff1673ffffffffffffffffffffffffffffffffffffffff1663ef47243d6040518163ffffffff167c0100000000000000000000000000000000000000000000000000000000028152600401600060405180830381600087803b151561078d57600080fd5b5af1151561079a57600080fd5b5050506001600360146101000a81548160ff021916908360028111156107bc57fe5b02179055507f416215c90ce8ab9c8cf26413706dc28a3d64986c56f85cd12a17de69b234776160405160405180910390a1565b600360009054906101000a900473ffffffffffffffffffffffffffffffffffffffff1681565b6000809054906101000a900473ffffffffffffffffffffffffffffffffffffffff16815600a165627a7a723058204b230d666e0f4862528e39bc6594b34d032cfa11d8b9a9b11ccc04ad677a57830029a165627a7a723058208402e06c7ad18fe9e504c1eb20216aad60149fad63f4eae24f8993adbe014c1f0029a165627a7a72305820f01bef33e3f39ea77b3e435ad358eaa72170cada8f52849a46ffca7be2944abd0029",
  "source": "pragma solidity ^0.4.21;\n\nimport \"./Agent.sol\";\n\ncontract AgentFactory {\n    address public token;\n    address[] public createdAgents;\n\n    event AgentCreated(address agent);\n\n    function AgentFactory(address _token) public {\n        token = _token;\n    }\n\n    function createAgent(uint price) public returns (address) {\n        address agent = new Agent(token, price);\n        createdAgents.push(agent);\n        emit AgentCreated(agent);\n        return agent;\n    }\n}\n",
  "sourcePath": "/Users/erickearns/Documents/repositories/erickearns/singnet-forks/alpha-blockchain/contracts/AgentFactory.sol",
  "compiler": {
    "name": "solc",
    "version": "0.4.21+commit.dfe3193c.Emscripten.clang"
  },
  "schemaVersion": "2.0.0",
  "updatedAt": "2018-04-10T19:03:10.643Z"
}