{
  "contractName": "AgentFactory",
  "abi": [
    {
      "constant": true,
      "inputs": [
        {
          "name": "",
          "type": "uint256"
        }
      ],
      "name": "createdAgents",
      "outputs": [
        {
          "name": "",
          "type": "address"
        }
      ],
      "payable": false,
      "stateMutability": "view",
      "type": "function"
    },
    {
      "constant": true,
      "inputs": [],
      "name": "token",
      "outputs": [
        {
          "name": "",
          "type": "address"
        }
      ],
      "payable": false,
      "stateMutability": "view",
      "type": "function"
    },
    {
      "inputs": [
        {
          "name": "_token",
          "type": "address"
        }
      ],
      "payable": false,
      "stateMutability": "nonpayable",
      "type": "constructor"
    },
    {
      "anonymous": false,
      "inputs": [
        {
          "indexed": false,
          "name": "agent",
          "type": "address"
        }
      ],
      "name": "AgentCreated",
      "type": "event"
    },
    {
      "constant": false,
      "inputs": [
        {
          "name": "price",
          "type": "uint256"
        },
        {
          "name": "endpoint",
          "type": "string"
        }
      ],
      "name": "createAgent",
      "outputs": [
        {
          "name": "",
          "type": "address"
        }
      ],
      "payable": false,
      "stateMutability": "nonpayable",
      "type": "function"
    }
  ],
  "bytecode": "0x6060604052341561000f57600080fd5b6040516020806122ca83398101604052808051906020019091905050806000806101000a81548173ffffffffffffffffffffffffffffffffffffffff021916908373ffffffffffffffffffffffffffffffffffffffff1602179055505061224f8061007b6000396000f300606060405260043610610057576000357c0100000000000000000000000000000000000000000000000000000000900463ffffffff16806352c7e7861461005c578063ac62903414610102578063fc0c546a14610165575b600080fd5b341561006757600080fd5b6100c0600480803590602001909190803590602001908201803590602001908080601f016020809104026020016040519081016040528093929190818152602001838380828437820191505050505050919050506101ba565b604051808273ffffffffffffffffffffffffffffffffffffffff1673ffffffffffffffffffffffffffffffffffffffff16815260200191505060405180910390f35b341561010d57600080fd5b610123600480803590602001909190505061037a565b604051808273ffffffffffffffffffffffffffffffffffffffff1673ffffffffffffffffffffffffffffffffffffffff16815260200191505060405180910390f35b341561017057600080fd5b6101786103b9565b604051808273ffffffffffffffffffffffffffffffffffffffff1673ffffffffffffffffffffffffffffffffffffffff16815260200191505060405180910390f35b6000806000809054906101000a900473ffffffffffffffffffffffffffffffffffffffff1684846101e96103de565b808473ffffffffffffffffffffffffffffffffffffffff1673ffffffffffffffffffffffffffffffffffffffff16815260200183815260200180602001828103825283818151815260200191508051906020019080838360005b8381101561025e578082015181840152602081019050610243565b50505050905090810190601f16801561028b5780820380516001836020036101000a031916815260200191505b50945050505050604051809103906000f08015156102a857600080fd5b9050600180548060010182816102be91906103ee565b9160005260206000209001600083909190916101000a81548173ffffffffffffffffffffffffffffffffffffffff021916908373ffffffffffffffffffffffffffffffffffffffff160217905550507f877308701f17f466f5159690a00bffce67cd40c83b6e7894a4003de99e7b911c81604051808273ffffffffffffffffffffffffffffffffffffffff1673ffffffffffffffffffffffffffffffffffffffff16815260200191505060405180910390a18091505092915050565b60018181548110151561038957fe5b90600052602060002090016000915054906101000a900473ffffffffffffffffffffffffffffffffffffffff1681565b6000809054906101000a900473ffffffffffffffffffffffffffffffffffffffff1681565b604051611de48061044083390190565b81548183558181151161041557818360005260206000209182019101610414919061041a565b5b505050565b61043c91905b80821115610438576000816000905550600101610420565b5090565b905600606060405234156200001057600080fd5b60405162001de438038062001de48339810160405280805190602001909190805190602001909190805182019190505060008060006101000a81548160ff021916908360018111156200005f57fe5b021790555032600060016101000a81548173ffffffffffffffffffffffffffffffffffffffff021916908373ffffffffffffffffffffffffffffffffffffffff16021790555082600160006101000a81548173ffffffffffffffffffffffffffffffffffffffff021916908373ffffffffffffffffffffffffffffffffffffffff160217905550816003819055508060049080519060200190620001059291906200010f565b50505050620001be565b828054600181600116156101000203166002900490600052602060002090601f016020900481019282601f106200015257805160ff191683800117855562000183565b8280016001018555821562000183579182015b828111156200018257825182559160200191906001019062000165565b5b50905062000192919062000196565b5090565b620001bb91905b80821115620001b75760008160009055506001016200019d565b5090565b90565b611c1680620001ce6000396000f3006060604052600436106100d0576000357c0100000000000000000000000000000000000000000000000000000000900463ffffffff1680630a8ec587146100d55780632f2770db1461014c5780635b6b5710146101615780635e280f11146101bd5780638da5cb5b1461024b57806391b7f5ed146102a057806394715ac4146102c35780639d1b464a14610314578063a3907d711461033d578063bb9df86e14610352578063bc856b98146103b1578063c19d93fb1461040e578063ef47243d14610445578063fc0c546a1461045a575b600080fd5b34156100e057600080fd5b610132600480803573ffffffffffffffffffffffffffffffffffffffff1690602001909190803560ff1690602001909190803560001916906020019091908035600019169060200190919050506104af565b604051808215151515815260200191505060405180910390f35b341561015757600080fd5b61015f610772565b005b341561016c57600080fd5b610174610826565b604051808373ffffffffffffffffffffffffffffffffffffffff1673ffffffffffffffffffffffffffffffffffffffff1681526020018281526020019250505060405180910390f35b34156101c857600080fd5b6101d0610a5f565b6040518080602001828103825283818151815260200191508051906020019080838360005b838110156102105780820151818401526020810190506101f5565b50505050905090810190601f16801561023d5780820380516001836020036101000a031916815260200191505b509250505060405180910390f35b341561025657600080fd5b61025e610afd565b604051808273ffffffffffffffffffffffffffffffffffffffff1673ffffffffffffffffffffffffffffffffffffffff16815260200191505060405180910390f35b34156102ab57600080fd5b6102c16004808035906020019091905050610b23565b005b34156102ce57600080fd5b6102fa600480803573ffffffffffffffffffffffffffffffffffffffff16906020019091905050610b89565b604051808215151515815260200191505060405180910390f35b341561031f57600080fd5b610327610ba9565b6040518082815260200191505060405180910390f35b341561034857600080fd5b610350610baf565b005b341561035d57600080fd5b6103af600480803573ffffffffffffffffffffffffffffffffffffffff1690602001909190803560ff169060200190919080356000191690602001909190803560001916906020019091905050610c62565b005b34156103bc57600080fd5b61040c600480803590602001908201803590602001908080601f01602080910402602001604051908101604052809392919081815260200183838082843782019150505050505091905050610f8e565b005b341561041957600080fd5b610421611004565b6040518082600181111561043157fe5b60ff16815260200191505060405180910390f35b341561045057600080fd5b610458611016565b005b341561046557600080fd5b61046d611177565b604051808273ffffffffffffffffffffffffffffffffffffffff1673ffffffffffffffffffffffffffffffffffffffff16815260200191505060405180910390f35b6000600260008673ffffffffffffffffffffffffffffffffffffffff1673ffffffffffffffffffffffffffffffffffffffff16815260200190815260200160002060009054906101000a900460ff16801561059957506001600281111561051257fe5b8573ffffffffffffffffffffffffffffffffffffffff1663c19d93fb6040518163ffffffff167c0100000000000000000000000000000000000000000000000000000000028152600401602060405180830381600087803b151561057557600080fd5b5af1151561058257600080fd5b50505060405180519050600281111561059757fe5b145b801561075757508473ffffffffffffffffffffffffffffffffffffffff1663b4fd72966040518163ffffffff167c0100000000000000000000000000000000000000000000000000000000028152600401602060405180830381600087803b151561060357600080fd5b5af1151561061057600080fd5b5050506040518051905073ffffffffffffffffffffffffffffffffffffffff16600186604051808273ffffffffffffffffffffffffffffffffffffffff1673ffffffffffffffffffffffffffffffffffffffff166c01000000000000000000000000028152601401915050604051809103902060405180807f19457468657265756d205369676e6564204d6573736167653a0a333200000000815250601c0182600019166000191681526020019150506040518091039020868686604051600081526020016040526040518085600019166000191681526020018460ff1660ff1681526020018360001916600019168152602001826000191660001916815260200194505050505060206040516020810390808403906000865af1151561073657600080fd5b50506020604051035173ffffffffffffffffffffffffffffffffffffffff16145b15610765576001905061076a565b600090505b949350505050565b6000600181111561077f57fe5b6000809054906101000a900460ff16600181111561079957fe5b1415156107a557600080fd5b600060019054906101000a900473ffffffffffffffffffffffffffffffffffffffff1673ffffffffffffffffffffffffffffffffffffffff163273ffffffffffffffffffffffffffffffffffffffff1614151561080157600080fd5b60016000806101000a81548160ff0219169083600181111561081f57fe5b0217905550565b600080600080600181111561083757fe5b6000809054906101000a900460ff16600181111561085157fe5b14151561085d57600080fd5b600160009054906101000a900473ffffffffffffffffffffffffffffffffffffffff1660035461088b61119d565b808373ffffffffffffffffffffffffffffffffffffffff1673ffffffffffffffffffffffffffffffffffffffff16815260200182815260200192505050604051809103906000f08015156108de57600080fd5b90506001600260008373ffffffffffffffffffffffffffffffffffffffff1673ffffffffffffffffffffffffffffffffffffffff16815260200190815260200160002060006101000a81548160ff0219169083151502179055507fa746868d6453f8bae4369a738168c9b369a52f877ee08ab4c0dd0448b903d37f818273ffffffffffffffffffffffffffffffffffffffff1663b4fd72966040518163ffffffff167c0100000000000000000000000000000000000000000000000000000000028152600401602060405180830381600087803b15156109bd57600080fd5b5af115156109ca57600080fd5b50505060405180519050600354604051808473ffffffffffffffffffffffffffffffffffffffff1673ffffffffffffffffffffffffffffffffffffffff1681526020018373ffffffffffffffffffffffffffffffffffffffff1673ffffffffffffffffffffffffffffffffffffffff168152602001828152602001935050505060405180910390a18060035492509250509091565b60048054600181600116156101000203166002900480601f016020809104026020016040519081016040528092919081815260200182805460018160011615610100020316600290048015610af55780601f10610aca57610100808354040283529160200191610af5565b820191906000526020600020905b815481529060010190602001808311610ad857829003601f168201915b505050505081565b600060019054906101000a900473ffffffffffffffffffffffffffffffffffffffff1681565b600060019054906101000a900473ffffffffffffffffffffffffffffffffffffffff1673ffffffffffffffffffffffffffffffffffffffff163273ffffffffffffffffffffffffffffffffffffffff16141515610b7f57600080fd5b8060038190555050565b60026020528060005260406000206000915054906101000a900460ff1681565b60035481565b600180811115610bbb57fe5b6000809054906101000a900460ff166001811115610bd557fe5b141515610be157600080fd5b600060019054906101000a900473ffffffffffffffffffffffffffffffffffffffff1673ffffffffffffffffffffffffffffffffffffffff163273ffffffffffffffffffffffffffffffffffffffff16141515610c3d57600080fd5b60008060006101000a81548160ff02191690836001811115610c5b57fe5b0217905550565b600260008573ffffffffffffffffffffffffffffffffffffffff1673ffffffffffffffffffffffffffffffffffffffff16815260200190815260200160002060009054906101000a900460ff161515610cba57600080fd5b8373ffffffffffffffffffffffffffffffffffffffff16636a3e83b38484846040518463ffffffff167c0100000000000000000000000000000000000000000000000000000000028152600401808460ff1660ff168152602001836000191660001916815260200182600019166000191681526020019350505050602060405180830381600087803b1515610d4e57600080fd5b5af11515610d5b57600080fd5b505050604051805190501515610d7057600080fd5b600160009054906101000a900473ffffffffffffffffffffffffffffffffffffffff1673ffffffffffffffffffffffffffffffffffffffff166323b872dd85600060019054906101000a900473ffffffffffffffffffffffffffffffffffffffff168773ffffffffffffffffffffffffffffffffffffffff1663556a61216040518163ffffffff167c0100000000000000000000000000000000000000000000000000000000028152600401602060405180830381600087803b1515610e3557600080fd5b5af11515610e4257600080fd5b505050604051805190506040518463ffffffff167c0100000000000000000000000000000000000000000000000000000000028152600401808473ffffffffffffffffffffffffffffffffffffffff1673ffffffffffffffffffffffffffffffffffffffff1681526020018373ffffffffffffffffffffffffffffffffffffffff1673ffffffffffffffffffffffffffffffffffffffff1681526020018281526020019350505050602060405180830381600087803b1515610f0357600080fd5b5af11515610f1057600080fd5b505050604051805190501515610f2557600080fd5b7fa7ce9489b811cd79bb8695d6ad4051484c96aea68805ffa76eea626f7121f80084604051808273ffffffffffffffffffffffffffffffffffffffff1673ffffffffffffffffffffffffffffffffffffffff16815260200191505060405180910390a150505050565b600060019054906101000a900473ffffffffffffffffffffffffffffffffffffffff1673ffffffffffffffffffffffffffffffffffffffff163273ffffffffffffffffffffffffffffffffffffffff16141515610fea57600080fd5b80600490805190602001906110009291906111ad565b5050565b6000809054906101000a900460ff1681565b6000339050600260008273ffffffffffffffffffffffffffffffffffffffff1673ffffffffffffffffffffffffffffffffffffffff16815260200190815260200160002060009054906101000a900460ff16151561107357600080fd5b6000600281111561108057fe5b8173ffffffffffffffffffffffffffffffffffffffff1663c19d93fb6040518163ffffffff167c0100000000000000000000000000000000000000000000000000000000028152600401602060405180830381600087803b15156110e357600080fd5b5af115156110f057600080fd5b50505060405180519050600281111561110557fe5b14151561111157600080fd5b7f0fb2f12acb9930f9d48a95b9614dd225d181403301c8c740dd760fe9698aeafd81604051808273ffffffffffffffffffffffffffffffffffffffff1673ffffffffffffffffffffffffffffffffffffffff16815260200191505060405180910390a150565b600160009054906101000a900473ffffffffffffffffffffffffffffffffffffffff1681565b6040516109988061125383390190565b828054600181600116156101000203166002900490600052602060002090601f016020900481019282601f106111ee57805160ff191683800117855561121c565b8280016001018555821561121c579182015b8281111561121b578251825591602001919060010190611200565b5b509050611229919061122d565b5090565b61124f91905b8082111561124b576000816000905550600101611233565b5090565b9056006060604052341561000f57600080fd5b60405160408061099883398101604052808051906020019091908051906020019091905050816000806101000a81548173ffffffffffffffffffffffffffffffffffffffff021916908373ffffffffffffffffffffffffffffffffffffffff1602179055508060018190555032600260006101000a81548173ffffffffffffffffffffffffffffffffffffffff021916908373ffffffffffffffffffffffffffffffffffffffff16021790555033600360006101000a81548173ffffffffffffffffffffffffffffffffffffffff021916908373ffffffffffffffffffffffffffffffffffffffff1602179055506000600360146101000a81548160ff0219169083600281111561011c57fe5b02179055505050610866806101326000396000f300606060405260043610610083576000357c0100000000000000000000000000000000000000000000000000000000900463ffffffff168063556a6121146100885780636a3e83b3146100b1578063b4fd729614610109578063c19d93fb1461015e578063ef47243d14610195578063f5ff5c76146101aa578063fc0c546a146101ff575b600080fd5b341561009357600080fd5b61009b610254565b6040518082815260200191505060405180910390f35b34156100bc57600080fd5b6100ef600480803560ff16906020019091908035600019169060200190919080356000191690602001909190505061025a565b604051808215151515815260200191505060405180910390f35b341561011457600080fd5b61011c61055e565b604051808273ffffffffffffffffffffffffffffffffffffffff1673ffffffffffffffffffffffffffffffffffffffff16815260200191505060405180910390f35b341561016957600080fd5b610171610584565b6040518082600281111561018157fe5b60ff16815260200191505060405180910390f35b34156101a057600080fd5b6101a8610597565b005b34156101b557600080fd5b6101bd6107ef565b604051808273ffffffffffffffffffffffffffffffffffffffff1673ffffffffffffffffffffffffffffffffffffffff16815260200191505060405180910390f35b341561020a57600080fd5b610212610815565b604051808273ffffffffffffffffffffffffffffffffffffffff1673ffffffffffffffffffffffffffffffffffffffff16815260200191505060405180910390f35b60015481565b60006001600281111561026957fe5b600360149054906101000a900460ff16600281111561028457fe5b14151561029057600080fd5b600260009054906101000a900473ffffffffffffffffffffffffffffffffffffffff1673ffffffffffffffffffffffffffffffffffffffff16600130604051808273ffffffffffffffffffffffffffffffffffffffff1673ffffffffffffffffffffffffffffffffffffffff166c01000000000000000000000000028152601401915050604051809103902060405180807f19457468657265756d205369676e6564204d6573736167653a0a333200000000815250601c0182600019166000191681526020019150506040518091039020868686604051600081526020016040526040518085600019166000191681526020018460ff1660ff1681526020018360001916600019168152602001826000191660001916815260200194505050505060206040516020810390808403906000865af115156103cf57600080fd5b50506020604051035173ffffffffffffffffffffffffffffffffffffffff161415156103fa57600080fd5b6000809054906101000a900473ffffffffffffffffffffffffffffffffffffffff1673ffffffffffffffffffffffffffffffffffffffff1663095ea7b3600360009054906101000a900473ffffffffffffffffffffffffffffffffffffffff166001546040518363ffffffff167c0100000000000000000000000000000000000000000000000000000000028152600401808373ffffffffffffffffffffffffffffffffffffffff1673ffffffffffffffffffffffffffffffffffffffff16815260200182815260200192505050602060405180830381600087803b15156104e157600080fd5b5af115156104ee57600080fd5b50505060405180519050151561050357600080fd5b6002600360146101000a81548160ff0219169083600281111561052257fe5b02179055507fc3feda8a94e1e6d26005ad24f78b1e773162175a4cfe587ffa6513036f1b17f560405160405180910390a1600190509392505050565b600260009054906101000a900473ffffffffffffffffffffffffffffffffffffffff1681565b600360149054906101000a900460ff1681565b600060028111156105a457fe5b600360149054906101000a900460ff1660028111156105bf57fe5b1415156105cb57600080fd5b6000809054906101000a900473ffffffffffffffffffffffffffffffffffffffff1673ffffffffffffffffffffffffffffffffffffffff166323b872dd600260009054906101000a900473ffffffffffffffffffffffffffffffffffffffff16306001546040518463ffffffff167c0100000000000000000000000000000000000000000000000000000000028152600401808473ffffffffffffffffffffffffffffffffffffffff1673ffffffffffffffffffffffffffffffffffffffff1681526020018373ffffffffffffffffffffffffffffffffffffffff1673ffffffffffffffffffffffffffffffffffffffff1681526020018281526020019350505050602060405180830381600087803b15156106e657600080fd5b5af115156106f357600080fd5b50505060405180519050151561070857600080fd5b600360009054906101000a900473ffffffffffffffffffffffffffffffffffffffff1673ffffffffffffffffffffffffffffffffffffffff1663ef47243d6040518163ffffffff167c0100000000000000000000000000000000000000000000000000000000028152600401600060405180830381600087803b151561078d57600080fd5b5af1151561079a57600080fd5b5050506001600360146101000a81548160ff021916908360028111156107bc57fe5b02179055507f416215c90ce8ab9c8cf26413706dc28a3d64986c56f85cd12a17de69b234776160405160405180910390a1565b600360009054906101000a900473ffffffffffffffffffffffffffffffffffffffff1681565b6000809054906101000a900473ffffffffffffffffffffffffffffffffffffffff16815600a165627a7a72305820a87db97d76934d8638ae70f2c80254150d7817fd1b60d11a846afedf46ebc3f80029a165627a7a72305820699bba7e57d2d7434ad5cda5b683db7b40944d07521d8c66af3b21f0d0309aa10029a165627a7a723058202b3f7ccece4f8692b515cfe7ce4878d7c8408442c3b96e90b49b91728e0a31a30029",
  "source": "pragma solidity ^0.4.21;\n\nimport \"./Agent.sol\";\n\ncontract AgentFactory {\n    address public token;\n    address[] public createdAgents;\n\n    event AgentCreated(address agent);\n\n    function AgentFactory(address _token) public {\n        token = _token;\n    }\n\n    function createAgent(uint price, string endpoint) public returns (address) {\n        address agent = new Agent(token, price, endpoint);\n        createdAgents.push(agent);\n        emit AgentCreated(agent);\n        return agent;\n    }\n}\n",
  "sourcePath": "/Users/erickearns/Documents/repositories/erickearns/singnet-forks/alpha-blockchain/contracts/AgentFactory.sol",
  "compiler": {
    "name": "solc",
    "version": "0.4.21+commit.dfe3193c.Emscripten.clang"
  },
  "schemaVersion": "2.0.0",
  "updatedAt": "2018-04-10T23:18:52.717Z"
}