{
  "contractName": "Agent",
  "abi": [
    {
      "constant": true,
      "inputs": [],
      "name": "endpoint",
      "outputs": [
        {
          "name": "",
          "type": "string"
        }
      ],
      "payable": false,
      "stateMutability": "view",
      "type": "function"
    },
    {
      "constant": true,
      "inputs": [],
      "name": "owner",
      "outputs": [
        {
          "name": "",
          "type": "address"
        }
      ],
      "payable": false,
      "stateMutability": "view",
      "type": "function"
    },
    {
      "constant": true,
      "inputs": [
        {
          "name": "",
          "type": "address"
        }
      ],
      "name": "createdJobs",
      "outputs": [
        {
          "name": "",
          "type": "bool"
        }
      ],
      "payable": false,
      "stateMutability": "view",
      "type": "function"
    },
    {
      "constant": true,
      "inputs": [],
      "name": "currentPrice",
      "outputs": [
        {
          "name": "",
          "type": "uint256"
        }
      ],
      "payable": false,
      "stateMutability": "view",
      "type": "function"
    },
    {
      "constant": true,
      "inputs": [],
      "name": "state",
      "outputs": [
        {
          "name": "",
          "type": "uint8"
        }
      ],
      "payable": false,
      "stateMutability": "view",
      "type": "function"
    },
    {
      "constant": true,
      "inputs": [],
      "name": "token",
      "outputs": [
        {
          "name": "",
          "type": "address"
        }
      ],
      "payable": false,
      "stateMutability": "view",
      "type": "function"
    },
    {
      "inputs": [
        {
          "name": "_token",
          "type": "address"
        },
        {
          "name": "_currentPrice",
          "type": "uint256"
        },
        {
          "name": "_endpoint",
          "type": "string"
        }
      ],
      "payable": false,
      "stateMutability": "nonpayable",
      "type": "constructor"
    },
    {
      "anonymous": false,
      "inputs": [
        {
          "indexed": false,
          "name": "job",
          "type": "address"
        },
        {
          "indexed": false,
          "name": "consumer",
          "type": "address"
        },
        {
          "indexed": false,
          "name": "jobPrice",
          "type": "uint256"
        }
      ],
      "name": "JobCreated",
      "type": "event"
    },
    {
      "anonymous": false,
      "inputs": [
        {
          "indexed": false,
          "name": "job",
          "type": "address"
        }
      ],
      "name": "JobFunded",
      "type": "event"
    },
    {
      "anonymous": false,
      "inputs": [
        {
          "indexed": false,
          "name": "job",
          "type": "address"
        }
      ],
      "name": "JobCompleted",
      "type": "event"
    },
    {
      "anonymous": false,
      "inputs": [],
      "name": "AgentEnabled",
      "type": "event"
    },
    {
      "anonymous": false,
      "inputs": [],
      "name": "AgentDisabled",
      "type": "event"
    },
    {
      "constant": false,
      "inputs": [
        {
          "name": "_currentPrice",
          "type": "uint256"
        }
      ],
      "name": "setPrice",
      "outputs": [],
      "payable": false,
      "stateMutability": "nonpayable",
      "type": "function"
    },
    {
      "constant": false,
      "inputs": [
        {
          "name": "_endpoint",
          "type": "string"
        }
      ],
      "name": "setEndpoint",
      "outputs": [],
      "payable": false,
      "stateMutability": "nonpayable",
      "type": "function"
    },
    {
      "constant": false,
      "inputs": [],
      "name": "disable",
      "outputs": [],
      "payable": false,
      "stateMutability": "nonpayable",
      "type": "function"
    },
    {
      "constant": false,
      "inputs": [],
      "name": "enable",
      "outputs": [],
      "payable": false,
      "stateMutability": "nonpayable",
      "type": "function"
    },
    {
      "constant": false,
      "inputs": [],
      "name": "createJob",
      "outputs": [
        {
          "name": "",
          "type": "address"
        },
        {
          "name": "",
          "type": "uint256"
        }
      ],
      "payable": false,
      "stateMutability": "nonpayable",
      "type": "function"
    },
    {
      "constant": false,
      "inputs": [],
      "name": "fundJob",
      "outputs": [],
      "payable": false,
      "stateMutability": "nonpayable",
      "type": "function"
    },
    {
      "constant": true,
      "inputs": [
        {
          "name": "job",
          "type": "address"
        },
        {
          "name": "v",
          "type": "uint8"
        },
        {
          "name": "r",
          "type": "bytes32"
        },
        {
          "name": "s",
          "type": "bytes32"
        }
      ],
      "name": "validateJobInvocation",
      "outputs": [
        {
          "name": "",
          "type": "bool"
        }
      ],
      "payable": false,
      "stateMutability": "view",
      "type": "function"
    },
    {
      "constant": false,
      "inputs": [
        {
          "name": "job",
          "type": "address"
        },
        {
          "name": "v",
          "type": "uint8"
        },
        {
          "name": "r",
          "type": "bytes32"
        },
        {
          "name": "s",
          "type": "bytes32"
        }
      ],
      "name": "completeJob",
      "outputs": [],
      "payable": false,
      "stateMutability": "nonpayable",
      "type": "function"
    }
  ],
  "bytecode": "0x606060405234156200001057600080fd5b60405162001e3c38038062001e3c8339810160405280805190602001909190805190602001909190805182019190505060008060006101000a81548160ff021916908360018111156200005f57fe5b021790555032600060016101000a81548173ffffffffffffffffffffffffffffffffffffffff021916908373ffffffffffffffffffffffffffffffffffffffff16021790555082600160006101000a81548173ffffffffffffffffffffffffffffffffffffffff021916908373ffffffffffffffffffffffffffffffffffffffff160217905550816003819055508060049080519060200190620001059291906200010f565b50505050620001be565b828054600181600116156101000203166002900490600052602060002090601f016020900481019282601f106200015257805160ff191683800117855562000183565b8280016001018555821562000183579182015b828111156200018257825182559160200191906001019062000165565b5b50905062000192919062000196565b5090565b620001bb91905b80821115620001b75760008160009055506001016200019d565b5090565b90565b611c6e80620001ce6000396000f3006060604052600436106100d0576000357c0100000000000000000000000000000000000000000000000000000000900463ffffffff1680630a8ec587146100d55780632f2770db1461014c5780635b6b5710146101615780635e280f11146101bd5780638da5cb5b1461024b57806391b7f5ed146102a057806394715ac4146102c35780639d1b464a14610314578063a3907d711461033d578063bb9df86e14610352578063bc856b98146103b1578063c19d93fb1461040e578063ef47243d14610445578063fc0c546a1461045a575b600080fd5b34156100e057600080fd5b610132600480803573ffffffffffffffffffffffffffffffffffffffff1690602001909190803560ff1690602001909190803560001916906020019091908035600019169060200190919050506104af565b604051808215151515815260200191505060405180910390f35b341561015757600080fd5b61015f610772565b005b341561016c57600080fd5b610174610852565b604051808373ffffffffffffffffffffffffffffffffffffffff1673ffffffffffffffffffffffffffffffffffffffff1681526020018281526020019250505060405180910390f35b34156101c857600080fd5b6101d0610a8b565b6040518080602001828103825283818151815260200191508051906020019080838360005b838110156102105780820151818401526020810190506101f5565b50505050905090810190601f16801561023d5780820380516001836020036101000a031916815260200191505b509250505060405180910390f35b341561025657600080fd5b61025e610b29565b604051808273ffffffffffffffffffffffffffffffffffffffff1673ffffffffffffffffffffffffffffffffffffffff16815260200191505060405180910390f35b34156102ab57600080fd5b6102c16004808035906020019091905050610b4f565b005b34156102ce57600080fd5b6102fa600480803573ffffffffffffffffffffffffffffffffffffffff16906020019091905050610bb5565b604051808215151515815260200191505060405180910390f35b341561031f57600080fd5b610327610bd5565b6040518082815260200191505060405180910390f35b341561034857600080fd5b610350610bdb565b005b341561035d57600080fd5b6103af600480803573ffffffffffffffffffffffffffffffffffffffff1690602001909190803560ff169060200190919080356000191690602001909190803560001916906020019091905050610cba565b005b34156103bc57600080fd5b61040c600480803590602001908201803590602001908080601f01602080910402602001604051908101604052809392919081815260200183838082843782019150505050505091905050610fe6565b005b341561041957600080fd5b61042161105c565b6040518082600181111561043157fe5b60ff16815260200191505060405180910390f35b341561045057600080fd5b61045861106e565b005b341561046557600080fd5b61046d6111cf565b604051808273ffffffffffffffffffffffffffffffffffffffff1673ffffffffffffffffffffffffffffffffffffffff16815260200191505060405180910390f35b6000600260008673ffffffffffffffffffffffffffffffffffffffff1673ffffffffffffffffffffffffffffffffffffffff16815260200190815260200160002060009054906101000a900460ff16801561059957506001600281111561051257fe5b8573ffffffffffffffffffffffffffffffffffffffff1663c19d93fb6040518163ffffffff167c0100000000000000000000000000000000000000000000000000000000028152600401602060405180830381600087803b151561057557600080fd5b5af1151561058257600080fd5b50505060405180519050600281111561059757fe5b145b801561075757508473ffffffffffffffffffffffffffffffffffffffff1663b4fd72966040518163ffffffff167c0100000000000000000000000000000000000000000000000000000000028152600401602060405180830381600087803b151561060357600080fd5b5af1151561061057600080fd5b5050506040518051905073ffffffffffffffffffffffffffffffffffffffff16600186604051808273ffffffffffffffffffffffffffffffffffffffff1673ffffffffffffffffffffffffffffffffffffffff166c01000000000000000000000000028152601401915050604051809103902060405180807f19457468657265756d205369676e6564204d6573736167653a0a333200000000815250601c0182600019166000191681526020019150506040518091039020868686604051600081526020016040526040518085600019166000191681526020018460ff1660ff1681526020018360001916600019168152602001826000191660001916815260200194505050505060206040516020810390808403906000865af1151561073657600080fd5b50506020604051035173ffffffffffffffffffffffffffffffffffffffff16145b15610765576001905061076a565b600090505b949350505050565b6000600181111561077f57fe5b6000809054906101000a900460ff16600181111561079957fe5b1415156107a557600080fd5b600060019054906101000a900473ffffffffffffffffffffffffffffffffffffffff1673ffffffffffffffffffffffffffffffffffffffff163273ffffffffffffffffffffffffffffffffffffffff1614151561080157600080fd5b60016000806101000a81548160ff0219169083600181111561081f57fe5b02179055507f7b4fcba19cafcc69d60194475799866286e52949fa631683b952330d7e47422160405160405180910390a1565b600080600080600181111561086357fe5b6000809054906101000a900460ff16600181111561087d57fe5b14151561088957600080fd5b600160009054906101000a900473ffffffffffffffffffffffffffffffffffffffff166003546108b76111f5565b808373ffffffffffffffffffffffffffffffffffffffff1673ffffffffffffffffffffffffffffffffffffffff16815260200182815260200192505050604051809103906000f080151561090a57600080fd5b90506001600260008373ffffffffffffffffffffffffffffffffffffffff1673ffffffffffffffffffffffffffffffffffffffff16815260200190815260200160002060006101000a81548160ff0219169083151502179055507fa746868d6453f8bae4369a738168c9b369a52f877ee08ab4c0dd0448b903d37f818273ffffffffffffffffffffffffffffffffffffffff1663b4fd72966040518163ffffffff167c0100000000000000000000000000000000000000000000000000000000028152600401602060405180830381600087803b15156109e957600080fd5b5af115156109f657600080fd5b50505060405180519050600354604051808473ffffffffffffffffffffffffffffffffffffffff1673ffffffffffffffffffffffffffffffffffffffff1681526020018373ffffffffffffffffffffffffffffffffffffffff1673ffffffffffffffffffffffffffffffffffffffff168152602001828152602001935050505060405180910390a18060035492509250509091565b60048054600181600116156101000203166002900480601f016020809104026020016040519081016040528092919081815260200182805460018160011615610100020316600290048015610b215780601f10610af657610100808354040283529160200191610b21565b820191906000526020600020905b815481529060010190602001808311610b0457829003601f168201915b505050505081565b600060019054906101000a900473ffffffffffffffffffffffffffffffffffffffff1681565b600060019054906101000a900473ffffffffffffffffffffffffffffffffffffffff1673ffffffffffffffffffffffffffffffffffffffff163273ffffffffffffffffffffffffffffffffffffffff16141515610bab57600080fd5b8060038190555050565b60026020528060005260406000206000915054906101000a900460ff1681565b60035481565b600180811115610be757fe5b6000809054906101000a900460ff166001811115610c0157fe5b141515610c0d57600080fd5b600060019054906101000a900473ffffffffffffffffffffffffffffffffffffffff1673ffffffffffffffffffffffffffffffffffffffff163273ffffffffffffffffffffffffffffffffffffffff16141515610c6957600080fd5b60008060006101000a81548160ff02191690836001811115610c8757fe5b02179055507f289382865819904517488f2deaccc345529429358f020f941647e15c6d75cdd260405160405180910390a1565b600260008573ffffffffffffffffffffffffffffffffffffffff1673ffffffffffffffffffffffffffffffffffffffff16815260200190815260200160002060009054906101000a900460ff161515610d1257600080fd5b8373ffffffffffffffffffffffffffffffffffffffff16636a3e83b38484846040518463ffffffff167c0100000000000000000000000000000000000000000000000000000000028152600401808460ff1660ff168152602001836000191660001916815260200182600019166000191681526020019350505050602060405180830381600087803b1515610da657600080fd5b5af11515610db357600080fd5b505050604051805190501515610dc857600080fd5b600160009054906101000a900473ffffffffffffffffffffffffffffffffffffffff1673ffffffffffffffffffffffffffffffffffffffff166323b872dd85600060019054906101000a900473ffffffffffffffffffffffffffffffffffffffff168773ffffffffffffffffffffffffffffffffffffffff1663556a61216040518163ffffffff167c0100000000000000000000000000000000000000000000000000000000028152600401602060405180830381600087803b1515610e8d57600080fd5b5af11515610e9a57600080fd5b505050604051805190506040518463ffffffff167c0100000000000000000000000000000000000000000000000000000000028152600401808473ffffffffffffffffffffffffffffffffffffffff1673ffffffffffffffffffffffffffffffffffffffff1681526020018373ffffffffffffffffffffffffffffffffffffffff1673ffffffffffffffffffffffffffffffffffffffff1681526020018281526020019350505050602060405180830381600087803b1515610f5b57600080fd5b5af11515610f6857600080fd5b505050604051805190501515610f7d57600080fd5b7fa7ce9489b811cd79bb8695d6ad4051484c96aea68805ffa76eea626f7121f80084604051808273ffffffffffffffffffffffffffffffffffffffff1673ffffffffffffffffffffffffffffffffffffffff16815260200191505060405180910390a150505050565b600060019054906101000a900473ffffffffffffffffffffffffffffffffffffffff1673ffffffffffffffffffffffffffffffffffffffff163273ffffffffffffffffffffffffffffffffffffffff1614151561104257600080fd5b8060049080519060200190611058929190611205565b5050565b6000809054906101000a900460ff1681565b6000339050600260008273ffffffffffffffffffffffffffffffffffffffff1673ffffffffffffffffffffffffffffffffffffffff16815260200190815260200160002060009054906101000a900460ff1615156110cb57600080fd5b600060028111156110d857fe5b8173ffffffffffffffffffffffffffffffffffffffff1663c19d93fb6040518163ffffffff167c0100000000000000000000000000000000000000000000000000000000028152600401602060405180830381600087803b151561113b57600080fd5b5af1151561114857600080fd5b50505060405180519050600281111561115d57fe5b14151561116957600080fd5b7f0fb2f12acb9930f9d48a95b9614dd225d181403301c8c740dd760fe9698aeafd81604051808273ffffffffffffffffffffffffffffffffffffffff1673ffffffffffffffffffffffffffffffffffffffff16815260200191505060405180910390a150565b600160009054906101000a900473ffffffffffffffffffffffffffffffffffffffff1681565b604051610998806112ab83390190565b828054600181600116156101000203166002900490600052602060002090601f016020900481019282601f1061124657805160ff1916838001178555611274565b82800160010185558215611274579182015b82811115611273578251825591602001919060010190611258565b5b5090506112819190611285565b5090565b6112a791905b808211156112a357600081600090555060010161128b565b5090565b9056006060604052341561000f57600080fd5b60405160408061099883398101604052808051906020019091908051906020019091905050816000806101000a81548173ffffffffffffffffffffffffffffffffffffffff021916908373ffffffffffffffffffffffffffffffffffffffff1602179055508060018190555032600260006101000a81548173ffffffffffffffffffffffffffffffffffffffff021916908373ffffffffffffffffffffffffffffffffffffffff16021790555033600360006101000a81548173ffffffffffffffffffffffffffffffffffffffff021916908373ffffffffffffffffffffffffffffffffffffffff1602179055506000600360146101000a81548160ff0219169083600281111561011c57fe5b02179055505050610866806101326000396000f300606060405260043610610083576000357c0100000000000000000000000000000000000000000000000000000000900463ffffffff168063556a6121146100885780636a3e83b3146100b1578063b4fd729614610109578063c19d93fb1461015e578063ef47243d14610195578063f5ff5c76146101aa578063fc0c546a146101ff575b600080fd5b341561009357600080fd5b61009b610254565b6040518082815260200191505060405180910390f35b34156100bc57600080fd5b6100ef600480803560ff16906020019091908035600019169060200190919080356000191690602001909190505061025a565b604051808215151515815260200191505060405180910390f35b341561011457600080fd5b61011c61055e565b604051808273ffffffffffffffffffffffffffffffffffffffff1673ffffffffffffffffffffffffffffffffffffffff16815260200191505060405180910390f35b341561016957600080fd5b610171610584565b6040518082600281111561018157fe5b60ff16815260200191505060405180910390f35b34156101a057600080fd5b6101a8610597565b005b34156101b557600080fd5b6101bd6107ef565b604051808273ffffffffffffffffffffffffffffffffffffffff1673ffffffffffffffffffffffffffffffffffffffff16815260200191505060405180910390f35b341561020a57600080fd5b610212610815565b604051808273ffffffffffffffffffffffffffffffffffffffff1673ffffffffffffffffffffffffffffffffffffffff16815260200191505060405180910390f35b60015481565b60006001600281111561026957fe5b600360149054906101000a900460ff16600281111561028457fe5b14151561029057600080fd5b600260009054906101000a900473ffffffffffffffffffffffffffffffffffffffff1673ffffffffffffffffffffffffffffffffffffffff16600130604051808273ffffffffffffffffffffffffffffffffffffffff1673ffffffffffffffffffffffffffffffffffffffff166c01000000000000000000000000028152601401915050604051809103902060405180807f19457468657265756d205369676e6564204d6573736167653a0a333200000000815250601c0182600019166000191681526020019150506040518091039020868686604051600081526020016040526040518085600019166000191681526020018460ff1660ff1681526020018360001916600019168152602001826000191660001916815260200194505050505060206040516020810390808403906000865af115156103cf57600080fd5b50506020604051035173ffffffffffffffffffffffffffffffffffffffff161415156103fa57600080fd5b6000809054906101000a900473ffffffffffffffffffffffffffffffffffffffff1673ffffffffffffffffffffffffffffffffffffffff1663095ea7b3600360009054906101000a900473ffffffffffffffffffffffffffffffffffffffff166001546040518363ffffffff167c0100000000000000000000000000000000000000000000000000000000028152600401808373ffffffffffffffffffffffffffffffffffffffff1673ffffffffffffffffffffffffffffffffffffffff16815260200182815260200192505050602060405180830381600087803b15156104e157600080fd5b5af115156104ee57600080fd5b50505060405180519050151561050357600080fd5b6002600360146101000a81548160ff0219169083600281111561052257fe5b02179055507fc3feda8a94e1e6d26005ad24f78b1e773162175a4cfe587ffa6513036f1b17f560405160405180910390a1600190509392505050565b600260009054906101000a900473ffffffffffffffffffffffffffffffffffffffff1681565b600360149054906101000a900460ff1681565b600060028111156105a457fe5b600360149054906101000a900460ff1660028111156105bf57fe5b1415156105cb57600080fd5b6000809054906101000a900473ffffffffffffffffffffffffffffffffffffffff1673ffffffffffffffffffffffffffffffffffffffff166323b872dd600260009054906101000a900473ffffffffffffffffffffffffffffffffffffffff16306001546040518463ffffffff167c0100000000000000000000000000000000000000000000000000000000028152600401808473ffffffffffffffffffffffffffffffffffffffff1673ffffffffffffffffffffffffffffffffffffffff1681526020018373ffffffffffffffffffffffffffffffffffffffff1673ffffffffffffffffffffffffffffffffffffffff1681526020018281526020019350505050602060405180830381600087803b15156106e657600080fd5b5af115156106f357600080fd5b50505060405180519050151561070857600080fd5b600360009054906101000a900473ffffffffffffffffffffffffffffffffffffffff1673ffffffffffffffffffffffffffffffffffffffff1663ef47243d6040518163ffffffff167c0100000000000000000000000000000000000000000000000000000000028152600401600060405180830381600087803b151561078d57600080fd5b5af1151561079a57600080fd5b5050506001600360146101000a81548160ff021916908360028111156107bc57fe5b02179055507f416215c90ce8ab9c8cf26413706dc28a3d64986c56f85cd12a17de69b234776160405160405180910390a1565b600360009054906101000a900473ffffffffffffffffffffffffffffffffffffffff1681565b6000809054906101000a900473ffffffffffffffffffffffffffffffffffffffff16815600a165627a7a7230582064930afa18a7d1962cd86af4ff4afa1993bd20292787cb75b619ca0f364337660029a165627a7a7230582061c88f034e48953e61a1478b20065625087e806bc3d88e30fcabebb9a5b1e68b0029",
  "source": "pragma solidity ^0.4.21;\n\nimport \"zeppelin-solidity/contracts/token/ERC20.sol\";\nimport \"./Job.sol\";\n\ncontract Agent {\n    enum AgentState {\n        ENABLED,\n        DISABLED\n    }\n\n    AgentState public state;\n    address public owner;\n    ERC20 public token;\n    mapping(address => bool) public createdJobs;\n    uint public currentPrice;\n    string public endpoint;\n\n    event JobCreated(address job, address consumer, uint jobPrice);\n    event JobFunded(address job);\n    event JobCompleted(address job);\n    event AgentEnabled();\n    event AgentDisabled();\n\n    function Agent(address _token, uint _currentPrice, string _endpoint) public {\n        state = AgentState.ENABLED;\n        owner = tx.origin;\n        token = ERC20(_token);\n        currentPrice = _currentPrice;\n        endpoint = _endpoint;\n    }\n\n    function setPrice(uint _currentPrice) public {\n        require(tx.origin == owner);\n        currentPrice = _currentPrice;\n    }\n\n    function setEndpoint(string _endpoint) public {\n        require(tx.origin == owner);\n        endpoint = _endpoint;\n    }\n\n    function disable() public {\n        require(state == AgentState.ENABLED);\n        require(tx.origin == owner);\n        state = AgentState.DISABLED;\n        emit AgentDisabled();\n    }\n\n    function enable() public {\n        require(state == AgentState.DISABLED);\n        require(tx.origin == owner);\n        state = AgentState.ENABLED;\n        emit AgentEnabled();\n    }\n\n    function createJob() public returns (address, uint) {\n        require(state == AgentState.ENABLED);\n        address job = new Job(address(token), currentPrice);\n        createdJobs[job] = true;\n        emit JobCreated(job, Job(job).consumer(), currentPrice);\n        return (job, currentPrice);\n    }\n\n    function fundJob() public {\n        address job = msg.sender;\n        require(createdJobs[job]);\n        require(Job(job).state() == Job.JobState.PENDING);\n        emit JobFunded(job);\n    }\n\n    function validateJobInvocation(address job, uint8 v, bytes32 r, bytes32 s) public view returns (bool) {\n        if (createdJobs[job] && Job(job).state() == Job.JobState.FUNDED && ecrecover(keccak256(\"\\x19Ethereum Signed Message:\\n32\", keccak256(job)), v, r, s) == Job(job).consumer()) {\n            return true;\n        }\n        return false;\n    }\n\n    function completeJob(address job, uint8 v, bytes32 r, bytes32 s) public {\n        require(createdJobs[job]);\n        require(Job(job).completeJob(v, r, s));\n        require(token.transferFrom(job, owner, Job(job).jobPrice()));\n        emit JobCompleted(job);\n    }\n}\n",
  "sourcePath": "/Users/erickearns/Documents/repositories/erickearns/singnet-forks/alpha-blockchain/contracts/Agent.sol",
  "compiler": {
    "name": "solc",
    "version": "0.4.21+commit.dfe3193c.Emscripten.clang"
  },
  "schemaVersion": "2.0.0",
  "updatedAt": "2018-04-10T21:46:44.863Z"
}