{
  "contractName": "Job",
  "abi": [
    {
      "constant": true,
      "inputs": [],
      "name": "jobPrice",
      "outputs": [
        {
          "name": "",
          "type": "uint256"
        }
      ],
      "payable": false,
      "stateMutability": "view",
      "type": "function"
    },
    {
      "constant": true,
      "inputs": [],
      "name": "consumer",
      "outputs": [
        {
          "name": "",
          "type": "address"
        }
      ],
      "payable": false,
      "stateMutability": "view",
      "type": "function"
    },
    {
      "constant": true,
      "inputs": [],
      "name": "state",
      "outputs": [
        {
          "name": "",
          "type": "uint8"
        }
      ],
      "payable": false,
      "stateMutability": "view",
      "type": "function"
    },
    {
      "constant": true,
      "inputs": [],
      "name": "agent",
      "outputs": [
        {
          "name": "",
          "type": "address"
        }
      ],
      "payable": false,
      "stateMutability": "view",
      "type": "function"
    },
    {
      "constant": true,
      "inputs": [],
      "name": "token",
      "outputs": [
        {
          "name": "",
          "type": "address"
        }
      ],
      "payable": false,
      "stateMutability": "view",
      "type": "function"
    },
    {
      "inputs": [
        {
          "name": "_token",
          "type": "address"
        },
        {
          "name": "_jobPrice",
          "type": "uint256"
        }
      ],
      "payable": false,
      "stateMutability": "nonpayable",
      "type": "constructor"
    },
    {
      "anonymous": false,
      "inputs": [],
      "name": "JobFunded",
      "type": "event"
    },
    {
      "anonymous": false,
      "inputs": [],
      "name": "JobCompleted",
      "type": "event"
    },
    {
      "constant": false,
      "inputs": [],
      "name": "fundJob",
      "outputs": [],
      "payable": false,
      "stateMutability": "nonpayable",
      "type": "function"
    },
    {
      "constant": false,
      "inputs": [
        {
          "name": "v",
          "type": "uint8"
        },
        {
          "name": "r",
          "type": "bytes32"
        },
        {
          "name": "s",
          "type": "bytes32"
        }
      ],
      "name": "completeJob",
      "outputs": [
        {
          "name": "",
          "type": "bool"
        }
      ],
      "payable": false,
      "stateMutability": "nonpayable",
      "type": "function"
    }
  ],
  "bytecode": "0x608060405234801561001057600080fd5b50604051604080610baf83398101604052805160209091015160008054600160a060020a038416600160a060020a031991821617825560018390556002805482163217905560038054909116331780825560a060020a60ff021916740100000000000000000000000000000000000000008302179055505050610b17806100986000396000f3006080604052600436106100825763ffffffff7c0100000000000000000000000000000000000000000000000000000000600035041663556a612181146100875780636a3e83b3146100ae578063b4fd7296146100e3578063c19d93fb14610114578063ef47243d1461014d578063f5ff5c7614610164578063fc0c546a14610179575b600080fd5b34801561009357600080fd5b5061009c61018e565b60408051918252519081900360200190f35b3480156100ba57600080fd5b506100cf60ff60043516602435604435610194565b604080519115158252519081900360200190f35b3480156100ef57600080fd5b506100f86108af565b60408051600160a060020a039092168252519081900360200190f35b34801561012057600080fd5b506101296108be565b6040518082600281111561013957fe5b60ff16815260200191505060405180910390f35b34801561015957600080fd5b506101626108df565b005b34801561017057600080fd5b506100f8610aad565b34801561018557600080fd5b506100f8610abc565b60015481565b600061019e610acb565b6060600080808080600160035474010000000000000000000000000000000000000000900460ff1660028111156101d157fe5b146101db57600080fd5b60408051610200810182527f303030313032303330343035303630373038303930613062306330643065306681527f313031313132313331343135313631373138313931613162316331643165316660208201527f3230323132323233323432353236323732383239326132623263326432653266818301527f33303331333233333334333533363337333833393361336233633364336533666060808301919091527f343034313432343334343435343634373438343934613462346334643465346660808301527f353035313532353335343535353635373538353935613562356335643565356660a08301527f363036313632363336343635363636373638363936613662366336643665366660c08301527f373037313732373337343735373637373738373937613762376337643765376660e08301527f38303831383238333834383538363837383838393861386238633864386538666101008301527f39303931393239333934393539363937393839393961396239633964396539666101208301527f61306131613261336134613561366137613861396161616261636164616561666101408301527f62306231623262336234623562366237623862396261626262636264626562666101608301527f63306331633263336334633563366337633863396361636263636364636563666101808301527f64306431643264336434643564366437643864396461646264636464646564666101a08301527f65306531653265336534653565366537653865396561656265636564656565666101c08301527f66306631663266336634663566366637663866396661666266636664666566666101e08301528251602a808252918101909352909850816020016020820280388339019050509550309450600093505b601484101561056c5784600c85016020811061049057fe5b60f860020a91901a810204925050601060ff80841682900492506002600f85160291889184169081106104bf57fe5b60200201518160ff166020811015156104d457fe5b1a60f860020a0286856002026002018151811015156104ef57fe5b906020010190600160f860020a031916908160001a9053508660ff83166010811061051657fe5b60200201518160010160ff1660208110151561052e57fe5b1a60f860020a02868560020260030181518110151561054957fe5b906020010190600160f860020a031916908160001a905350600190930192610478565b85517f3000000000000000000000000000000000000000000000000000000000000000908790600090811061059d57fe5b906020010190600160f860020a031916908160001a90535085517f780000000000000000000000000000000000000000000000000000000000000090879060019081106105e657fe5b906020010190600160f860020a031916908160001a9053506002546040517f19457468657265756d205369676e6564204d6573736167653a0a34320000000060208083019182528951600160a060020a03909416936001938b9392603c90910191908401908083835b6020831061066e5780518252601f19909201916020918201910161064f565b6001836020036101000a0380198251168184511680821785525050505050509050019150506040516020818303038152906040526040518082805190602001908083835b602083106106d15780518252601f1990920191602091820191016106b2565b6001836020036101000a03801982511681845116808217855250505050505090500191505060405180910390208d8d8d604051600081526020016040526040518085600019166000191681526020018460ff1660ff1681526020018360001916600019168152602001826000191660001916815260200194505050505060206040516020810390808403906000865af1158015610772573d6000803e3d6000fd5b50505060206040510351600160a060020a031614151561079157600080fd5b60008054600354600154604080517f095ea7b3000000000000000000000000000000000000000000000000000000008152600160a060020a039384166004820152602481019290925251919092169263095ea7b392604480820193602093909283900390910190829087803b15801561080957600080fd5b505af115801561081d573d6000803e3d6000fd5b505050506040513d602081101561083357600080fd5b5051151561084057600080fd5b6003805474ff00000000000000000000000000000000000000001916740200000000000000000000000000000000000000001790556040517fc3feda8a94e1e6d26005ad24f78b1e773162175a4cfe587ffa6513036f1b17f590600090a15060019a9950505050505050505050565b600254600160a060020a031681565b60035474010000000000000000000000000000000000000000900460ff1681565b600060035474010000000000000000000000000000000000000000900460ff16600281111561090a57fe5b1461091457600080fd5b60008054600254600154604080517f23b872dd000000000000000000000000000000000000000000000000000000008152600160a060020a03938416600482015230602482015260448101929092525191909216926323b872dd92606480820193602093909283900390910190829087803b15801561099257600080fd5b505af11580156109a6573d6000803e3d6000fd5b505050506040513d60208110156109bc57600080fd5b505115156109c957600080fd5b600360009054906101000a9004600160a060020a0316600160a060020a031663ef47243d6040518163ffffffff167c0100000000000000000000000000000000000000000000000000000000028152600401600060405180830381600087803b158015610a3557600080fd5b505af1158015610a49573d6000803e3d6000fd5b50506003805474ff000000000000000000000000000000000000000019167401000000000000000000000000000000000000000017905550506040517f416215c90ce8ab9c8cf26413706dc28a3d64986c56f85cd12a17de69b234776190600090a1565b600354600160a060020a031681565b600054600160a060020a031681565b6102006040519081016040528060109060208202803883395091929150505600a165627a7a72305820da009824ea43e40fab5010d1dcddaf58fc039ee007f1231e4028f05c7487720b0029",
  "source": "pragma solidity ^0.4.24;\n\nimport \"openzeppelin-solidity/contracts/token/ERC20/ERC20.sol\";\nimport \"./Agent.sol\";\n\ncontract Job {\n    enum JobState {\n        PENDING,\n        FUNDED,\n        COMPLETED\n    }\n\n    ERC20 public token;\n    uint public jobPrice;\n    address public consumer;\n    Agent public agent;\n    JobState public state;\n    \n    event JobFunded();\n    event JobCompleted();\n\n    constructor(address _token, uint _jobPrice) public {\n        token = ERC20(_token);\n        jobPrice = _jobPrice;\n        consumer = tx.origin;\n        agent = Agent(msg.sender);\n        state = JobState.PENDING;\n    }\n\n    function fundJob() public {\n        require(state == JobState.PENDING);\n        require(token.transferFrom(consumer, this, jobPrice));\n        agent.fundJob();\n        state = JobState.FUNDED;\n        emit JobFunded();\n    }\n\n\n    /*\n        With:\n        prefix = \"\\x19Ethereum Signed Message:\\n\"\n        payload = \"%x\".format(job_address)    || This is the 0x-prefixed hex-encoded\n                                              || string representation of the 20-byte\n                                              || job address\n\n        The signature payload is:\n        keccak256(prefix + str(len(payload)) + payload) || len(payload) is always 42\n                                                        || because addresses are 20\n                                                        || bytes (40 hex characters)\n                                                        || plus the 0x prefix\n    */\n    function completeJob(uint8 v, bytes32 r, bytes32 s) public returns (bool) {\n        require(state == JobState.FUNDED);\n\n        // Convert 20-byte job address into 42-byte 0x-prefixed hex-encoded string.\n        // For each byte, the high nibble (uint8(byte) / 16) determines the target\n        // row in the conversion table (which contains the 16 2-char hex strings in\n        // the corresponding hexdecade), and the low nibble * 2 (uint8(byte) % 16 * 2)\n        // determines the offset of byte's 2-character hex representation\n        // within the row (* 2 because each byte is 2 characters long)\n        bytes32[16] memory conv = [\n            bytes32(\"000102030405060708090a0b0c0d0e0f\"),\n            bytes32(\"101112131415161718191a1b1c1d1e1f\"),\n            bytes32(\"202122232425262728292a2b2c2d2e2f\"),\n            bytes32(\"303132333435363738393a3b3c3d3e3f\"),\n            bytes32(\"404142434445464748494a4b4c4d4e4f\"),\n            bytes32(\"505152535455565758595a5b5c5d5e5f\"),\n            bytes32(\"606162636465666768696a6b6c6d6e6f\"),\n            bytes32(\"707172737475767778797a7b7c7d7e7f\"),\n            bytes32(\"808182838485868788898a8b8c8d8e8f\"),\n            bytes32(\"909192939495969798999a9b9c9d9e9f\"),\n            bytes32(\"a0a1a2a3a4a5a6a7a8a9aaabacadaeaf\"),\n            bytes32(\"b0b1b2b3b4b5b6b7b8b9babbbcbdbebf\"),\n            bytes32(\"c0c1c2c3c4c5c6c7c8c9cacbcccdcecf\"),\n            bytes32(\"d0d1d2d3d4d5d6d7d8d9dadbdcdddedf\"),\n            bytes32(\"e0e1e2e3e4e5e6e7e8e9eaebecedeeef\"),\n            bytes32(\"f0f1f2f3f4f5f6f7f8f9fafbfcfdfeff\")\n        ];\n\n        bytes memory jobAddressHexAsciiBytes = new bytes(42);\n\n        // Address isn't convertible straight to bytes32, but is once converted to uint256\n        bytes32 jobAddressBytes = bytes32(uint256(this));\n\n        for (uint i = 0; i < 20; i++) {\n\n            // jobAddressBytes contains 0x00 in bytes 0-12 since address has 20-byte length\n            uint8 curr = uint8(jobAddressBytes[i + 12]);\n            uint8 first = curr / 16;\n            uint8 second = curr % 16 * 2;\n            jobAddressHexAsciiBytes[2 + (i * 2)] = conv[first][second];\n            jobAddressHexAsciiBytes[3 + (i * 2)] = conv[first][second + 1];\n        }\n\n        // Set prefix to \"0x\"\n        jobAddressHexAsciiBytes[0] = byte(48);\n        jobAddressHexAsciiBytes[1] = byte(120);\n\n        require(ecrecover(keccak256(abi.encodePacked(\"\\x19Ethereum Signed Message:\\n42\", jobAddressHexAsciiBytes)), v, r, s) == consumer);\n        require(token.approve(address(agent), jobPrice));\n        state = JobState.COMPLETED;\n        emit JobCompleted();\n        return true;\n    }\n}\n",
  "sourcePath": "/Users/erickearns/Documents/repositories/erickearns/singnet-forks/alpha-blockchain/contracts/Job.sol",
  "compiler": {
    "name": "solc",
    "version": "0.4.24+commit.e67f0147.Emscripten.clang"
  },
  "schemaVersion": "2.0.1",
  "updatedAt": "2018-07-19T18:42:03.542Z"
}