{
  "contractName": "Registry",
  "abi": [
    {
      "constant": true,
      "inputs": [
        {
          "name": "",
          "type": "bytes32"
        }
      ],
      "name": "agentIndex",
      "outputs": [
        {
          "name": "",
          "type": "uint256"
        }
      ],
      "payable": false,
      "stateMutability": "view",
      "type": "function"
    },
    {
      "constant": true,
      "inputs": [
        {
          "name": "",
          "type": "uint256"
        }
      ],
      "name": "agentRecords",
      "outputs": [
        {
          "name": "agent",
          "type": "address"
        },
        {
          "name": "name",
          "type": "bytes32"
        },
        {
          "name": "state",
          "type": "uint8"
        }
      ],
      "payable": false,
      "stateMutability": "view",
      "type": "function"
    },
    {
      "inputs": [],
      "payable": false,
      "stateMutability": "nonpayable",
      "type": "constructor"
    },
    {
      "anonymous": false,
      "inputs": [
        {
          "indexed": false,
          "name": "name",
          "type": "bytes32"
        },
        {
          "indexed": false,
          "name": "agent",
          "type": "address"
        }
      ],
      "name": "RecordCreated",
      "type": "event"
    },
    {
      "anonymous": false,
      "inputs": [
        {
          "indexed": false,
          "name": "name",
          "type": "bytes32"
        },
        {
          "indexed": false,
          "name": "agent",
          "type": "address"
        }
      ],
      "name": "RecordUpdated",
      "type": "event"
    },
    {
      "anonymous": false,
      "inputs": [
        {
          "indexed": false,
          "name": "name",
          "type": "bytes32"
        }
      ],
      "name": "RecordDeprecated",
      "type": "event"
    },
    {
      "constant": false,
      "inputs": [
        {
          "name": "name",
          "type": "bytes32"
        },
        {
          "name": "agent",
          "type": "address"
        }
      ],
      "name": "createRecord",
      "outputs": [],
      "payable": false,
      "stateMutability": "nonpayable",
      "type": "function"
    },
    {
      "constant": false,
      "inputs": [
        {
          "name": "name",
          "type": "bytes32"
        },
        {
          "name": "agent",
          "type": "address"
        }
      ],
      "name": "updateRecord",
      "outputs": [],
      "payable": false,
      "stateMutability": "nonpayable",
      "type": "function"
    },
    {
      "constant": false,
      "inputs": [
        {
          "name": "name",
          "type": "bytes32"
        }
      ],
      "name": "deprecateRecord",
      "outputs": [],
      "payable": false,
      "stateMutability": "nonpayable",
      "type": "function"
    },
    {
      "constant": true,
      "inputs": [],
      "name": "listRecords",
      "outputs": [
        {
          "name": "",
          "type": "bytes32[]"
        },
        {
          "name": "",
          "type": "address[]"
        }
      ],
      "payable": false,
      "stateMutability": "view",
      "type": "function"
    }
  ],
  "bytecode": "0x6060604052341561000f57600080fd5b600080548060010182816100239190610102565b91600052602060002090600302016000606060405190810160405280600073ffffffffffffffffffffffffffffffffffffffff1681526020016000801916815260200160018081111561007257fe5b815250909190915060008201518160000160006101000a81548173ffffffffffffffffffffffffffffffffffffffff021916908373ffffffffffffffffffffffffffffffffffffffff1602179055506020820151816001019060001916905560408201518160020160006101000a81548160ff021916908360018111156100f557fe5b0217905550505050610196565b81548183558181151161012f5760030281600302836000526020600020918201910161012e9190610134565b5b505050565b61019391905b8082111561018f57600080820160006101000a81549073ffffffffffffffffffffffffffffffffffffffff021916905560018201600090556002820160006101000a81549060ff02191690555060030161013a565b5090565b90565b610e13806101a56000396000f300606060405260043610610078576000357c0100000000000000000000000000000000000000000000000000000000900463ffffffff168063182e8de51461007d5780631c7b94c0146100b8578063357cce2b146100fe578063683b499e146101255780636fdcc8a91461016b578063dc97c0561461021d575b600080fd5b341561008857600080fd5b6100a26004808035600019169060200190919050506102a4565b6040518082815260200191505060405180910390f35b34156100c357600080fd5b6100fc60048080356000191690602001909190803573ffffffffffffffffffffffffffffffffffffffff169060200190919050506102bc565b005b341561010957600080fd5b6101236004808035600019169060200190919050506105c0565b005b341561013057600080fd5b61016960048080356000191690602001909190803573ffffffffffffffffffffffffffffffffffffffff169060200190919050506107ba565b005b341561017657600080fd5b61017e610a1d565b604051808060200180602001838103835285818151815260200191508051906020019060200280838360005b838110156101c55780820151818401526020810190506101aa565b50505050905001838103825284818151815260200191508051906020019060200280838360005b838110156102075780820151818401526020810190506101ec565b5050505090500194505050505060405180910390f35b341561022857600080fd5b61023e6004808035906020019091905050610cc5565b604051808473ffffffffffffffffffffffffffffffffffffffff1673ffffffffffffffffffffffffffffffffffffffff168152602001836000191660001916815260200182600181111561028e57fe5b60ff168152602001935050505060405180910390f35b60016020528060005260406000206000915090505481565b600080600160008560001916600019168152602001908152602001600020549150600082141515156102ed57600080fd5b329050600060018111156102fd57fe5b60008381548110151561030c57fe5b906000526020600020906003020160020160009054906101000a900460ff16600181111561033657fe5b14151561034257600080fd5b8073ffffffffffffffffffffffffffffffffffffffff1660008381548110151561036857fe5b906000526020600020906003020160000160009054906101000a900473ffffffffffffffffffffffffffffffffffffffff1673ffffffffffffffffffffffffffffffffffffffff16638da5cb5b6040518163ffffffff167c0100000000000000000000000000000000000000000000000000000000028152600401602060405180830381600087803b15156103fc57600080fd5b5af1151561040957600080fd5b5050506040518051905073ffffffffffffffffffffffffffffffffffffffff1614151561043557600080fd5b8073ffffffffffffffffffffffffffffffffffffffff168373ffffffffffffffffffffffffffffffffffffffff16638da5cb5b6040518163ffffffff167c0100000000000000000000000000000000000000000000000000000000028152600401602060405180830381600087803b15156104af57600080fd5b5af115156104bc57600080fd5b5050506040518051905073ffffffffffffffffffffffffffffffffffffffff161415156104e857600080fd5b826000838154811015156104f857fe5b906000526020600020906003020160000160006101000a81548173ffffffffffffffffffffffffffffffffffffffff021916908373ffffffffffffffffffffffffffffffffffffffff1602179055507f0596aa396eab4e69aca55f612009f548a14767e50000a5446fbebc9dcc43820c84846040518083600019166000191681526020018273ffffffffffffffffffffffffffffffffffffffff1673ffffffffffffffffffffffffffffffffffffffff1681526020019250505060405180910390a150505050565b6000600160008360001916600019168152602001908152602001600020549050600081141515156105f057600080fd5b600060018111156105fd57fe5b60008281548110151561060c57fe5b906000526020600020906003020160020160009054906101000a900460ff16600181111561063657fe5b14151561064257600080fd5b3273ffffffffffffffffffffffffffffffffffffffff1660008281548110151561066857fe5b906000526020600020906003020160000160009054906101000a900473ffffffffffffffffffffffffffffffffffffffff1673ffffffffffffffffffffffffffffffffffffffff16638da5cb5b6040518163ffffffff167c0100000000000000000000000000000000000000000000000000000000028152600401602060405180830381600087803b15156106fc57600080fd5b5af1151561070957600080fd5b5050506040518051905073ffffffffffffffffffffffffffffffffffffffff1614151561073557600080fd5b600160008281548110151561074657fe5b906000526020600020906003020160020160006101000a81548160ff0219169083600181111561077257fe5b02179055507f8db2605b8396377de2aba41187338453d74f21e2b1d3cd2bcbad5a9de7e600198260405180826000191660001916815260200191505060405180910390a15050565b6000600160008460001916600019168152602001908152602001600020541415156107e457600080fd5b3273ffffffffffffffffffffffffffffffffffffffff168173ffffffffffffffffffffffffffffffffffffffff16638da5cb5b6040518163ffffffff167c0100000000000000000000000000000000000000000000000000000000028152600401602060405180830381600087803b151561085e57600080fd5b5af1151561086b57600080fd5b5050506040518051905073ffffffffffffffffffffffffffffffffffffffff1614151561089757600080fd5b6001600080548060010182816108ad9190610d2b565b916000526020600020906003020160006060604051908101604052808673ffffffffffffffffffffffffffffffffffffffff16815260200187600019168152602001600060018111156108fc57fe5b815250909190915060008201518160000160006101000a81548173ffffffffffffffffffffffffffffffffffffffff021916908373ffffffffffffffffffffffffffffffffffffffff1602179055506020820151816001019060001916905560408201518160020160006101000a81548160ff0219169083600181111561097f57fe5b0217905550505003600160008460001916600019168152602001908152602001600020819055507ffc39d54de380118148fa225c58baeff6e4f590a1b85797533822b367bfe982c082826040518083600019166000191681526020018273ffffffffffffffffffffffffffffffffffffffff1673ffffffffffffffffffffffffffffffffffffffff1681526020019250505060405180910390a15050565b610a25610d5d565b610a2d610d71565b610a35610d5d565b610a3d610d71565b600080600160008054905003604051805910610a565750595b90808252806020026020018201604052509350600160008054905003604051805910610a7f5750595b9080825280602002602001820160405250925060009150600190505b600080549050811015610cb75760006001811115610ab557fe5b600082815481101515610ac457fe5b906000526020600020906003020160020160009054906101000a900460ff166001811115610aee57fe5b148015610bca575060006001811115610b0357fe5b600082815481101515610b1257fe5b906000526020600020906003020160000160009054906101000a900473ffffffffffffffffffffffffffffffffffffffff1673ffffffffffffffffffffffffffffffffffffffff1663c19d93fb6040518163ffffffff167c0100000000000000000000000000000000000000000000000000000000028152600401602060405180830381600087803b1515610ba657600080fd5b5af11515610bb357600080fd5b505050604051805190506001811115610bc857fe5b145b15610caa57600081815481101515610bde57fe5b9060005260206000209060030201600101548483815181101515610bfe57fe5b906020019060200201906000191690816000191681525050600081815481101515610c2557fe5b906000526020600020906003020160000160009054906101000a900473ffffffffffffffffffffffffffffffffffffffff168383815181101515610c6557fe5b9060200190602002019073ffffffffffffffffffffffffffffffffffffffff16908173ffffffffffffffffffffffffffffffffffffffff168152505081806001019250505b8080600101915050610a9b565b838395509550505050509091565b600081815481101515610cd457fe5b90600052602060002090600302016000915090508060000160009054906101000a900473ffffffffffffffffffffffffffffffffffffffff16908060010154908060020160009054906101000a900460ff16905083565b815481835581811511610d5857600302816003028360005260206000209182019101610d579190610d85565b5b505050565b602060405190810160405280600081525090565b602060405190810160405280600081525090565b610de491905b80821115610de057600080820160006101000a81549073ffffffffffffffffffffffffffffffffffffffff021916905560018201600090556002820160006101000a81549060ff021916905550600301610d8b565b5090565b905600a165627a7a72305820a190457d2dea2cfb55f2c1eef3c47bf70222f5b1f54acc48c981c36ca50cc6380029",
  "source": "pragma solidity ^0.4.21;\n\nimport \"./Agent.sol\";\n\ncontract Registry {\n    enum RecordState {\n        ALIVE,\n        DEAD\n    }\n\n    struct AgentRecord {\n        address agent;\n        bytes32 name;\n        RecordState state;\n    }\n\n    AgentRecord[] public agentRecords;\n    mapping(bytes32 => uint) public agentIndex;\n\n    event RecordCreated(bytes32 name, address agent);\n    event RecordUpdated(bytes32 name, address agent);\n    event RecordDeprecated(bytes32 name);\n\n    function Registry() public {\n        // The 0th index of this list cannot be used because of the fact that agentIndex[name] == 0 when\n        // name is *not* valid\n        agentRecords.push(AgentRecord(address(0), \"\", RecordState.DEAD));\n    }\n\n    function createRecord(bytes32 name, address agent) public {\n        require(agentIndex[name] == 0);\n        require(Agent(agent).owner() == tx.origin);\n        agentIndex[name] = agentRecords.push(AgentRecord(agent, name, RecordState.ALIVE)) - 1;\n        emit RecordCreated(name, agent);\n    }\n\n    function updateRecord(bytes32 name, address agent) public {\n        uint index = agentIndex[name];\n        require(index != 0);\n        address owner = tx.origin;\n        require(agentRecords[index].state == RecordState.ALIVE);\n        require(Agent(agentRecords[index].agent).owner() == owner);\n        require(Agent(agent).owner() == owner);\n        agentRecords[index].agent = agent;\n        emit RecordUpdated(name, agent);\n    }\n\n    function deprecateRecord(bytes32 name) public {\n        uint index = agentIndex[name];\n        require(index != 0);\n        require(agentRecords[index].state == RecordState.ALIVE);\n        require(Agent(agentRecords[index].agent).owner() == tx.origin);\n        agentRecords[index].state = RecordState.DEAD;\n        emit RecordDeprecated(name);\n    }\n\n    function listRecords() public view returns (bytes32[], address[]) {\n        bytes32[] memory names = new bytes32[](agentRecords.length - 1);\n        address[] memory agents = new address[](agentRecords.length - 1);\n        uint j = 0;\n        for (uint i = 1; i < agentRecords.length; i++) {\n            if (agentRecords[i].state == RecordState.ALIVE && Agent(agentRecords[i].agent).state() == Agent.AgentState.ENABLED) {\n                names[j] = agentRecords[i].name;\n                agents[j] = agentRecords[i].agent;\n                j++;\n            }\n        }\n        return (names, agents);\n    }\n}\n",
  "sourcePath": "/Users/erickearns/Documents/repositories/erickearns/singnet-forks/alpha-blockchain/contracts/Registry.sol",
  "compiler": {
    "name": "solc",
    "version": "0.4.21+commit.dfe3193c.Emscripten.clang"
  },
  "schemaVersion": "2.0.0",
  "updatedAt": "2018-04-10T21:46:44.870Z"
}