{
  "contractName": "Registry",
  "abi": [
    {
      "constant": true,
      "inputs": [
        {
          "name": "",
          "type": "bytes32"
        }
      ],
      "name": "agentIndex",
      "outputs": [
        {
          "name": "",
          "type": "uint256"
        }
      ],
      "payable": false,
      "stateMutability": "view",
      "type": "function"
    },
    {
      "constant": true,
      "inputs": [
        {
          "name": "",
          "type": "uint256"
        }
      ],
      "name": "agentRecords",
      "outputs": [
        {
          "name": "agent",
          "type": "address"
        },
        {
          "name": "owner",
          "type": "address"
        },
        {
          "name": "name",
          "type": "bytes32"
        },
        {
          "name": "status",
          "type": "uint8"
        }
      ],
      "payable": false,
      "stateMutability": "view",
      "type": "function"
    },
    {
      "inputs": [],
      "payable": false,
      "stateMutability": "nonpayable",
      "type": "constructor"
    },
    {
      "anonymous": false,
      "inputs": [
        {
          "indexed": false,
          "name": "name",
          "type": "bytes32"
        },
        {
          "indexed": false,
          "name": "agent",
          "type": "address"
        }
      ],
      "name": "AgentRegistered",
      "type": "event"
    },
    {
      "anonymous": false,
      "inputs": [
        {
          "indexed": false,
          "name": "name",
          "type": "bytes32"
        }
      ],
      "name": "AgentEnabled",
      "type": "event"
    },
    {
      "anonymous": false,
      "inputs": [
        {
          "indexed": false,
          "name": "name",
          "type": "bytes32"
        }
      ],
      "name": "AgentDisabled",
      "type": "event"
    },
    {
      "anonymous": false,
      "inputs": [
        {
          "indexed": false,
          "name": "name",
          "type": "bytes32"
        }
      ],
      "name": "AgentDeprecated",
      "type": "event"
    },
    {
      "anonymous": false,
      "inputs": [
        {
          "indexed": false,
          "name": "name",
          "type": "bytes32"
        },
        {
          "indexed": false,
          "name": "agent",
          "type": "address"
        }
      ],
      "name": "AgentUpdated",
      "type": "event"
    },
    {
      "constant": false,
      "inputs": [
        {
          "name": "name",
          "type": "bytes32"
        },
        {
          "name": "agent",
          "type": "address"
        }
      ],
      "name": "registerAgent",
      "outputs": [],
      "payable": false,
      "stateMutability": "nonpayable",
      "type": "function"
    },
    {
      "constant": false,
      "inputs": [
        {
          "name": "name",
          "type": "bytes32"
        }
      ],
      "name": "enableAgent",
      "outputs": [],
      "payable": false,
      "stateMutability": "nonpayable",
      "type": "function"
    },
    {
      "constant": false,
      "inputs": [
        {
          "name": "name",
          "type": "bytes32"
        }
      ],
      "name": "disableAgent",
      "outputs": [],
      "payable": false,
      "stateMutability": "nonpayable",
      "type": "function"
    },
    {
      "constant": false,
      "inputs": [
        {
          "name": "name",
          "type": "bytes32"
        }
      ],
      "name": "deprecateAgent",
      "outputs": [],
      "payable": false,
      "stateMutability": "nonpayable",
      "type": "function"
    },
    {
      "constant": false,
      "inputs": [
        {
          "name": "name",
          "type": "bytes32"
        },
        {
          "name": "agent",
          "type": "address"
        }
      ],
      "name": "updateAgent",
      "outputs": [],
      "payable": false,
      "stateMutability": "nonpayable",
      "type": "function"
    },
    {
      "constant": true,
      "inputs": [],
      "name": "listAgents",
      "outputs": [
        {
          "name": "",
          "type": "bytes32[]"
        },
        {
          "name": "",
          "type": "address[]"
        }
      ],
      "payable": false,
      "stateMutability": "view",
      "type": "function"
    }
  ],
  "bytecode": "0x6060604052341561000f57600080fd5b600080548060010182816100239190610166565b91600052602060002090600402016000608060405190810160405280600073ffffffffffffffffffffffffffffffffffffffff168152602001600073ffffffffffffffffffffffffffffffffffffffff1681526020016000801916815260200160028081111561008f57fe5b815250909190915060008201518160000160006101000a81548173ffffffffffffffffffffffffffffffffffffffff021916908373ffffffffffffffffffffffffffffffffffffffff16021790555060208201518160010160006101000a81548173ffffffffffffffffffffffffffffffffffffffff021916908373ffffffffffffffffffffffffffffffffffffffff1602179055506040820151816002019060001916905560608201518160030160006101000a81548160ff0219169083600281111561015957fe5b0217905550505050610221565b815481835581811511610193576004028160040283600052602060002091820191016101929190610198565b5b505050565b61021e91905b8082111561021a57600080820160006101000a81549073ffffffffffffffffffffffffffffffffffffffff02191690556001820160006101000a81549073ffffffffffffffffffffffffffffffffffffffff021916905560028201600090556003820160006101000a81549060ff02191690555060040161019e565b5090565b90565b611041806102306000396000f30060606040526004361061008e576000357c0100000000000000000000000000000000000000000000000000000000900463ffffffff16806309c53a2714610093578063182e8de5146100ba57806346126b3e146100f557806356908e441461011c5780637879ae7b146101625780638daad7ef14610189578063d6cd4a02146101cf578063dc97c05614610281575b600080fd5b341561009e57600080fd5b6100b860048080356000191690602001909190505061033b565b005b34156100c557600080fd5b6100df6004808035600019169060200190919050506104bc565b6040518082815260200191505060405180910390f35b341561010057600080fd5b61011a6004808035600019169060200190919050506104d4565b005b341561012757600080fd5b61016060048080356000191690602001909190803573ffffffffffffffffffffffffffffffffffffffff16906020019091905050610655565b005b341561016d57600080fd5b61018760048080356000191690602001909190505061088e565b005b341561019457600080fd5b6101cd60048080356000191690602001909190803573ffffffffffffffffffffffffffffffffffffffff16906020019091905050610a0e565b005b34156101da57600080fd5b6101e2610cd9565b604051808060200180602001838103835285818151815260200191508051906020019060200280838360005b8381101561022957808201518184015260208101905061020e565b50505050905001838103825284818151815260200191508051906020019060200280838360005b8381101561026b578082015181840152602081019050610250565b5050505090500194505050505060405180910390f35b341561028c57600080fd5b6102a26004808035906020019091905050610ea6565b604051808573ffffffffffffffffffffffffffffffffffffffff1673ffffffffffffffffffffffffffffffffffffffff1681526020018473ffffffffffffffffffffffffffffffffffffffff1673ffffffffffffffffffffffffffffffffffffffff168152602001836000191660001916815260200182600281111561032457fe5b60ff16815260200194505050505060405180910390f35b60006001600083600019166000191681526020019081526020016000205490506000811415151561036b57600080fd5b3273ffffffffffffffffffffffffffffffffffffffff1660008281548110151561039157fe5b906000526020600020906004020160010160009054906101000a900473ffffffffffffffffffffffffffffffffffffffff1673ffffffffffffffffffffffffffffffffffffffff161415156103e557600080fd5b600060028111156103f257fe5b60008281548110151561040157fe5b906000526020600020906004020160030160009054906101000a900460ff16600281111561042b57fe5b14151561043757600080fd5b600160008281548110151561044857fe5b906000526020600020906004020160030160006101000a81548160ff0219169083600281111561047457fe5b02179055507fb98f2d94a7e78009d22ff9744d05551087f159348d2e143650fdcfd5547ff8178260405180826000191660001916815260200191505060405180910390a15050565b60016020528060005260406000206000915090505481565b60006001600083600019166000191681526020019081526020016000205490506000811415151561050457600080fd5b3273ffffffffffffffffffffffffffffffffffffffff1660008281548110151561052a57fe5b906000526020600020906004020160010160009054906101000a900473ffffffffffffffffffffffffffffffffffffffff1673ffffffffffffffffffffffffffffffffffffffff1614151561057e57600080fd5b60028081111561058a57fe5b60008281548110151561059957fe5b906000526020600020906004020160030160009054906101000a900460ff1660028111156105c357fe5b141515156105d057600080fd5b60026000828154811015156105e157fe5b906000526020600020906004020160030160006101000a81548160ff0219169083600281111561060d57fe5b02179055507fd60c8040a66e5c4e90757c4cd2a25daff441e8d481380f7291660a5a3ff310d78260405180826000191660001916815260200191505060405180910390a15050565b6000806001600085600019166000191681526020019081526020016000205491506000821415151561068657600080fd5b3290508073ffffffffffffffffffffffffffffffffffffffff166000838154811015156106af57fe5b906000526020600020906004020160010160009054906101000a900473ffffffffffffffffffffffffffffffffffffffff1673ffffffffffffffffffffffffffffffffffffffff1614151561070357600080fd5b8073ffffffffffffffffffffffffffffffffffffffff168373ffffffffffffffffffffffffffffffffffffffff16638da5cb5b6040518163ffffffff167c0100000000000000000000000000000000000000000000000000000000028152600401602060405180830381600087803b151561077d57600080fd5b5af1151561078a57600080fd5b5050506040518051905073ffffffffffffffffffffffffffffffffffffffff161415156107b657600080fd5b826000838154811015156107c657fe5b906000526020600020906004020160000160006101000a81548173ffffffffffffffffffffffffffffffffffffffff021916908373ffffffffffffffffffffffffffffffffffffffff1602179055507fe0b7bfc4670bdbd796093cd1acc05b46a3e8a05464360d199cbf95084ba40a3b84846040518083600019166000191681526020018273ffffffffffffffffffffffffffffffffffffffff1673ffffffffffffffffffffffffffffffffffffffff1681526020019250505060405180910390a150505050565b6000600160008360001916600019168152602001908152602001600020549050600081141515156108be57600080fd5b3273ffffffffffffffffffffffffffffffffffffffff166000828154811015156108e457fe5b906000526020600020906004020160010160009054906101000a900473ffffffffffffffffffffffffffffffffffffffff1673ffffffffffffffffffffffffffffffffffffffff1614151561093857600080fd5b6001600281111561094557fe5b60008281548110151561095457fe5b906000526020600020906004020160030160009054906101000a900460ff16600281111561097e57fe5b14151561098a57600080fd5b6000808281548110151561099a57fe5b906000526020600020906004020160030160006101000a81548160ff021916908360028111156109c657fe5b02179055507f49c176607d498a291d390a44c56c9f9817e92107125411fc04d596a3815752c48260405180826000191660001916815260200191505060405180910390a15050565b60008060016000856000191660001916815260200190815260200160002054141515610a3957600080fd5b3290508073ffffffffffffffffffffffffffffffffffffffff168273ffffffffffffffffffffffffffffffffffffffff16638da5cb5b6040518163ffffffff167c0100000000000000000000000000000000000000000000000000000000028152600401602060405180830381600087803b1515610ab657600080fd5b5af11515610ac357600080fd5b5050506040518051905073ffffffffffffffffffffffffffffffffffffffff16141515610aef57600080fd5b600160008054806001018281610b059190610f32565b916000526020600020906004020160006080604051908101604052808773ffffffffffffffffffffffffffffffffffffffff1681526020018673ffffffffffffffffffffffffffffffffffffffff1681526020018860001916815260200160006002811115610b7057fe5b815250909190915060008201518160000160006101000a81548173ffffffffffffffffffffffffffffffffffffffff021916908373ffffffffffffffffffffffffffffffffffffffff16021790555060208201518160010160006101000a81548173ffffffffffffffffffffffffffffffffffffffff021916908373ffffffffffffffffffffffffffffffffffffffff1602179055506040820151816002019060001916905560608201518160030160006101000a81548160ff02191690836002811115610c3a57fe5b0217905550505003600160008560001916600019168152602001908152602001600020819055507f39c4cbf140db417a0fa83ac9f88ce3b44f0d8b1f759eeaea09c8470dbe253f6983836040518083600019166000191681526020018273ffffffffffffffffffffffffffffffffffffffff1673ffffffffffffffffffffffffffffffffffffffff1681526020019250505060405180910390a1505050565b610ce1610f64565b610ce9610f78565b610cf1610f64565b610cf9610f78565b600080600160008054905003604051805910610d125750595b90808252806020026020018201604052509350600160008054905003604051805910610d3b5750595b9080825280602002602001820160405250925060009150600190505b600080549050811015610e985760006002811115610d7157fe5b600082815481101515610d8057fe5b906000526020600020906004020160030160009054906101000a900460ff166002811115610daa57fe5b1415610e8b57600081815481101515610dbf57fe5b9060005260206000209060040201600201548483815181101515610ddf57fe5b906020019060200201906000191690816000191681525050600081815481101515610e0657fe5b906000526020600020906004020160000160009054906101000a900473ffffffffffffffffffffffffffffffffffffffff168383815181101515610e4657fe5b9060200190602002019073ffffffffffffffffffffffffffffffffffffffff16908173ffffffffffffffffffffffffffffffffffffffff168152505081806001019250505b8080600101915050610d57565b838395509550505050509091565b600081815481101515610eb557fe5b90600052602060002090600402016000915090508060000160009054906101000a900473ffffffffffffffffffffffffffffffffffffffff16908060010160009054906101000a900473ffffffffffffffffffffffffffffffffffffffff16908060020154908060030160009054906101000a900460ff16905084565b815481835581811511610f5f57600402816004028360005260206000209182019101610f5e9190610f8c565b5b505050565b602060405190810160405280600081525090565b602060405190810160405280600081525090565b61101291905b8082111561100e57600080820160006101000a81549073ffffffffffffffffffffffffffffffffffffffff02191690556001820160006101000a81549073ffffffffffffffffffffffffffffffffffffffff021916905560028201600090556003820160006101000a81549060ff021916905550600401610f92565b5090565b905600a165627a7a72305820022efee24a27f8da14043b708ce67a5fc7dd16fd455852f27596de6d183b1f5d0029",
  "source": "pragma solidity ^0.4.21;\n\nimport \"./Agent.sol\";\n\ncontract Registry {\n    enum RecordStatus {\n        ACTIVE,\n        DISABLED,\n        DEPRECATED\n    }\n\n    struct AgentRecord {\n        address agent;\n        address owner;\n        bytes32 name;\n        RecordStatus status;\n    }\n\n    AgentRecord[] public agentRecords;\n    mapping(bytes32 => uint) public agentIndex;\n\n    event AgentRegistered(bytes32 name, address agent);\n    event AgentEnabled(bytes32 name);\n    event AgentDisabled(bytes32 name);\n    event AgentDeprecated(bytes32 name);\n    event AgentUpdated(bytes32 name, address agent);\n\n    function Registry() public {\n        // The 0th index of this list cannot be used because of the fact that agentIndex[name] == 0 when\n        // name is *not* valid\n        agentRecords.push(AgentRecord(address(0), address(0), \"\", RecordStatus.DEPRECATED));\n    }\n\n    function registerAgent(bytes32 name, address agent) public {\n        require(agentIndex[name] == 0);\n        address owner = tx.origin;\n        require(Agent(agent).owner() == owner);\n        agentIndex[name] = agentRecords.push(AgentRecord(agent, owner, name, RecordStatus.ACTIVE)) - 1;\n        emit AgentRegistered(name, agent);\n    }\n\n    function enableAgent(bytes32 name) public {\n        uint index = agentIndex[name];\n        require(index != 0);\n        require(agentRecords[index].owner == tx.origin);\n        require(agentRecords[index].status == RecordStatus.DISABLED);\n        agentRecords[index].status = RecordStatus.ACTIVE;\n        emit AgentEnabled(name);\n    }\n\n    function disableAgent(bytes32 name) public {\n        uint index = agentIndex[name];\n        require(index != 0);\n        require(agentRecords[index].owner == tx.origin);\n        require(agentRecords[index].status == RecordStatus.ACTIVE);\n        agentRecords[index].status = RecordStatus.DISABLED;\n        emit AgentDisabled(name);\n    }\n\n    function deprecateAgent(bytes32 name) public {\n        uint index = agentIndex[name];\n        require(index != 0);\n        require(agentRecords[index].owner == tx.origin);\n        require(agentRecords[index].status != RecordStatus.DEPRECATED);\n        agentRecords[index].status = RecordStatus.DEPRECATED;\n        emit AgentDeprecated(name);\n    }\n\n    function updateAgent(bytes32 name, address agent) public {\n        uint index = agentIndex[name];\n        require(index != 0);\n        address owner = tx.origin;\n        require(agentRecords[index].owner == owner);\n        require(Agent(agent).owner() == owner);\n        agentRecords[index].agent = agent;\n        emit AgentUpdated(name, agent);\n    }\n\n    function listAgents() public view returns (bytes32[], address[]) {\n        bytes32[] memory names = new bytes32[](agentRecords.length - 1);\n        address[] memory agents = new address[](agentRecords.length - 1);\n        uint j = 0;\n        for (uint i = 1; i < agentRecords.length; i++) {\n            if (agentRecords[i].status == RecordStatus.ACTIVE) {\n                names[j] = agentRecords[i].name;\n                agents[j] = agentRecords[i].agent;\n                j++;\n            }\n        }\n        return (names, agents);\n    }\n}\n",
  "sourcePath": "/Users/erickearns/Documents/repositories/erickearns/singnet-forks/alpha-blockchain/contracts/Registry.sol",
  "compiler": {
    "name": "solc",
    "version": "0.4.21+commit.dfe3193c.Emscripten.clang"
  },
  "schemaVersion": "2.0.0",
  "updatedAt": "2018-04-10T19:03:10.644Z"
}