{
  "contractName": "Registry",
  "abi": [
    {
      "anonymous": false,
      "inputs": [
        {
          "indexed": false,
          "name": "orgName",
          "type": "bytes32"
        },
        {
          "indexed": true,
          "name": "orgNameIndexed",
          "type": "bytes32"
        }
      ],
      "name": "OrganizationCreated",
      "type": "event"
    },
    {
      "anonymous": false,
      "inputs": [
        {
          "indexed": false,
          "name": "orgName",
          "type": "bytes32"
        },
        {
          "indexed": true,
          "name": "orgNameIndexed",
          "type": "bytes32"
        }
      ],
      "name": "OrganizationModified",
      "type": "event"
    },
    {
      "anonymous": false,
      "inputs": [
        {
          "indexed": false,
          "name": "orgName",
          "type": "bytes32"
        },
        {
          "indexed": true,
          "name": "orgNameIndexed",
          "type": "bytes32"
        }
      ],
      "name": "OrganizationDeleted",
      "type": "event"
    },
    {
      "anonymous": false,
      "inputs": [
        {
          "indexed": false,
          "name": "orgName",
          "type": "bytes32"
        },
        {
          "indexed": false,
          "name": "serviceName",
          "type": "bytes32"
        },
        {
          "indexed": true,
          "name": "orgNameIndexed",
          "type": "bytes32"
        },
        {
          "indexed": true,
          "name": "serviceNameIndexed",
          "type": "bytes32"
        }
      ],
      "name": "ServiceCreated",
      "type": "event"
    },
    {
      "anonymous": false,
      "inputs": [
        {
          "indexed": false,
          "name": "orgName",
          "type": "bytes32"
        },
        {
          "indexed": false,
          "name": "serviceName",
          "type": "bytes32"
        },
        {
          "indexed": true,
          "name": "orgNameIndexed",
          "type": "bytes32"
        },
        {
          "indexed": true,
          "name": "serviceNameIndexed",
          "type": "bytes32"
        }
      ],
      "name": "ServiceModified",
      "type": "event"
    },
    {
      "anonymous": false,
      "inputs": [
        {
          "indexed": false,
          "name": "orgName",
          "type": "bytes32"
        },
        {
          "indexed": false,
          "name": "serviceName",
          "type": "bytes32"
        },
        {
          "indexed": true,
          "name": "orgNameIndexed",
          "type": "bytes32"
        },
        {
          "indexed": true,
          "name": "serviceNameIndexed",
          "type": "bytes32"
        }
      ],
      "name": "ServiceDeleted",
      "type": "event"
    },
    {
      "anonymous": false,
      "inputs": [
        {
          "indexed": false,
          "name": "orgName",
          "type": "bytes32"
        },
        {
          "indexed": false,
          "name": "typeRepositoryName",
          "type": "bytes32"
        },
        {
          "indexed": true,
          "name": "orgNameIndexed",
          "type": "bytes32"
        },
        {
          "indexed": true,
          "name": "typeRepositoryNameIndexed",
          "type": "bytes32"
        }
      ],
      "name": "TypeRepositoryCreated",
      "type": "event"
    },
    {
      "anonymous": false,
      "inputs": [
        {
          "indexed": false,
          "name": "orgName",
          "type": "bytes32"
        },
        {
          "indexed": false,
          "name": "typeRepositoryName",
          "type": "bytes32"
        },
        {
          "indexed": true,
          "name": "orgNameIndexed",
          "type": "bytes32"
        },
        {
          "indexed": true,
          "name": "typeRepositoryNameIndexed",
          "type": "bytes32"
        }
      ],
      "name": "TypeRepositoryModified",
      "type": "event"
    },
    {
      "anonymous": false,
      "inputs": [
        {
          "indexed": false,
          "name": "orgName",
          "type": "bytes32"
        },
        {
          "indexed": false,
          "name": "typeRepositoryName",
          "type": "bytes32"
        },
        {
          "indexed": true,
          "name": "orgNameIndexed",
          "type": "bytes32"
        },
        {
          "indexed": true,
          "name": "typeRepositoryNameIndexed",
          "type": "bytes32"
        }
      ],
      "name": "TypeRepositoryDeleted",
      "type": "event"
    },
    {
      "constant": false,
      "inputs": [
        {
          "name": "orgName",
          "type": "bytes32"
        },
        {
          "name": "members",
          "type": "address[]"
        }
      ],
      "name": "createOrganization",
      "outputs": [],
      "payable": false,
      "stateMutability": "nonpayable",
      "type": "function"
    },
    {
      "constant": false,
      "inputs": [
        {
          "name": "orgName",
          "type": "bytes32"
        },
        {
          "name": "newOwner",
          "type": "address"
        }
      ],
      "name": "changeOrganizationOwner",
      "outputs": [],
      "payable": false,
      "stateMutability": "nonpayable",
      "type": "function"
    },
    {
      "constant": false,
      "inputs": [
        {
          "name": "orgName",
          "type": "bytes32"
        },
        {
          "name": "newMembers",
          "type": "address[]"
        }
      ],
      "name": "addOrganizationMembers",
      "outputs": [],
      "payable": false,
      "stateMutability": "nonpayable",
      "type": "function"
    },
    {
      "constant": false,
      "inputs": [
        {
          "name": "orgName",
          "type": "bytes32"
        },
        {
          "name": "existingMembers",
          "type": "address[]"
        }
      ],
      "name": "removeOrganizationMembers",
      "outputs": [],
      "payable": false,
      "stateMutability": "nonpayable",
      "type": "function"
    },
    {
      "constant": false,
      "inputs": [
        {
          "name": "orgName",
          "type": "bytes32"
        }
      ],
      "name": "deleteOrganization",
      "outputs": [],
      "payable": false,
      "stateMutability": "nonpayable",
      "type": "function"
    },
    {
      "constant": false,
      "inputs": [
        {
          "name": "orgName",
          "type": "bytes32"
        },
        {
          "name": "serviceName",
          "type": "bytes32"
        },
        {
          "name": "servicePath",
          "type": "bytes32"
        },
        {
          "name": "agentAddress",
          "type": "address"
        },
        {
          "name": "tags",
          "type": "bytes32[]"
        }
      ],
      "name": "createServiceRegistration",
      "outputs": [],
      "payable": false,
      "stateMutability": "nonpayable",
      "type": "function"
    },
    {
      "constant": false,
      "inputs": [
        {
          "name": "orgName",
          "type": "bytes32"
        },
        {
          "name": "serviceName",
          "type": "bytes32"
        },
        {
          "name": "servicePath",
          "type": "bytes32"
        },
        {
          "name": "agentAddress",
          "type": "address"
        }
      ],
      "name": "updateServiceRegistration",
      "outputs": [],
      "payable": false,
      "stateMutability": "nonpayable",
      "type": "function"
    },
    {
      "constant": false,
      "inputs": [
        {
          "name": "orgName",
          "type": "bytes32"
        },
        {
          "name": "serviceName",
          "type": "bytes32"
        },
        {
          "name": "tags",
          "type": "bytes32[]"
        }
      ],
      "name": "addTagsToServiceRegistration",
      "outputs": [],
      "payable": false,
      "stateMutability": "nonpayable",
      "type": "function"
    },
    {
      "constant": false,
      "inputs": [
        {
          "name": "orgName",
          "type": "bytes32"
        },
        {
          "name": "serviceName",
          "type": "bytes32"
        },
        {
          "name": "tags",
          "type": "bytes32[]"
        }
      ],
      "name": "removeTagsFromServiceRegistration",
      "outputs": [],
      "payable": false,
      "stateMutability": "nonpayable",
      "type": "function"
    },
    {
      "constant": false,
      "inputs": [
        {
          "name": "orgName",
          "type": "bytes32"
        },
        {
          "name": "serviceName",
          "type": "bytes32"
        }
      ],
      "name": "deleteServiceRegistration",
      "outputs": [],
      "payable": false,
      "stateMutability": "nonpayable",
      "type": "function"
    },
    {
      "constant": false,
      "inputs": [
        {
          "name": "orgName",
          "type": "bytes32"
        },
        {
          "name": "repositoryName",
          "type": "bytes32"
        },
        {
          "name": "repositoryPath",
          "type": "bytes32"
        },
        {
          "name": "repositoryURI",
          "type": "bytes"
        },
        {
          "name": "tags",
          "type": "bytes32[]"
        }
      ],
      "name": "createTypeRepositoryRegistration",
      "outputs": [],
      "payable": false,
      "stateMutability": "nonpayable",
      "type": "function"
    },
    {
      "constant": false,
      "inputs": [
        {
          "name": "orgName",
          "type": "bytes32"
        },
        {
          "name": "repositoryName",
          "type": "bytes32"
        },
        {
          "name": "repositoryPath",
          "type": "bytes32"
        },
        {
          "name": "repositoryURI",
          "type": "bytes"
        }
      ],
      "name": "updateTypeRepositoryRegistration",
      "outputs": [],
      "payable": false,
      "stateMutability": "nonpayable",
      "type": "function"
    },
    {
      "constant": false,
      "inputs": [
        {
          "name": "orgName",
          "type": "bytes32"
        },
        {
          "name": "repositoryName",
          "type": "bytes32"
        },
        {
          "name": "tags",
          "type": "bytes32[]"
        }
      ],
      "name": "addTagsToTypeRepositoryRegistration",
      "outputs": [],
      "payable": false,
      "stateMutability": "nonpayable",
      "type": "function"
    },
    {
      "constant": false,
      "inputs": [
        {
          "name": "orgName",
          "type": "bytes32"
        },
        {
          "name": "repositoryName",
          "type": "bytes32"
        },
        {
          "name": "tags",
          "type": "bytes32[]"
        }
      ],
      "name": "removeTagsFromTypeRepositoryRegistration",
      "outputs": [],
      "payable": false,
      "stateMutability": "nonpayable",
      "type": "function"
    },
    {
      "constant": false,
      "inputs": [
        {
          "name": "orgName",
          "type": "bytes32"
        },
        {
          "name": "repositoryName",
          "type": "bytes32"
        }
      ],
      "name": "deleteTypeRepositoryRegistration",
      "outputs": [],
      "payable": false,
      "stateMutability": "nonpayable",
      "type": "function"
    },
    {
      "constant": true,
      "inputs": [],
      "name": "listOrganizations",
      "outputs": [
        {
          "name": "orgNames",
          "type": "bytes32[]"
        }
      ],
      "payable": false,
      "stateMutability": "view",
      "type": "function"
    },
    {
      "constant": true,
      "inputs": [
        {
          "name": "orgName",
          "type": "bytes32"
        }
      ],
      "name": "getOrganizationByName",
      "outputs": [
        {
          "name": "found",
          "type": "bool"
        },
        {
          "name": "name",
          "type": "bytes32"
        },
        {
          "name": "owner",
          "type": "address"
        },
        {
          "name": "members",
          "type": "address[]"
        },
        {
          "name": "serviceNames",
          "type": "bytes32[]"
        },
        {
          "name": "repositoryNames",
          "type": "bytes32[]"
        }
      ],
      "payable": false,
      "stateMutability": "view",
      "type": "function"
    },
    {
      "constant": true,
      "inputs": [
        {
          "name": "orgName",
          "type": "bytes32"
        }
      ],
      "name": "listServicesForOrganization",
      "outputs": [
        {
          "name": "found",
          "type": "bool"
        },
        {
          "name": "serviceNames",
          "type": "bytes32[]"
        }
      ],
      "payable": false,
      "stateMutability": "view",
      "type": "function"
    },
    {
      "constant": true,
      "inputs": [
        {
          "name": "orgName",
          "type": "bytes32"
        },
        {
          "name": "serviceName",
          "type": "bytes32"
        }
      ],
      "name": "getServiceRegistrationByName",
      "outputs": [
        {
          "name": "found",
          "type": "bool"
        },
        {
          "name": "name",
          "type": "bytes32"
        },
        {
          "name": "path",
          "type": "bytes32"
        },
        {
          "name": "agentAddress",
          "type": "address"
        },
        {
          "name": "tags",
          "type": "bytes32[]"
        }
      ],
      "payable": false,
      "stateMutability": "view",
      "type": "function"
    },
    {
      "constant": true,
      "inputs": [
        {
          "name": "orgName",
          "type": "bytes32"
        }
      ],
      "name": "listTypeRepositoriesForOrganization",
      "outputs": [
        {
          "name": "found",
          "type": "bool"
        },
        {
          "name": "repositoryNames",
          "type": "bytes32[]"
        }
      ],
      "payable": false,
      "stateMutability": "view",
      "type": "function"
    },
    {
      "constant": true,
      "inputs": [
        {
          "name": "orgName",
          "type": "bytes32"
        },
        {
          "name": "repositoryName",
          "type": "bytes32"
        }
      ],
      "name": "getTypeRepositoryByName",
      "outputs": [
        {
          "name": "found",
          "type": "bool"
        },
        {
          "name": "name",
          "type": "bytes32"
        },
        {
          "name": "path",
          "type": "bytes32"
        },
        {
          "name": "uri",
          "type": "bytes"
        },
        {
          "name": "tags",
          "type": "bytes32[]"
        }
      ],
      "payable": false,
      "stateMutability": "view",
      "type": "function"
    },
    {
      "constant": true,
      "inputs": [],
      "name": "listServiceTags",
      "outputs": [
        {
          "name": "tags",
          "type": "bytes32[]"
        }
      ],
      "payable": false,
      "stateMutability": "view",
      "type": "function"
    },
    {
      "constant": true,
      "inputs": [
        {
          "name": "tag",
          "type": "bytes32"
        }
      ],
      "name": "listServicesForTag",
      "outputs": [
        {
          "name": "orgNames",
          "type": "bytes32[]"
        },
        {
          "name": "serviceNames",
          "type": "bytes32[]"
        }
      ],
      "payable": false,
      "stateMutability": "view",
      "type": "function"
    },
    {
      "constant": true,
      "inputs": [],
      "name": "listTypeRepositoryTags",
      "outputs": [
        {
          "name": "tags",
          "type": "bytes32[]"
        }
      ],
      "payable": false,
      "stateMutability": "view",
      "type": "function"
    },
    {
      "constant": true,
      "inputs": [
        {
          "name": "tag",
          "type": "bytes32"
        }
      ],
      "name": "listTypeRepositoriesForTag",
      "outputs": [
        {
          "name": "orgNames",
          "type": "bytes32[]"
        },
        {
          "name": "repositoryNames",
          "type": "bytes32[]"
        }
      ],
      "payable": false,
      "stateMutability": "view",
      "type": "function"
    },
    {
      "constant": true,
      "inputs": [
        {
          "name": "interfaceID",
          "type": "bytes4"
        }
      ],
      "name": "supportsInterface",
      "outputs": [
        {
          "name": "",
          "type": "bool"
        }
      ],
      "payable": false,
      "stateMutability": "view",
      "type": "function"
    }
  ],
  "bytecode": "0x608060405234801561001057600080fd5b506132f9806100206000396000f3006080604052600436106101535763ffffffff7c0100000000000000000000000000000000000000000000000000000000600035041663013be2e0811461015857806301ffc9a7146101825780632cd49849146101cd578063340d84e5146102f65780633a2cb8601461035b5780633d408ac0146103d2578063520e855b1461046b5780635a1589d5146104805780636928848d146104ac578063692c8a92146104c4578063781d69d21461057557806383c83b79146105995780638bd79dc8146105c35780638e07e977146105fb5780639aad8d9d14610623578063acd298d31461063e578063afab986c14610656578063b72516551461067e578063bb82354f14610693578063ca62968a146106ab578063ca6993d4146106d3578063ca97758c1461070c578063d2e544f714610727578063d9219d281461074b578063e443852d1461076f578063e5ae53e214610793575b600080fd5b34801561016457600080fd5b5061018060048035906024803591604435918201910135610884565b005b34801561018e57600080fd5b506101b97bffffffffffffffffffffffffffffffffffffffffffffffffffffffff1960043516610923565b604080519115158252519081900360200190f35b3480156101d957600080fd5b506101e56004356109b6565b6040518087151515158152602001866000191660001916815260200185600160a060020a0316600160a060020a03168152602001806020018060200180602001848103845287818151815260200191508051906020019060200280838360005b8381101561025d578181015183820152602001610245565b50505050905001848103835286818151815260200191508051906020019060200280838360005b8381101561029c578181015183820152602001610284565b50505050905001848103825285818151815260200191508051906020019060200280838360005b838110156102db5781810151838201526020016102c3565b50505050905001995050505050505050505060405180910390f35b34801561030257600080fd5b5061030b610b34565b60408051602080825283518183015283519192839290830191858101910280838360005b8381101561034757818101518382015260200161032f565b505050509050019250505060405180910390f35b34801561036757600080fd5b50610373600435610b8e565b604051808315151515815260200180602001828103825283818151815260200191508051906020019060200280838360005b838110156103bd5781810151838201526020016103a5565b50505050905001935050505060405180910390f35b3480156103de57600080fd5b506103ed600435602435610c17565b6040805186151581526020808201879052918101859052600160a060020a038416606082015260a06080820181815284519183019190915283519192909160c0840191858101910280838360005b8381101561045357818101518382015260200161043b565b50505050905001965050505050505060405180910390f35b34801561047757600080fd5b5061030b610d01565b34801561048c57600080fd5b506101806004803590602480359160443591606435908101910135610d58565b3480156104b857600080fd5b50610180600435610df2565b3480156104d057600080fd5b506104dc60043561106e565b604051808060200180602001838103835285818151815260200191508051906020019060200280838360005b83811015610520578181015183820152602001610508565b50505050905001838103825284818151815260200191508051906020019060200280838360005b8381101561055f578181015183820152602001610547565b5050505090500194505050505060405180910390f35b34801561058157600080fd5b5061018060048035906024803590810191013561113b565b3480156105a557600080fd5b50610180600435602435604435600160a060020a03606435166112b3565b3480156105cf57600080fd5b506101806004803590602480359160443591606435808201929081013591608435908101910135611358565b34801561060757600080fd5b50610180600480359060248035916044359182019101356114de565b34801561062f57600080fd5b50610180600435602435611537565b34801561064a57600080fd5b506104dc6004356115a6565b34801561066257600080fd5b5061018060048035906024803591604435918201910135611673565b34801561068a57600080fd5b5061030b611702565b34801561069f57600080fd5b50610373600435611759565b3480156106b757600080fd5b50610180600480359060248035916044359182019101356117df565b3480156106df57600080fd5b506101806004803590602480359160443591600160a060020a036064351691608435918201910135611838565b34801561071857600080fd5b506101806004356024356119af565b34801561073357600080fd5b50610180600480359060248035908101910135611a1e565b34801561075757600080fd5b50610180600480359060248035908101910135611aab565b34801561077b57600080fd5b50610180600435600160a060020a0360243516611b33565b34801561079f57600080fd5b506107ae600435602435611bad565b604080518615158152602080820187905291810185905260a060608201818152855191830191909152845191929091608084019160c08501919087019080838360005b838110156108095781810151838201526020016107f1565b50505050905090810190601f1680156108365780820380516001836020036101000a031916815260200191505b508381038252845181528451602091820191808701910280838360005b8381101561086b578181015183820152602001610853565b5050505090500197505050505050505060405180910390f35b6000610891856001611d29565b61089c856001611e01565b6108a885856001611ea2565b5060005b818110156108dd576108d585858585858181106108c557fe5b9050602002013560001916611f97565b6001016108ac565b60408051868152602081018690528151869288927f8eac834748d0bff9050998b0d24883ee990cc806d1999e28982f9e871a7175e4929081900390910190a35050505050565b60007bffffffffffffffffffffffffffffffffffffffffffffffffffffffff1982167f01ffc9a70000000000000000000000000000000000000000000000000000000014806109b057507fbd523993000000000000000000000000000000000000000000000000000000007bffffffffffffffffffffffffffffffffffffffffffffffffffffffff198316145b92915050565b600081815260016020526040812054819081906060908190819015156109df5760009550610b2b565b60008781526001602081815260409283902080548184015460029092018054865181860281018601909752808752949b50909950600160a060020a0390911697509190830182828015610a5b57602002820191906000526020600020905b8154600160a060020a03168152600190910190602001808311610a3d575b50505060008a81526001602090815260409182902060040180548351818402810184019094528084529598509194919350909150830182828015610abf57602002820191906000526020600020905b81548152600190910190602001808311610aaa575b50505060008a81526001602090815260409182902060050180548351818402810184019094528084529597509194919350909150830182828015610b2357602002820191906000526020600020905b81548152600190910190602001808311610b0e575b505050505090505b91939550919395565b60606000805480602002602001604051908101604052809291908181526020018280548015610b8357602002820191906000526020600020905b81548152600190910190602001808311610b6e575b505050505090505b90565b6000818152600160205260408120546060901515610baf5760009150610c12565b60008381526001602081815260409283902060040180548451818402810184019095528085529295509190830182828015610c0a57602002820191906000526020600020905b81548152600190910190602001808311610bf5575b505050505090505b915091565b6000828152600160205260408120548190819081906060901515610c3e5760009450610cf7565b60008781526001602090815260408083208984526006019091529020541515610c6a5760009450610cf7565b60008781526001602081815260408084208a8552600601825292839020805481840154600283015460039093018054875181870281018701909852808852959b509199509750600160a060020a0390911695509190830182828015610cef57602002820191906000526020600020905b81548152600190910190602001808311610cda575b505050505090505b9295509295909350565b60606003805480602002602001604051908101604052809291908181526020018280548015610b83576020028201919060005260206000209081548152600190910190602001808311610b6e575050505050905090565b610d63856001611d29565b610d6e856001611e01565b610d7a85856001612291565b6000858152600160208181526040808420888552600701909152909120908101849055610dab906002018383612f92565b5060408051868152602081018690528151869288927f7c2e89b90764ba2604d5bff4cd9ac4bef2996f29cbb1f1dd8c6a636e74cd1393929081900390910190a35050505050565b6000806000806000610e05866001611d29565b610e10866000611e01565b60008681526001602052604090206004015494505b6000851115610e715760008681526001602052604090206004018054610e659188916000198901908110610e5557fe5b906000526020600020015461237c565b60001990940193610e25565b60008681526001602052604090206005015493505b6000841115610ed25760008681526001602052604090206005018054610ec69188916000198801908110610eb657fe5b9060005260206000200154612542565b60001990930192610e86565b60008681526001602052604090206002015492505b6000831115610f3d5760008681526001602052604090206002018054610f319188916000198701908110610f1757fe5b600091825260209091200154600160a060020a03166126f4565b60001990920191610ee7565b60008681526001602052604081206008015481549093506000198101908110610f6257fe5b6000918252602082200154815490925082919084908110610f7f57fe5b60009182526020909120015414610fc45780600083815481101515610fa057fe5b60009182526020808320909101929092558281526001909152604090206008018290555b6000805490610fd7906000198301613010565b50600086815260016020819052604082208281559081018054600160a060020a03191690559061100a6002830182613034565b611018600483016000613034565b611026600583016000613034565b5060006008919091015560408051878152905187917f2fec604edf7b107514e5ecd3e21bd55c9e06d72bca4b46784b6ea51f6ed3415e919081900360200190a2505050505050565b60008181526005602090815260409182902060010180548351818402810184019094528084526060938493909291908301828280156110cd57602002820191906000526020600020905b815481526001909101906020018083116110b8575b50505060008681526005602090815260409182902060020180548351818402810184019094528084529597509194919350909150830182828015610c0a576020028201919060005260206000209081548152600190910190602001808311610bf55750505050509050915091565b611143613055565b61114e846000611d29565b60008481526001602081815260409283902084518155848201519281018054600160a060020a031916600160a060020a039094169390931790925591830151805184936111a2926002850192910190613098565b50606082015180516111be9160048401916020909101906130f9565b50608082015180516111da9160058401916020909101906130f9565b5060a0919091015160089182015560008581526001602081815260408084208981558084018054600160a060020a031916331790558454950185905591840183559180527f290decd9548b62a8d60345a988386fc84ba6bc95484008f6362f93160ef3e563909201869055815184820281810183019093528481526112779287928791879182919085019084908082843750612876945050505050565b60408051858152905185917fa7dfd3eb77f437e0b5bce636b5ce7c9f191c1ca3d57c858702ef3c6f58f88f58919081900360200190a250505050565b6112be846001611d29565b6112c9846001611e01565b6112d584846001611ea2565b600084815260016020818152604080842087855260060182529283902091820185905560029091018054600160a060020a031916600160a060020a03851617905581518681529081018590528151859287927f8eac834748d0bff9050998b0d24883ee990cc806d1999e28982f9e871a7175e4929081900390910190a350505050565b611360613136565b600061136d896001611d29565b611378896001611e01565b61138489896000612291565b60008981526001602081815260408084208c855260070182529283902085518155818601519281019290925591840151805185936113c992600285019291019061316c565b50606082015180516113e59160038401916020909101906130f9565b506080919091015160059091015560008981526001602081815260408084208c8552600701909152909120898155908101889055611427906002018787612f92565b50506000888152600160208181526040808420600580820180548e88526007909301855292862001819055838352928301815583528220018890555b828110156114945761148c898986868581811061147c57fe5b9050602002013560001916612989565b600101611463565b604080518a8152602081018a905281518a928c927ffdf088387a74ee06fdb015aa7641d783fc22af31bf7465a5f24c3187be1f3cc1929081900390910190a3505050505050505050565b60006114eb856001611d29565b6114f6856001611e01565b61150285856001611ea2565b5060005b818110156108dd5761152f858585858581811061151f57fe5b9050602002013560001916612b13565b600101611506565b611542826001611d29565b61154d826001611e01565b61155982826001612291565b6115638282612542565b60408051838152602081018390528151839285927f16c7b1c2404a62c18be3f617567ce98a1f145920f466ae71968b19dc95e131c6929081900390910190a35050565b600081815260046020908152604091829020600101805483518184028101840190945280845260609384939092919083018282801561160557602002820191906000526020600020905b815481526001909101906020018083116115f0575b50505060008681526004602090815260409182902060020180548351818402810184019094528084529597509194919350909150830182828015610c0a576020028201919060005260206000209081548152600190910190602001808311610bf55750505050509050915091565b6000611680856001611d29565b61168b856001611e01565b61169785856001612291565b5060005b818110156116bc576116b4858585858581811061147c57fe5b60010161169b565b60408051868152602081018690528151869288927f7c2e89b90764ba2604d5bff4cd9ac4bef2996f29cbb1f1dd8c6a636e74cd1393929081900390910190a35050505050565b60606002805480602002602001604051908101604052809291908181526020018280548015610b83576020028201919060005260206000209081548152600190910190602001808311610b6e575050505050905090565b600081815260016020526040812054606090151561177a5760009150610c12565b60008381526001602081815260409283902060050180548451818402810184019095528085529295509190830182828015610c0a576020028201919060005260206000209081548152600190910190602001808311610bf55750505050509050915091565b60006117ec856001611d29565b6117f7856001611e01565b61180385856001612291565b5060005b818110156116bc57611830858585858581811061182057fe5b9050602002013560001916612c98565b600101611807565b6118406131da565b600061184d886001611d29565b611858886001611e01565b61186488886000611ea2565b60008881526001602081815260408084208b855260060182529283902085518155858201519281019290925591840151600282018054600160a060020a031916600160a060020a039092169190911790556060840151805185936118cf9260038501929101906130f9565b506080919091015160059182015560008981526001602081815260408084208c85526006810183529084208c81558084018c9055600281018054600160a060020a031916600160a060020a038d161790556004909101805491909501819055828252918201845592825291812090910188905590505b828110156119665761195e888886868581811061151f57fe5b600101611945565b6040805189815260208101899052815189928b927f4670f2c90b46e7b693c9ab740ba702ff4d965335ac7e143195dc6a3b46c005ad929081900390910190a35050505050505050565b6119ba826001611d29565b6119c5826001611e01565b6119d182826001611ea2565b6119db828261237c565b60408051838152602081018390528151839285927f88eeccab290fa3695236eaa7ab0e67bf7edebbc2f497cab9fbd069a1c3eaf644929081900390910190a35050565b6000611a2b846001611d29565b611a36846001611e01565b5060005b81811015611a6f57611a6784848484818110611a5257fe5b90506020020135600160a060020a03166126f4565b600101611a3a565b60408051858152905185917f42b976a5690eab65ee7d8595ff5695453a372c6dab6642dc798ae601c75db07d919081900360200190a250505050565b611ab6836001611d29565b611ac1836001611e01565b611af88383838080602002602001604051908101604052809392919081815260200183836020028082843750612876945050505050565b60408051848152905184917f42b976a5690eab65ee7d8595ff5695453a372c6dab6642dc798ae601c75db07d919081900360200190a2505050565b611b3e826001611d29565b611b49826000611e01565b6000828152600160208181526040928390209091018054600160a060020a031916600160a060020a0385161790558151848152915184927f42b976a5690eab65ee7d8595ff5695453a372c6dab6642dc798ae601c75db07d92908290030190a25050565b6000828152600160205260408120548190819060609081901515611bd45760009450610cf7565b60008781526001602090815260408083208984526007019091529020541515611c005760009450610cf7565b60008781526001602081815260408084208a85526007018252928390208083015460029182018054865160001982881615610100020190911693909304601f81018590048502840185019096528583529399508a985096509290830182828015611cab5780601f10611c8057610100808354040283529160200191611cab565b820191906000526020600020905b815481529060010190602001808311611c8e57829003601f168201915b50505060008a81526001602090815260408083208c845260070182529182902060030180548351818402810184019094528084529597509194919350909150830182828015610cef576020028201919060005260206000209081548152600190910190602001808311610cda57505050505090509295509295909350565b8015611d99576000828152600160205260409020541515611d94576040805160e560020a62461bcd02815260206004820152601260248201527f6f726720646f6573206e6f742065786973740000000000000000000000000000604482015290519081900360640190fd5b611dfd565b60008281526001602052604090205415611dfd576040805160e560020a62461bcd02815260206004820152601260248201527f6f726720616c7265616479206578697374730000000000000000000000000000604482015290519081900360640190fd5b5050565b60008281526001602081905260409091200154600160a060020a0316331480611e4c5750808015611e4c57506000828152600160209081526040808320338452600301909152812054115b1515611dfd576040805160e560020a62461bcd02815260206004820152601760248201527f756e617574686f72697a656420696e766f636174696f6e000000000000000000604482015290519081900360640190fd5b8015611f205760008381526001602090815260408083208584526006019091529020541515611f1b576040805160e560020a62461bcd02815260206004820152601660248201527f7365727669636520646f6573206e6f7420657869737400000000000000000000604482015290519081900360640190fd5b611f92565b600083815260016020908152604080832085845260060190915290205415611f92576040805160e560020a62461bcd02815260206004820152601660248201527f7365727669636520616c72656164792065786973747300000000000000000000604482015290519081900360640190fd5b505050565b600083815260016020908152604080832085845260060182528083208484526004019091528120548190819081908190156122875760008881526001602081815260408084208b85526006018083528185208b865260048101845291852090930154938b9052919052600301805491965090600019810190811061201757fe5b60009182526020808320909101548a83526001825260408084208b85526006019092529120600301549094506000190185146120b55760008881526001602090815260408083208a8452600601909152902060030180548591908790811061207b57fe5b6000918252602080832090910192909255898152600180835260408083208b84526006018452808320888452600401909352919020018590555b60008881526001602090815260408083208a845260060190915290206003018054906120e5906000198301613010565b5060008881526001602081815260408084208b855260060182528084208a855260049081018352818520600201549252909220015490955060001901925082851461220c57600086815260046020526040902060010180548490811061214757fe5b6000918252602080832090910154888352600490915260409091206002018054919350908490811061217557fe5b60009182526020808320909101548883526004909152604090912060010180549192508391879081106121a457fe5b60009182526020808320909101929092558781526004909152604090206002018054829190879081106121d357fe5b60009182526020808320909101929092558381526001825260408082208483526006018352808220898352600401909252206002018590555b600086815260046020526040902060010180549061222e906000198301613010565b506000868152600460205260409020600201805490612251906000198301613010565b5060008881526001602081815260408084208b855260060182528084208a85526004019091528220828155908101829055600201555b5050505050505050565b801561230a5760008381526001602090815260408083208584526007019091529020541515611f1b576040805160e560020a62461bcd02815260206004820152601860248201527f74797065207265706f20646f6573206e6f742065786973740000000000000000604482015290519081900360640190fd5b600083815260016020908152604080832085845260070190915290205415611f92576040805160e560020a62461bcd02815260206004820152601860248201527f74797065207265706f20616c7265616479206578697374730000000000000000604482015290519081900360640190fd5b600082815260016020908152604080832084845260060190915281206003015490805b60008311156123fc576000858152600160209081526040808320878452600601909152902060030180546123f091879187919060001988019081106123e057fe5b9060005260206000200154611f97565b6000199092019161239f565b60008581526001602081815260408084208885526006810183529084206005015493899052919052600401805491935090600019810190811061243b57fe5b600091825260208083209091015487835260019091526040909120600401805491925082918490811061246a57fe5b600091825260209091200154146124c957600085815260016020526040902060040180548291908490811061249b57fe5b6000918252602080832090910192909255868152600182526040808220848352600601909252206005018290555b60008581526001602052604090206004018054906124eb906000198301613010565b5060008581526001602081815260408084208885526006019091528220828155908101829055600281018054600160a060020a0319169055906125316003830182613034565b600582016000905550505050505050565b600082815260016020908152604080832084845260070190915281206003015490805b60008311156125c2576000858152600160209081526040808320878452600701909152902060030180546125b691879187919060001988019081106125a657fe5b9060005260206000200154612c98565b60001990920191612565565b6000858152600160208181526040808420888552600781018352908420600590810154948a90529290915201805491935090600019810190811061260257fe5b600091825260208083209091015487835260019091526040909120600501805491925082918490811061263157fe5b6000918252602090912001541461269057600085815260016020526040902060050180548291908490811061266257fe5b6000918252602080832090910192909255868152600182526040808220848352600701909252206005018290555b60008581526001602052604090206005018054906126b2906000198301613010565b5060008581526001602081815260408084208885526007019091528220828155908101829055906126e66002830182613207565b612531600383016000613034565b6000828152600160209081526040808320600160a060020a0385168452600301909152812054819015612870576000848152600160208181526040808420600160a060020a03881685526003810183529084205493889052919052600201805491935090600019810190811061276657fe5b6000918252602080832090910154868352600190915260409091206002018054600160a060020a039092169250829160001985019081106127a357fe5b600091825260209091200154600160a060020a031614612826576000848152600160205260409020600201805482919060001985019081106127e157fe5b60009182526020808320919091018054600160a060020a031916600160a060020a03948516179055868252600181526040808320938516835260039093019052208290555b6000848152600160205260409020600201805490612848906000198301613010565b506000848152600160209081526040808320600160a060020a03871684526003019091528120555b50505050565b60005b8151811015611f925760008381526001602052604081208351600390910191908490849081106128a557fe5b90602001906020020151600160a060020a0316600160a060020a03168152602001908152602001600020546000141561298157600083815260016020526040902082516002909101908390839081106128fa57fe5b60209081029190910181015182546001808201855560009485528385209091018054600160a060020a031916600160a060020a03909316929092179091558583529052604081206002810154845190926003909201919085908590811061295d57fe5b6020908102909101810151600160a060020a03168252810191909152604001600020555b600101612879565b61299161324b565b61299961326b565b600085815260016020908152604080832087845260070182528083208684526004019091529020541515612b0c5760008581526001602081815260408084208885526007018252808420878552600481018352818520878401518186019081558884015160028301908155918a9055600390920180549092556005845291852080850154909255805493840181558452908320909101859055908490525460ff161515612ad157600180825260008481526005602090815260409091208351815460ff191690151517815581840151805185949293612a7c9385019201906130f9565b5060408201518051612a989160028401916020909101906130f9565b5050600380546001810182556000919091527fc2575a0e9e593c00f959f8c92f12db2869c3395a3b0502d05e2516446f71f85b01849055505b600083815260056020908152604082206001808201805480830182559085528385200189905560029091018054918201815583529120018490555b5050505050565b612b1b61324b565b612b2361326b565b600085815260016020908152604080832087845260060182528083208684526004019091529020541515612b0c576000858152600160208181526040808420888552600601825280842087855260048082018452828620888501518187019081558985015160028301908155918b90556003909301805490935590845291852080850154909255805493840181558452908320909101859055908490525460ff161515612c5b57600180825260008481526004602090815260409091208351815460ff191690151517815581840151805185949293612c069385019201906130f9565b5060408201518051612c229160028401916020909101906130f9565b5050600280546001810182556000919091527f405787fa12a823e0f2b7631cc41b3ba8828b3321ca811111fa75cd3aa3bb5ace01849055505b5050600090815260046020908152604082206001808201805480830182559085528385200195909555600201805494850181558252902090910155565b600083815260016020908152604080832085845260070182528083208484526004019091528120548190819081908190156122875760008881526001602081815260408084208b85526007018083528185208b865260048101845291852090930154938b90529190526003018054919650906000198101908110612d1857fe5b60009182526020808320909101548a83526001825260408084208b8552600701909252912060030154909450600019018514612db65760008881526001602090815260408083208a84526007019091529020600301805485919087908110612d7c57fe5b6000918252602080832090910192909255898152600180835260408083208b84526007018452808320888452600401909352919020018590555b60008881526001602090815260408083208a84526007019091529020600301805490612de6906000198301613010565b5060008881526001602081815260408084208b855260070182528084208a855260040182528084206002015460059092529092200154909550600019019250828514612f0e576000868152600560205260409020600101805484908110612e4957fe5b60009182526020808320909101548883526005909152604090912060020180549193509084908110612e7757fe5b6000918252602080832090910154888352600590915260409091206001018054919250839187908110612ea657fe5b6000918252602080832090910192909255878152600590915260409020600201805482919087908110612ed557fe5b60009182526020808320909101929092558381526001825260408082208483526007018352808220898352600401909252206002018590555b6000868152600560205260409020600101805490612f30906000198301613010565b506000868152600560205260409020600201805490612f53906000198301613010565b5060008881526001602081815260408084208b855260070182528084208a85526004019091528220828155908101829055600201555050505050505050565b828054600181600116156101000203166002900490600052602060002090601f016020900481019282601f10612fd35782800160ff19823516178555613000565b82800160010185558215613000579182015b82811115613000578235825591602001919060010190612fe5565b5061300c92915061328f565b5090565b815481835581811115611f9257600083815260209020611f9291810190830161328f565b5080546000825590600052602060002090810190613052919061328f565b50565b60c060405190810160405280600080191681526020016000600160a060020a03168152602001606081526020016060815260200160608152602001600081525090565b8280548282559060005260206000209081019282156130ed579160200282015b828111156130ed5782518254600160a060020a031916600160a060020a039091161782556020909201916001909101906130b8565b5061300c9291506132a9565b828054828255906000526020600020908101928215613000579160200282015b828111156130005782518255602090920191600190910190613119565b60a06040519081016040528060008019168152602001600080191681526020016060815260200160608152602001600081525090565b828054600181600116156101000203166002900490600052602060002090601f016020900481019282601f106131ad57805160ff1916838001178555613000565b82800160010185558215613000579182015b828111156130005782518255916020019190600101906131bf565b6040805160a081018252600080825260208201819052918101829052606080820152608081019190915290565b50805460018160011615610100020316600290046000825580601f1061322d5750613052565b601f016020900490600052602060002090810190613052919061328f565b604080516060810182526000808252602082018190529181019190915290565b60606040519081016040528060001515815260200160608152602001606081525090565b610b8b91905b8082111561300c5760008155600101613295565b610b8b91905b8082111561300c578054600160a060020a03191681556001016132af5600a165627a7a72305820f2aa40178277a9f194ec4344fab8468c57a6a71c702970d38241d0d992778dcd0029",
  "source": "pragma solidity ^0.4.24;\n\nimport \"openzeppelin-solidity/contracts/introspection/ERC165.sol\";\nimport \"./IRegistry.sol\";\n\ncontract Registry is IRegistry, ERC165 {\n\n    struct OrganizationRegistration {\n        bytes32 organizationName;\n        address owner;\n\n        // member indexing note:\n        // case (members[someAddress]) of\n        //   0 -> not a member of this org\n        //   n -> member of this org, and memberKeys[n-1] == someAddress\n        address[] memberKeys;\n        mapping(address => uint) members;\n\n        bytes32[] serviceKeys;\n        bytes32[] typeRepoKeys;\n        mapping(bytes32 => ServiceRegistration) servicesByName;\n        mapping(bytes32 => TypeRepositoryRegistration) typeReposByName;\n\n        uint globalOrgIndex;\n    }\n\n    struct ServiceRegistration {\n        bytes32 serviceName;\n        bytes32 servicePath;\n        address agentAddress;\n\n        bytes32[] tags;\n        mapping(bytes32 => Tag) tagsByName;\n\n        uint orgServiceIndex;\n    }\n\n    struct TypeRepositoryRegistration {\n        bytes32 repositoryName;\n        bytes32 repositoryPath;\n        bytes repositoryURI;\n\n        bytes32[] tags;\n        mapping(bytes32 => Tag) tagsByName;\n\n        uint orgTypeRepoIndex;\n    }\n\n    struct Tag {\n        bytes32 tagName;\n        uint itemTagIndex;\n        uint globalTagIndex;\n    }\n\n    struct ServiceOrTypeRepositoryList {\n        bool valid;\n        bytes32[] orgNames;\n        bytes32[] itemNames;\n    }\n\n    bytes32[] orgKeys;\n    mapping(bytes32 => OrganizationRegistration) orgsByName;\n\n    bytes32[] serviceTags;\n    bytes32[] typeRepoTags;\n    mapping(bytes32 => ServiceOrTypeRepositoryList) servicesByTag;\n    mapping(bytes32 => ServiceOrTypeRepositoryList) typeReposByTag;\n\n    /**\n      * @dev Guard function that forces a revert if the tx sender is unauthorized.\n      *      Always authorizes org owner. Can also authorize org members.\n      *\n      * @param membersAllowed if true, revert when sender is non-owner and non-member, else revert when sender is non-owner\n      */\n    function requireAuthorization(bytes32 orgName, bool membersAllowed) internal view {\n        require(msg.sender == orgsByName[orgName].owner || (membersAllowed && orgsByName[orgName].members[msg.sender] > 0)\n            , \"unauthorized invocation\");\n    }\n\n    /**\n      * @dev Guard function that forces a revert if the referenced org does not meet an existence criteria.\n      *\n      * @param exists if true, revert when org does not exist, else revert when org exists\n      */\n    function requireOrgExistenceConstraint(bytes32 orgName, bool exists) internal view {\n        if (exists) {\n            require(orgsByName[orgName].organizationName != bytes32(0x0), \"org does not exist\");\n        } else {\n            require(orgsByName[orgName].organizationName == bytes32(0x0), \"org already exists\");\n        }\n    }\n\n    /**\n      * @dev Guard function that forces a revert if the referenced service does not meet an existence criteria.\n      *\n      * @param exists if true, revert when service does not exist, else revert when service exists\n      */\n    function requireServiceExistenceConstraint(bytes32 orgName, bytes32 serviceName, bool exists) internal view {\n        if (exists) {\n            require(orgsByName[orgName].servicesByName[serviceName].serviceName != bytes32(0x0), \"service does not exist\");\n        } else {\n            require(orgsByName[orgName].servicesByName[serviceName].serviceName == bytes32(0x0), \"service already exists\");\n        }\n    }\n\n    /**\n      * @dev Guard function that forces a revert if the referenced type repository does not meet an existence criteria.\n      *\n      * @param exists if true, revert when type repo does not exist, else revert when type repo exists\n      */\n    function requireTypeRepositoryExistenceConstraint(bytes32 orgName, bytes32 repositoryName, bool exists) internal view {\n        if (exists) {\n            require(orgsByName[orgName].typeReposByName[repositoryName].repositoryName != bytes32(0x0), \"type repo does not exist\");\n        } else {\n            require(orgsByName[orgName].typeReposByName[repositoryName].repositoryName == bytes32(0x0), \"type repo already exists\");\n        }\n    }\n\n    //    ___                        _          _   _                   __  __                 _\n    //   / _ \\ _ __ __ _  __ _ _ __ (_)______ _| |_(_) ___  _ __       |  \\/  | __ _ _ __ ___ | |_\n    //  | | | | '__/ _` |/ _` | '_ \\| |_  / _` | __| |/ _ \\| '_ \\      | |\\/| |/ _` | '_ ` _ \\| __|\n    //  | |_| | | | (_| | (_| | | | | |/ / (_| | |_| | (_) | | | |     | |  | | (_| | | | | | | |_\n    //   \\___/|_|  \\__, |\\__,_|_| |_|_/___\\__,_|\\__|_|\\___/|_| |_|     |_|  |_|\\__, |_| |_| |_|\\__|\n    //             |___/                                                       |___/\n\n    function createOrganization(bytes32 orgName, address[] members) external {\n\n        requireOrgExistenceConstraint(orgName, false);\n\n        OrganizationRegistration memory organization;\n        orgsByName[orgName] = organization;\n        orgsByName[orgName].organizationName = orgName;\n        orgsByName[orgName].owner = msg.sender;\n        orgsByName[orgName].globalOrgIndex = orgKeys.length;\n        orgKeys.push(orgName);\n\n        addOrganizationMembersInternal(orgName, members);\n\n        emit OrganizationCreated(orgName, orgName);\n    }\n\n    function changeOrganizationOwner(bytes32 orgName, address newOwner) external {\n\n        requireOrgExistenceConstraint(orgName, true);\n        requireAuthorization(orgName, false);\n\n        orgsByName[orgName].owner = newOwner;\n\n        emit OrganizationModified(orgName, orgName);\n    }\n\n    function addOrganizationMembers(bytes32 orgName, address[] newMembers) external {\n\n        requireOrgExistenceConstraint(orgName, true);\n        requireAuthorization(orgName, true);\n\n        addOrganizationMembersInternal(orgName, newMembers);\n\n        emit OrganizationModified(orgName, orgName);\n    }\n\n    function addOrganizationMembersInternal(bytes32 orgName, address[] newMembers) internal {\n        for (uint i = 0; i < newMembers.length; i++) {\n            if (orgsByName[orgName].members[newMembers[i]] == 0) {\n                orgsByName[orgName].memberKeys.push(newMembers[i]);\n                orgsByName[orgName].members[newMembers[i]] = orgsByName[orgName].memberKeys.length;\n            }\n        }\n    }\n\n    function removeOrganizationMembers(bytes32 orgName, address[] existingMembers) external {\n\n        requireOrgExistenceConstraint(orgName, true);\n        requireAuthorization(orgName, true);\n\n        for (uint i = 0; i < existingMembers.length; i++) {\n            removeOrganizationMemberInternal(orgName, existingMembers[i]);\n        }\n\n        emit OrganizationModified(orgName, orgName);\n    }\n\n    function removeOrganizationMemberInternal(bytes32 orgName, address existingMember) internal {\n        // see \"member indexing note\"\n        if (orgsByName[orgName].members[existingMember] != 0) {\n            uint storedIndexToRemove = orgsByName[orgName].members[existingMember];\n            address memberToMove = orgsByName[orgName].memberKeys[orgsByName[orgName].memberKeys.length - 1];\n\n            // no-op if we are deleting the last entry\n            if (orgsByName[orgName].memberKeys[storedIndexToRemove - 1] != memberToMove) {\n                // swap lut entries\n                orgsByName[orgName].memberKeys[storedIndexToRemove - 1] = memberToMove;\n                orgsByName[orgName].members[memberToMove] = storedIndexToRemove;\n            }\n\n            // shorten keys array\n            orgsByName[orgName].memberKeys.length--;\n\n            // delete the mapping entry\n            delete orgsByName[orgName].members[existingMember];\n        }\n    }\n\n    function deleteOrganization(bytes32 orgName) external {\n\n        requireOrgExistenceConstraint(orgName, true);\n        requireAuthorization(orgName, false);\n\n        for (uint serviceIndex = orgsByName[orgName].serviceKeys.length; serviceIndex > 0; serviceIndex--) {\n            deleteServiceRegistrationInternal(orgName, orgsByName[orgName].serviceKeys[serviceIndex-1]);\n        }\n\n        for (uint repoIndex = orgsByName[orgName].typeRepoKeys.length; repoIndex > 0; repoIndex--) {\n            deleteTypeRepositoryRegistrationInternal(orgName, orgsByName[orgName].typeRepoKeys[repoIndex-1]);\n        }\n\n        for (uint memberIndex = orgsByName[orgName].memberKeys.length; memberIndex > 0; memberIndex--) {\n            removeOrganizationMemberInternal(orgName, orgsByName[orgName].memberKeys[memberIndex-1]);\n        }\n\n        // swap lut entries\n        uint    indexToUpdate = orgsByName[orgName].globalOrgIndex;\n        bytes32 orgToUpdate   = orgKeys[orgKeys.length-1];\n\n        if (orgKeys[indexToUpdate] != orgToUpdate) {\n            orgKeys[indexToUpdate] = orgToUpdate;\n            orgsByName[orgToUpdate].globalOrgIndex = indexToUpdate;\n        }\n\n        // shorten keys array\n        orgKeys.length--;\n\n        // delete contents of organization registration\n        delete orgsByName[orgName];\n\n        emit OrganizationDeleted(orgName, orgName);\n    }\n\n    //   ____                  _                __  __                 _\n    //  / ___|  ___ _ ____   ___) ___ ___      |  \\/  | __ _ _ __ ___ | |_\n    //  \\___ \\ / _ \\ '__\\ \\ / / |/ __/ _ \\     | |\\/| |/ _` | '_ ` _ \\| __|\n    //   ___) |  __/ |   \\ V /| | (__  __/     | |  | | (_| | | | | | | |_\n    //  |____/ \\___|_|    \\_/ |_|\\___\\___|     |_|  |_|\\__, |_| |_| |_|\\__|\n    //                                                 |___/\n\n    function createServiceRegistration(bytes32 orgName, bytes32 serviceName, bytes32 servicePath, address agentAddress, bytes32[] tags) external {\n\n        requireOrgExistenceConstraint(orgName, true);\n        requireAuthorization(orgName, true);\n        requireServiceExistenceConstraint(orgName, serviceName, false);\n\n        ServiceRegistration memory service;\n        orgsByName[orgName].servicesByName[serviceName] = service;\n        orgsByName[orgName].servicesByName[serviceName].serviceName = serviceName;\n        orgsByName[orgName].servicesByName[serviceName].servicePath = servicePath;\n        orgsByName[orgName].servicesByName[serviceName].agentAddress = agentAddress;\n        orgsByName[orgName].servicesByName[serviceName].orgServiceIndex = orgsByName[orgName].serviceKeys.length;\n        orgsByName[orgName].serviceKeys.push(serviceName);\n\n        for (uint i = 0; i < tags.length; i++) {\n            addTagToServiceRegistration(orgName, serviceName, tags[i]);\n        }\n\n        emit ServiceCreated(orgName, serviceName, orgName, serviceName);\n    }\n\n    function updateServiceRegistration(bytes32 orgName, bytes32 serviceName, bytes32 servicePath, address agentAddress) external {\n\n        requireOrgExistenceConstraint(orgName, true);\n        requireAuthorization(orgName, true);\n        requireServiceExistenceConstraint(orgName, serviceName, true);\n\n        // update the servicePath and agentAddress\n        orgsByName[orgName].servicesByName[serviceName].servicePath = servicePath;\n        orgsByName[orgName].servicesByName[serviceName].agentAddress = agentAddress;\n\n        emit ServiceModified(orgName, serviceName, orgName, serviceName);\n    }\n\n    function addTagsToServiceRegistration(bytes32 orgName, bytes32 serviceName, bytes32[] tags) external {\n\n        requireOrgExistenceConstraint(orgName, true);\n        requireAuthorization(orgName, true);\n        requireServiceExistenceConstraint(orgName, serviceName, true);\n\n        for (uint i = 0; i < tags.length; i++) {\n            addTagToServiceRegistration(orgName, serviceName, tags[i]);\n        }\n\n        emit ServiceModified(orgName, serviceName, orgName, serviceName);\n    }\n\n    function addTagToServiceRegistration(bytes32 orgName, bytes32 serviceName, bytes32 tagName) internal {\n\n        // no-op if tag already exists\n        if (orgsByName[orgName].servicesByName[serviceName].tagsByName[tagName].tagName == bytes32(0x0)) {\n            // add the tag to the service level tag index\n            Tag memory tagObj;\n            orgsByName[orgName].servicesByName[serviceName].tagsByName[tagName] = tagObj;\n            orgsByName[orgName].servicesByName[serviceName].tagsByName[tagName].tagName = tagName;\n            orgsByName[orgName].servicesByName[serviceName].tagsByName[tagName].itemTagIndex = orgsByName[orgName].servicesByName[serviceName].tags.length;\n            orgsByName[orgName].servicesByName[serviceName].tagsByName[tagName].globalTagIndex = servicesByTag[tagName].orgNames.length;\n            orgsByName[orgName].servicesByName[serviceName].tags.push(tagName);\n\n            // add the service to the global tag index creating a list object for this tag if it does not already exist\n            if (!servicesByTag[tagName].valid) {\n                ServiceOrTypeRepositoryList memory listObj;\n                listObj.valid = true;\n                servicesByTag[tagName] = listObj;\n                serviceTags.push(tagName);\n            }\n\n            servicesByTag[tagName].orgNames.push(orgName);\n            servicesByTag[tagName].itemNames.push(serviceName);\n        }\n    }\n\n    function removeTagsFromServiceRegistration(bytes32 orgName, bytes32 serviceName, bytes32[] tags) external {\n\n        requireOrgExistenceConstraint(orgName, true);\n        requireAuthorization(orgName, true);\n        requireServiceExistenceConstraint(orgName, serviceName, true);\n\n        for (uint i = 0; i < tags.length; i++) {\n            removeTagFromServiceRegistration(orgName, serviceName, tags[i]);\n        }\n\n        emit ServiceModified(orgName, serviceName, orgName, serviceName);\n    }\n\n    function removeTagFromServiceRegistration(bytes32 orgName, bytes32 serviceName, bytes32 tagName) internal {\n\n        // no-op if tag does not exist\n        if (orgsByName[orgName].servicesByName[serviceName].tagsByName[tagName].tagName != bytes32(0x0)) {\n\n            // swap service registration lut entries\n            uint tagIndexToReplace = orgsByName[orgName].servicesByName[serviceName].tagsByName[tagName].itemTagIndex;\n            bytes32 tagNameToMove = orgsByName[orgName].servicesByName[serviceName].tags[orgsByName[orgName].servicesByName[serviceName].tags.length-1];\n\n            // no-op if we are deleting the last item\n            if (tagIndexToReplace != orgsByName[orgName].servicesByName[serviceName].tags.length-1) {\n                orgsByName[orgName].servicesByName[serviceName].tags[tagIndexToReplace] = tagNameToMove;\n                orgsByName[orgName].servicesByName[serviceName].tagsByName[tagNameToMove].itemTagIndex = tagIndexToReplace;\n            }\n\n            orgsByName[orgName].servicesByName[serviceName].tags.length--;\n\n            // swap global tag index lut entries\n            tagIndexToReplace = orgsByName[orgName].servicesByName[serviceName].tagsByName[tagName].globalTagIndex;\n            uint tagIndexToMove = servicesByTag[tagName].orgNames.length-1;\n\n            // no-op if we are deleting the last item\n            if (tagIndexToMove != tagIndexToReplace) {\n                bytes32 orgNameToMove  = servicesByTag[tagName].orgNames[tagIndexToMove];\n                bytes32 itemNameToMove = servicesByTag[tagName].itemNames[tagIndexToMove];\n\n                servicesByTag[tagName].orgNames[tagIndexToReplace] = orgNameToMove;\n                servicesByTag[tagName].itemNames[tagIndexToReplace] = itemNameToMove;\n\n                orgsByName[orgNameToMove].servicesByName[itemNameToMove].tagsByName[tagName].globalTagIndex = tagIndexToReplace;\n            }\n\n            servicesByTag[tagName].orgNames.length--;\n            servicesByTag[tagName].itemNames.length--;\n\n            // delete contents of the tag entry\n            delete orgsByName[orgName].servicesByName[serviceName].tagsByName[tagName];\n        }\n    }\n\n    function deleteServiceRegistration(bytes32 orgName, bytes32 serviceName) external {\n\n        requireOrgExistenceConstraint(orgName, true);\n        requireAuthorization(orgName, true);\n        requireServiceExistenceConstraint(orgName, serviceName, true);\n\n        deleteServiceRegistrationInternal(orgName, serviceName);\n\n        emit ServiceDeleted(orgName, serviceName, orgName, serviceName);\n    }\n\n    function deleteServiceRegistrationInternal(bytes32 orgName, bytes32 serviceName) internal {\n        // delete the tags associated with the service\n        for (uint i = orgsByName[orgName].servicesByName[serviceName].tags.length; i > 0; i--) {\n            removeTagFromServiceRegistration(orgName, serviceName, orgsByName[orgName].servicesByName[serviceName].tags[i-1]);\n        }\n\n        // swap lut entries\n        uint    indexToUpdate   = orgsByName[orgName].servicesByName[serviceName].orgServiceIndex;\n        bytes32 serviceToUpdate = orgsByName[orgName].serviceKeys[orgsByName[orgName].serviceKeys.length-1];\n\n        if (orgsByName[orgName].serviceKeys[indexToUpdate] != serviceToUpdate) {\n            orgsByName[orgName].serviceKeys[indexToUpdate] = serviceToUpdate;\n            orgsByName[orgName].servicesByName[serviceToUpdate].orgServiceIndex = indexToUpdate;\n        }\n\n        orgsByName[orgName].serviceKeys.length--;\n\n        // delete contents of service registration\n        delete orgsByName[orgName].servicesByName[serviceName];\n    }\n\n    //   _____                        ____                        __  __                 _\n    //  |_   _|   _ _ __   ___       |  _ \\ ___ _ __   ___       |  \\/  | __ _ _ __ ___ | |_\n    //    | || | | | '_ \\ / _ \\      | |_) / _ \\ '_ \\ / _ \\      | |\\/| |/ _` | '_ ` _ \\| __|\n    //    | || |_| | |_) |  __/      |  _ <  __/ |_) | (_) |     | |  | | (_| | | | | | | |_\n    //    |_| \\__, | .__/ \\___|      |_| \\_\\___| .__/ \\___/      |_|  |_|\\__, |_| |_| |_|\\__|\n    //        |___/|_|                         |_|                       |___/\n\n    function createTypeRepositoryRegistration(bytes32 orgName, bytes32 repositoryName, bytes32 repositoryPath,\n            bytes repositoryURI, bytes32[] tags) external {\n\n        requireOrgExistenceConstraint(orgName, true);\n        requireAuthorization(orgName, true);\n        requireTypeRepositoryExistenceConstraint(orgName, repositoryName, false);\n\n        TypeRepositoryRegistration memory typeRepo;\n        orgsByName[orgName].typeReposByName[repositoryName] = typeRepo;\n        orgsByName[orgName].typeReposByName[repositoryName].repositoryName = repositoryName;\n        orgsByName[orgName].typeReposByName[repositoryName].repositoryPath = repositoryPath;\n        orgsByName[orgName].typeReposByName[repositoryName].repositoryURI = repositoryURI;\n        orgsByName[orgName].typeReposByName[repositoryName].orgTypeRepoIndex = orgsByName[orgName].typeRepoKeys.length;\n        orgsByName[orgName].typeRepoKeys.push(repositoryName);\n\n        for (uint i = 0; i < tags.length; i++) {\n            addTagToTypeRepositoryRegistration(orgName, repositoryName, tags[i]);\n        }\n\n        emit TypeRepositoryCreated(orgName, repositoryName, orgName, repositoryName);\n    }\n\n    function updateTypeRepositoryRegistration(bytes32 orgName, bytes32 repositoryName, bytes32 repositoryPath,\n        bytes repositoryURI) external {\n\n        requireOrgExistenceConstraint(orgName, true);\n        requireAuthorization(orgName, true);\n        requireTypeRepositoryExistenceConstraint(orgName, repositoryName, true);\n\n        orgsByName[orgName].typeReposByName[repositoryName].repositoryPath = repositoryPath;\n        orgsByName[orgName].typeReposByName[repositoryName].repositoryURI = repositoryURI;\n\n        emit TypeRepositoryModified(orgName, repositoryName, orgName, repositoryName);\n    }\n\n    function addTagsToTypeRepositoryRegistration(bytes32 orgName, bytes32 repositoryName, bytes32[] tags) external {\n\n        requireOrgExistenceConstraint(orgName, true);\n        requireAuthorization(orgName, true);\n        requireTypeRepositoryExistenceConstraint(orgName, repositoryName, true);\n\n        for (uint i = 0; i < tags.length; i++) {\n            addTagToTypeRepositoryRegistration(orgName, repositoryName, tags[i]);\n        }\n\n        emit TypeRepositoryModified(orgName, repositoryName, orgName, repositoryName);\n    }\n\n    function addTagToTypeRepositoryRegistration(bytes32 orgName, bytes32 repositoryName, bytes32 tagName) internal {\n\n        // no-op if tag already exists\n        if (orgsByName[orgName].typeReposByName[repositoryName].tagsByName[tagName].tagName == bytes32(0x0)) {\n            // add the tag to the type repository level tag index\n            Tag memory tagObj;\n            orgsByName[orgName].typeReposByName[repositoryName].tagsByName[tagName] = tagObj;\n            orgsByName[orgName].typeReposByName[repositoryName].tagsByName[tagName].tagName = tagName;\n            orgsByName[orgName].typeReposByName[repositoryName].tagsByName[tagName].itemTagIndex = orgsByName[orgName].typeReposByName[repositoryName].tags.length;\n            orgsByName[orgName].typeReposByName[repositoryName].tagsByName[tagName].globalTagIndex = typeReposByTag[tagName].orgNames.length;\n            orgsByName[orgName].typeReposByName[repositoryName].tags.push(tagName);\n\n            // add the type repository to the global tag index creating a list object for this tag if it does not already exist\n            if (!typeReposByTag[tagName].valid) {\n                ServiceOrTypeRepositoryList memory listObj;\n                listObj.valid = true;\n                typeReposByTag[tagName] = listObj;\n                typeRepoTags.push(tagName);\n            }\n            typeReposByTag[tagName].orgNames.push(orgName);\n            typeReposByTag[tagName].itemNames.push(repositoryName);\n        }\n    }\n\n    function removeTagsFromTypeRepositoryRegistration(bytes32 orgName, bytes32 repositoryName, bytes32[] tags) external {\n\n        requireOrgExistenceConstraint(orgName, true);\n        requireAuthorization(orgName, true);\n        requireTypeRepositoryExistenceConstraint(orgName, repositoryName, true);\n\n        for (uint i = 0; i < tags.length; i++) {\n            removeTagFromTypeRepositoryRegistration(orgName, repositoryName, tags[i]);\n        }\n\n        emit TypeRepositoryModified(orgName, repositoryName, orgName, repositoryName);\n    }\n\n    function removeTagFromTypeRepositoryRegistration(bytes32 orgName, bytes32 repositoryName, bytes32 tagName) internal {\n\n        // no-op if tag doesnt exist\n        if (orgsByName[orgName].typeReposByName[repositoryName].tagsByName[tagName].tagName != bytes32(0x0)) {\n\n            // swap type repository registration lut entries\n            uint tagIndexToReplace = orgsByName[orgName].typeReposByName[repositoryName].tagsByName[tagName].itemTagIndex;\n            bytes32 tagNameToMove = orgsByName[orgName].typeReposByName[repositoryName].tags[orgsByName[orgName].typeReposByName[repositoryName].tags.length-1];\n\n            // no-op if we are deleting the last item\n            if (tagIndexToReplace != orgsByName[orgName].typeReposByName[repositoryName].tags.length-1) {\n\n                orgsByName[orgName].typeReposByName[repositoryName].tags[tagIndexToReplace] = tagNameToMove;\n                orgsByName[orgName].typeReposByName[repositoryName].tagsByName[tagNameToMove].itemTagIndex = tagIndexToReplace;\n            }\n\n            orgsByName[orgName].typeReposByName[repositoryName].tags.length--;\n\n            // swap global tag index lut entries\n            tagIndexToReplace = orgsByName[orgName].typeReposByName[repositoryName].tagsByName[tagName].globalTagIndex;\n            uint tagIndexToMove = typeReposByTag[tagName].orgNames.length-1;\n\n            // no-op if we are deleting the last item\n            if (tagIndexToMove != tagIndexToReplace) {\n                bytes32 orgNameToMove  = typeReposByTag[tagName].orgNames[tagIndexToMove];\n                bytes32 repoNameToMove = typeReposByTag[tagName].itemNames[tagIndexToMove];\n\n                typeReposByTag[tagName].orgNames[tagIndexToReplace]  = orgNameToMove;\n                typeReposByTag[tagName].itemNames[tagIndexToReplace] = repoNameToMove;\n\n                orgsByName[orgNameToMove].typeReposByName[repoNameToMove].tagsByName[tagName].globalTagIndex = tagIndexToReplace;\n            }\n\n            typeReposByTag[tagName].orgNames.length--;\n            typeReposByTag[tagName].itemNames.length--;\n\n            // delete contents of the tag entry\n            delete orgsByName[orgName].typeReposByName[repositoryName].tagsByName[tagName];\n        }\n    }\n\n    function deleteTypeRepositoryRegistration(bytes32 orgName, bytes32 repositoryName) external {\n\n        requireOrgExistenceConstraint(orgName, true);\n        requireAuthorization(orgName, true);\n        requireTypeRepositoryExistenceConstraint(orgName, repositoryName, true);\n\n        deleteTypeRepositoryRegistrationInternal(orgName, repositoryName);\n\n        emit TypeRepositoryDeleted(orgName, repositoryName, orgName, repositoryName);\n    }\n\n    function deleteTypeRepositoryRegistrationInternal(bytes32 orgName, bytes32 repositoryName) internal {\n\n        // delete the tags associated with the type repo\n        for (uint i = orgsByName[orgName].typeReposByName[repositoryName].tags.length; i > 0; i--) {\n            removeTagFromTypeRepositoryRegistration(orgName, repositoryName, orgsByName[orgName].typeReposByName[repositoryName].tags[i-1]);\n        }\n\n        // swap lut entries\n        uint    indexToUpdate    = orgsByName[orgName].typeReposByName[repositoryName].orgTypeRepoIndex;\n        bytes32 typeRepoToUpdate = orgsByName[orgName].typeRepoKeys[orgsByName[orgName].typeRepoKeys.length-1];\n\n        // no-op if we are deleting the last item\n        if (orgsByName[orgName].typeRepoKeys[indexToUpdate] != typeRepoToUpdate) {\n            orgsByName[orgName].typeRepoKeys[indexToUpdate] = typeRepoToUpdate;\n            orgsByName[orgName].typeReposByName[typeRepoToUpdate].orgTypeRepoIndex = indexToUpdate;\n        }\n\n        orgsByName[orgName].typeRepoKeys.length--;\n\n        // delete contents of repo registration\n        delete orgsByName[orgName].typeReposByName[repositoryName];\n    }\n\n    //    ____      _   _\n    //   / ___| ___| |_| |_ ___ _ __ ___\n    //  | |  _ / _ \\ __| __/ _ \\ '__/ __|\n    //  | |_| |  __/ |_| |_  __/ |  \\__ \\\n    //   \\____|\\___|\\__|\\__\\___|_|  |___/\n    //\n\n    function listOrganizations() external view returns (bytes32[] orgNames) {\n        return orgKeys;\n    }\n\n    function getOrganizationByName(bytes32 orgName) external view\n            returns(bool found, bytes32 name, address owner, address[] members, bytes32[] serviceNames, bytes32[] repositoryNames) {\n\n        // check to see if this organization exists\n        if(orgsByName[orgName].organizationName == bytes32(0x0)) {\n            found = false;\n            return;\n        }\n\n        found = true;\n        name = orgsByName[orgName].organizationName;\n        owner = orgsByName[orgName].owner;\n        members = orgsByName[orgName].memberKeys;\n        serviceNames = orgsByName[orgName].serviceKeys;\n        repositoryNames = orgsByName[orgName].typeRepoKeys;\n    }\n\n    function listServicesForOrganization(bytes32 orgName) external view returns (bool found, bytes32[] serviceNames) {\n\n        // check to see if this organization exists\n        if(orgsByName[orgName].organizationName == bytes32(0x0)) {\n            found = false;\n            return;\n        }\n\n        found = true;\n        serviceNames = orgsByName[orgName].serviceKeys;\n    }\n\n    function getServiceRegistrationByName(bytes32 orgName, bytes32 serviceName) external view\n            returns (bool found, bytes32 name, bytes32 path, address agentAddress, bytes32[] tags) {\n\n        // check to see if this organization exists\n        if(orgsByName[orgName].organizationName == bytes32(0x0)) {\n            found = false;\n            return;\n        }\n\n        // check to see if this repo exists\n        if(orgsByName[orgName].servicesByName[serviceName].serviceName == bytes32(0x0)) {\n            found = false;\n            return;\n        }\n\n        found = true;\n        name = orgsByName[orgName].servicesByName[serviceName].serviceName;\n        path = orgsByName[orgName].servicesByName[serviceName].servicePath;\n        agentAddress = orgsByName[orgName].servicesByName[serviceName].agentAddress;\n        tags = orgsByName[orgName].servicesByName[serviceName].tags;\n    }\n\n    function listTypeRepositoriesForOrganization(bytes32 orgName) external view returns (bool found, bytes32[] repositoryNames) {\n\n        // check to see if this organization exists\n        if(orgsByName[orgName].organizationName == bytes32(0x0)) {\n            found = false;\n            return;\n        }\n\n        found = true;\n        repositoryNames = orgsByName[orgName].typeRepoKeys;\n    }\n\n    function getTypeRepositoryByName(bytes32 orgName, bytes32 repositoryName) external view\n            returns (bool found, bytes32 name, bytes32 path, bytes uri, bytes32[] tags) {\n\n        // check to see if this organization exists\n        if(orgsByName[orgName].organizationName == bytes32(0x0)) {\n            found = false;\n            return;\n        }\n\n        // check to see if this repo exists\n        if(orgsByName[orgName].typeReposByName[repositoryName].repositoryName == bytes32(0x0)) {\n            found = false;\n            return;\n        }\n\n        found = true;\n        name = repositoryName;\n        path = orgsByName[orgName].typeReposByName[repositoryName].repositoryPath;\n        uri = orgsByName[orgName].typeReposByName[repositoryName].repositoryURI;\n        tags = orgsByName[orgName].typeReposByName[repositoryName].tags;\n    }\n\n    function listServiceTags() external view returns (bytes32[] tags) {\n        return serviceTags;\n    }\n\n    function listServicesForTag(bytes32 tag) external view returns (bytes32[] orgNames, bytes32[] serviceNames) {\n        orgNames = servicesByTag[tag].orgNames;\n        serviceNames = servicesByTag[tag].itemNames;\n    }\n\n    function listTypeRepositoryTags() external view returns (bytes32[] tags) {\n        return typeRepoTags;\n    }\n\n    function listTypeRepositoriesForTag(bytes32 tag) external view returns (bytes32[] orgNames, bytes32[] repositoryNames) {\n        orgNames = typeReposByTag[tag].orgNames;\n        repositoryNames = typeReposByTag[tag].itemNames;\n    }\n\n    // ERC165: https://eips.ethereum.org/EIPS/eip-165\n    function supportsInterface(bytes4 interfaceID) external view returns (bool) {\n        return\n            interfaceID == this.supportsInterface.selector || // ERC165\n            interfaceID == 0xbd523993; // IRegistry\n    }\n}\n",
  "sourcePath": "/Users/erickearns/Documents/repositories/erickearns/singnet-forks/alpha-blockchain/contracts/Registry.sol",
  "compiler": {
    "name": "solc",
    "version": "0.4.24+commit.e67f0147.Emscripten.clang"
  },
  "schemaVersion": "2.0.1",
  "updatedAt": "2018-07-19T23:30:21.579Z"
}