{
  "contractName": "Registry",
  "abi": [
    {
      "anonymous": false,
      "inputs": [
        {
          "indexed": true,
          "name": "orgId",
          "type": "bytes32"
        }
      ],
      "name": "OrganizationCreated",
      "type": "event"
    },
    {
      "anonymous": false,
      "inputs": [
        {
          "indexed": true,
          "name": "orgId",
          "type": "bytes32"
        }
      ],
      "name": "OrganizationModified",
      "type": "event"
    },
    {
      "anonymous": false,
      "inputs": [
        {
          "indexed": true,
          "name": "orgId",
          "type": "bytes32"
        }
      ],
      "name": "OrganizationDeleted",
      "type": "event"
    },
    {
      "anonymous": false,
      "inputs": [
        {
          "indexed": true,
          "name": "orgId",
          "type": "bytes32"
        },
        {
          "indexed": true,
          "name": "serviceId",
          "type": "bytes32"
        },
        {
          "indexed": false,
          "name": "metadataURI",
          "type": "bytes"
        }
      ],
      "name": "ServiceCreated",
      "type": "event"
    },
    {
      "anonymous": false,
      "inputs": [
        {
          "indexed": true,
          "name": "orgId",
          "type": "bytes32"
        },
        {
          "indexed": true,
          "name": "serviceId",
          "type": "bytes32"
        },
        {
          "indexed": false,
          "name": "metadataURI",
          "type": "bytes"
        }
      ],
      "name": "ServiceMetadataModified",
      "type": "event"
    },
    {
      "anonymous": false,
      "inputs": [
        {
          "indexed": true,
          "name": "orgId",
          "type": "bytes32"
        },
        {
          "indexed": true,
          "name": "serviceId",
          "type": "bytes32"
        }
      ],
      "name": "ServiceTagsModified",
      "type": "event"
    },
    {
      "anonymous": false,
      "inputs": [
        {
          "indexed": true,
          "name": "orgId",
          "type": "bytes32"
        },
        {
          "indexed": true,
          "name": "serviceId",
          "type": "bytes32"
        }
      ],
      "name": "ServiceDeleted",
      "type": "event"
    },
    {
      "anonymous": false,
      "inputs": [
        {
          "indexed": true,
          "name": "orgId",
          "type": "bytes32"
        },
        {
          "indexed": true,
          "name": "typeRepositoryId",
          "type": "bytes32"
        }
      ],
      "name": "TypeRepositoryCreated",
      "type": "event"
    },
    {
      "anonymous": false,
      "inputs": [
        {
          "indexed": true,
          "name": "orgId",
          "type": "bytes32"
        },
        {
          "indexed": true,
          "name": "typeRepositoryId",
          "type": "bytes32"
        }
      ],
      "name": "TypeRepositoryModified",
      "type": "event"
    },
    {
      "anonymous": false,
      "inputs": [
        {
          "indexed": true,
          "name": "orgId",
          "type": "bytes32"
        },
        {
          "indexed": true,
          "name": "typeRepositoryId",
          "type": "bytes32"
        }
      ],
      "name": "TypeRepositoryDeleted",
      "type": "event"
    },
    {
      "constant": false,
      "inputs": [
        {
          "name": "orgId",
          "type": "bytes32"
        },
        {
          "name": "orgName",
          "type": "bytes32"
        },
        {
          "name": "members",
          "type": "address[]"
        }
      ],
      "name": "createOrganization",
      "outputs": [],
      "payable": false,
      "stateMutability": "nonpayable",
      "type": "function"
    },
    {
      "constant": false,
      "inputs": [
        {
          "name": "orgId",
          "type": "bytes32"
        },
        {
          "name": "newOwner",
          "type": "address"
        }
      ],
      "name": "changeOrganizationOwner",
      "outputs": [],
      "payable": false,
      "stateMutability": "nonpayable",
      "type": "function"
    },
    {
      "constant": false,
      "inputs": [
        {
          "name": "orgId",
          "type": "bytes32"
        },
        {
          "name": "newMembers",
          "type": "address[]"
        }
      ],
      "name": "addOrganizationMembers",
      "outputs": [],
      "payable": false,
      "stateMutability": "nonpayable",
      "type": "function"
    },
    {
      "constant": false,
      "inputs": [
        {
          "name": "orgId",
          "type": "bytes32"
        },
        {
          "name": "existingMembers",
          "type": "address[]"
        }
      ],
      "name": "removeOrganizationMembers",
      "outputs": [],
      "payable": false,
      "stateMutability": "nonpayable",
      "type": "function"
    },
    {
      "constant": false,
      "inputs": [
        {
          "name": "orgId",
          "type": "bytes32"
        }
      ],
      "name": "deleteOrganization",
      "outputs": [],
      "payable": false,
      "stateMutability": "nonpayable",
      "type": "function"
    },
    {
      "constant": false,
      "inputs": [
        {
          "name": "orgId",
          "type": "bytes32"
        },
        {
          "name": "serviceId",
          "type": "bytes32"
        },
        {
          "name": "metadataURI",
          "type": "bytes"
        },
        {
          "name": "tags",
          "type": "bytes32[]"
        }
      ],
      "name": "createServiceRegistration",
      "outputs": [],
      "payable": false,
      "stateMutability": "nonpayable",
      "type": "function"
    },
    {
      "constant": false,
      "inputs": [
        {
          "name": "orgId",
          "type": "bytes32"
        },
        {
          "name": "serviceId",
          "type": "bytes32"
        },
        {
          "name": "metadataURI",
          "type": "bytes"
        }
      ],
      "name": "updateServiceRegistration",
      "outputs": [],
      "payable": false,
      "stateMutability": "nonpayable",
      "type": "function"
    },
    {
      "constant": false,
      "inputs": [
        {
          "name": "orgId",
          "type": "bytes32"
        },
        {
          "name": "serviceId",
          "type": "bytes32"
        },
        {
          "name": "tags",
          "type": "bytes32[]"
        }
      ],
      "name": "addTagsToServiceRegistration",
      "outputs": [],
      "payable": false,
      "stateMutability": "nonpayable",
      "type": "function"
    },
    {
      "constant": false,
      "inputs": [
        {
          "name": "orgId",
          "type": "bytes32"
        },
        {
          "name": "serviceId",
          "type": "bytes32"
        },
        {
          "name": "tags",
          "type": "bytes32[]"
        }
      ],
      "name": "removeTagsFromServiceRegistration",
      "outputs": [],
      "payable": false,
      "stateMutability": "nonpayable",
      "type": "function"
    },
    {
      "constant": false,
      "inputs": [
        {
          "name": "orgId",
          "type": "bytes32"
        },
        {
          "name": "serviceId",
          "type": "bytes32"
        }
      ],
      "name": "deleteServiceRegistration",
      "outputs": [],
      "payable": false,
      "stateMutability": "nonpayable",
      "type": "function"
    },
    {
      "constant": false,
      "inputs": [
        {
          "name": "orgId",
          "type": "bytes32"
        },
        {
          "name": "repositoryId",
          "type": "bytes32"
        },
        {
          "name": "repositoryURI",
          "type": "bytes"
        },
        {
          "name": "tags",
          "type": "bytes32[]"
        }
      ],
      "name": "createTypeRepositoryRegistration",
      "outputs": [],
      "payable": false,
      "stateMutability": "nonpayable",
      "type": "function"
    },
    {
      "constant": false,
      "inputs": [
        {
          "name": "orgId",
          "type": "bytes32"
        },
        {
          "name": "repositoryId",
          "type": "bytes32"
        },
        {
          "name": "repositoryURI",
          "type": "bytes"
        }
      ],
      "name": "updateTypeRepositoryRegistration",
      "outputs": [],
      "payable": false,
      "stateMutability": "nonpayable",
      "type": "function"
    },
    {
      "constant": false,
      "inputs": [
        {
          "name": "orgId",
          "type": "bytes32"
        },
        {
          "name": "repositoryId",
          "type": "bytes32"
        },
        {
          "name": "tags",
          "type": "bytes32[]"
        }
      ],
      "name": "addTagsToTypeRepositoryRegistration",
      "outputs": [],
      "payable": false,
      "stateMutability": "nonpayable",
      "type": "function"
    },
    {
      "constant": false,
      "inputs": [
        {
          "name": "orgId",
          "type": "bytes32"
        },
        {
          "name": "repositoryId",
          "type": "bytes32"
        },
        {
          "name": "tags",
          "type": "bytes32[]"
        }
      ],
      "name": "removeTagsFromTypeRepositoryRegistration",
      "outputs": [],
      "payable": false,
      "stateMutability": "nonpayable",
      "type": "function"
    },
    {
      "constant": false,
      "inputs": [
        {
          "name": "orgId",
          "type": "bytes32"
        },
        {
          "name": "repositoryId",
          "type": "bytes32"
        }
      ],
      "name": "deleteTypeRepositoryRegistration",
      "outputs": [],
      "payable": false,
      "stateMutability": "nonpayable",
      "type": "function"
    },
    {
      "constant": true,
      "inputs": [],
      "name": "listOrganizations",
      "outputs": [
        {
          "name": "orgIds",
          "type": "bytes32[]"
        }
      ],
      "payable": false,
      "stateMutability": "view",
      "type": "function"
    },
    {
      "constant": true,
      "inputs": [
        {
          "name": "orgId",
          "type": "bytes32"
        }
      ],
      "name": "getOrganizationById",
      "outputs": [
        {
          "name": "found",
          "type": "bool"
        },
        {
          "name": "id",
          "type": "bytes32"
        },
        {
          "name": "owner",
          "type": "address"
        },
        {
          "name": "members",
          "type": "address[]"
        },
        {
          "name": "serviceIds",
          "type": "bytes32[]"
        },
        {
          "name": "repositoryIds",
          "type": "bytes32[]"
        }
      ],
      "payable": false,
      "stateMutability": "view",
      "type": "function"
    },
    {
      "constant": true,
      "inputs": [
        {
          "name": "orgId",
          "type": "bytes32"
        }
      ],
      "name": "listServicesForOrganization",
      "outputs": [
        {
          "name": "found",
          "type": "bool"
        },
        {
          "name": "serviceIds",
          "type": "bytes32[]"
        }
      ],
      "payable": false,
      "stateMutability": "view",
      "type": "function"
    },
    {
      "constant": true,
      "inputs": [
        {
          "name": "orgId",
          "type": "bytes32"
        },
        {
          "name": "serviceId",
          "type": "bytes32"
        }
      ],
      "name": "getServiceRegistrationById",
      "outputs": [
        {
          "name": "found",
          "type": "bool"
        },
        {
          "name": "id",
          "type": "bytes32"
        },
        {
          "name": "metadataURI",
          "type": "bytes"
        },
        {
          "name": "tags",
          "type": "bytes32[]"
        }
      ],
      "payable": false,
      "stateMutability": "view",
      "type": "function"
    },
    {
      "constant": true,
      "inputs": [
        {
          "name": "orgId",
          "type": "bytes32"
        }
      ],
      "name": "listTypeRepositoriesForOrganization",
      "outputs": [
        {
          "name": "found",
          "type": "bool"
        },
        {
          "name": "repositoryIds",
          "type": "bytes32[]"
        }
      ],
      "payable": false,
      "stateMutability": "view",
      "type": "function"
    },
    {
      "constant": true,
      "inputs": [
        {
          "name": "orgId",
          "type": "bytes32"
        },
        {
          "name": "repositoryId",
          "type": "bytes32"
        }
      ],
      "name": "getTypeRepositoryById",
      "outputs": [
        {
          "name": "found",
          "type": "bool"
        },
        {
          "name": "id",
          "type": "bytes32"
        },
        {
          "name": "repositoryURI",
          "type": "bytes"
        },
        {
          "name": "tags",
          "type": "bytes32[]"
        }
      ],
      "payable": false,
      "stateMutability": "view",
      "type": "function"
    },
    {
      "constant": true,
      "inputs": [],
      "name": "listServiceTags",
      "outputs": [
        {
          "name": "tags",
          "type": "bytes32[]"
        }
      ],
      "payable": false,
      "stateMutability": "view",
      "type": "function"
    },
    {
      "constant": true,
      "inputs": [
        {
          "name": "tag",
          "type": "bytes32"
        }
      ],
      "name": "listServicesForTag",
      "outputs": [
        {
          "name": "orgIds",
          "type": "bytes32[]"
        },
        {
          "name": "serviceIds",
          "type": "bytes32[]"
        }
      ],
      "payable": false,
      "stateMutability": "view",
      "type": "function"
    },
    {
      "constant": true,
      "inputs": [],
      "name": "listTypeRepositoryTags",
      "outputs": [
        {
          "name": "tags",
          "type": "bytes32[]"
        }
      ],
      "payable": false,
      "stateMutability": "view",
      "type": "function"
    },
    {
      "constant": true,
      "inputs": [
        {
          "name": "tag",
          "type": "bytes32"
        }
      ],
      "name": "listTypeRepositoriesForTag",
      "outputs": [
        {
          "name": "orgIds",
          "type": "bytes32[]"
        },
        {
          "name": "repositoryIds",
          "type": "bytes32[]"
        }
      ],
      "payable": false,
      "stateMutability": "view",
      "type": "function"
    },
    {
      "constant": true,
      "inputs": [
        {
          "name": "interfaceID",
          "type": "bytes4"
        }
      ],
      "name": "supportsInterface",
      "outputs": [
        {
          "name": "",
          "type": "bool"
        }
      ],
      "payable": false,
      "stateMutability": "view",
      "type": "function"
    }
  ],
  "bytecode": "0x608060405234801561001057600080fd5b506131de806100206000396000f3006080604052600436106101535763ffffffff7c0100000000000000000000000000000000000000000000000000000000600035041663013be2e0811461015857806301ffc9a714610182578063080b6ad7146101cd578063340d84e5146101f55780633a2cb8601461025a578063520e855b146102d15780635b6104e8146102e65780636928848d1461030e578063692c8a92146103265780637f9d9c77146103d75780638895303f1461040b5780638e07e977146104f35780639a017e0a1461051b5780639aad8d9d14610644578063acd298d31461065f578063afab986c14610677578063b72516551461069f578063bb82354f146106b4578063bcb43444146106cc578063ca62968a146106f4578063ca97758c1461071c578063cb78728214610737578063d197aac41461076b578063d2e544f714610786578063d9219d28146107aa578063e443852d146107ce575b600080fd5b34801561016457600080fd5b50610180600480359060248035916044359182019101356107f2565b005b34801561018e57600080fd5b506101b97bffffffffffffffffffffffffffffffffffffffffffffffffffffffff196004351661087f565b604080519115158252519081900360200190f35b3480156101d957600080fd5b5061018060048035906024803591604435918201910135610912565b34801561020157600080fd5b5061020a610991565b60408051602080825283518183015283519192839290830191858101910280838360005b8381101561024657818101518382015260200161022e565b505050509050019250505060405180910390f35b34801561026657600080fd5b506102726004356109eb565b604051808315151515815260200180602001828103825283818151815260200191508051906020019060200280838360005b838110156102bc5781810151838201526020016102a4565b50505050905001935050505060405180910390f35b3480156102dd57600080fd5b5061020a610a74565b3480156102f257600080fd5b5061018060048035906024803591604435918201910135610acb565b34801561031a57600080fd5b50610180600435610c4c565b34801561033257600080fd5b5061033e600435610ec3565b604051808060200180602001838103835285818151815260200191508051906020019060200280838360005b8381101561038257818101518382015260200161036a565b50505050905001838103825284818151815260200191508051906020019060200280838360005b838110156103c15781810151838201526020016103a9565b5050505090500194505050505060405180910390f35b3480156103e357600080fd5b5061018060048035906024803591604435808301929082013591606435918201910135610f90565b34801561041757600080fd5b5061042660043560243561110f565b604080518515158152602080820186905260809282018381528551938301939093528451919291606084019160a08501919087019080838360005b83811015610479578181015183820152602001610461565b50505050905090810190601f1680156104a65780820380516001836020036101000a031916815260200191505b508381038252845181528451602091820191808701910280838360005b838110156104db5781810151838201526020016104c3565b50505050905001965050505050505060405180910390f35b3480156104ff57600080fd5b5061018060048035906024803591604435918201910135611288565b34801561052757600080fd5b506105336004356112d1565b6040518087151515158152602001866000191660001916815260200185600160a060020a0316600160a060020a03168152602001806020018060200180602001848103845287818151815260200191508051906020019060200280838360005b838110156105ab578181015183820152602001610593565b50505050905001848103835286818151815260200191508051906020019060200280838360005b838110156105ea5781810151838201526020016105d2565b50505050905001848103825285818151815260200191508051906020019060200280838360005b83811015610629578181015183820152602001610611565b50505050905001995050505050505050505060405180910390f35b34801561065057600080fd5b50610180600435602435611450565b34801561066b57600080fd5b5061033e6004356114ad565b34801561068357600080fd5b506101806004803590602480359160443591820191013561157a565b3480156106ab57600080fd5b5061020a611607565b3480156106c057600080fd5b5061027260043561165e565b3480156106d857600080fd5b50610180600480359060248035916044359182019101356116e4565b34801561070057600080fd5b5061018060048035906024803591604435918201910135611789565b34801561072857600080fd5b506101806004356024356117e2565b34801561074357600080fd5b506101806004803590602480359160443580830192908201359160643591820191013561183f565b34801561077757600080fd5b5061042660043560243561198f565b34801561079257600080fd5b50610180600480359060248035908101910135611b02565b3480156107b657600080fd5b50610180600480359060248035908101910135611b84565b3480156107da57600080fd5b50610180600435600160a060020a0360243516611c01565b60006107ff856001611c6c565b61080a856001611d44565b61081685856001611de4565b5060005b8181101561084b57610843858585858581811061083357fe5b9050602002013560001916611ed9565b60010161081a565b604051849086907fd8b715d9bf49bca034a993b5b934475414e84c904dcbf90dbddd139808b97b0590600090a35050505050565b60007bffffffffffffffffffffffffffffffffffffffffffffffffffffffff1982167f01ffc9a700000000000000000000000000000000000000000000000000000000148061090c57507f312efde5000000000000000000000000000000000000000000000000000000007bffffffffffffffffffffffffffffffffffffffffffffffffffffffff198316145b92915050565b61091d846001611c6c565b610928846001611d44565b610934848460016121d4565b600084815260016020818152604080842087855260080190915290912061095d91018383612eb6565b50604051839085907fea3bcbabd0c9d3dae0474b21e6aeef5b2598eafe710788a0da66a15ffb65f44990600090a350505050565b606060008054806020026020016040519081016040528092919081815260200182805480156109e057602002820191906000526020600020905b815481526001909101906020018083116109cb575b505050505090505b90565b6000818152600160205260408120546060901515610a0c5760009150610a6f565b60008381526001602081815260409283902060050180548451818402810184019095528085529295509190830182828015610a6757602002820191906000526020600020905b81548152600190910190602001808311610a52575b505050505090505b915091565b606060038054806020026020016040519081016040528092919081815260200182805480156109e05760200282019190600052602060002090815481526001909101906020018083116109cb575050505050905090565b610ad3612f34565b610ade856000611c6c565b60008581526001602081815260409283902084518155848201519281019290925591830151600282018054600160a060020a031916600160a060020a03909216919091179055606083015180518493610b3e926003850192910190612f6f565b5060808201518051610b5a916005840191602090910190612fd0565b5060a08201518051610b76916006840191602090910190612fd0565b5060c0919091015160099182015560008681526001602081815260408084208a81558084018a9055600281018054600160a060020a031916331790558454950185905591840183559180527f290decd9548b62a8d60345a988386fc84ba6bc95484008f6362f93160ef3e56390920187905581518482028181018301909352848152610c1a92889287918791829190850190849080828437506122bf945050505050565b60405185907f0e7857bfbd020070a2c8d2fe38c788de1e6adc88cb46f60cf6ec7cd385e81db190600090a25050505050565b6000806000806000610c5f866001611c6c565b610c6a866000611d44565b60008681526001602052604090206005015494505b6000851115610ccb5760008681526001602052604090206005018054610cbf9188916000198901908110610caf57fe5b90600052602060002001546123d2565b60001990940193610c7f565b60008681526001602052604090206006015493505b6000841115610d2c5760008681526001602052604090206006018054610d209188916000198801908110610d1057fe5b906000526020600020015461258e565b60001990930192610ce0565b60008681526001602052604090206003015492505b6000831115610d975760008681526001602052604090206003018054610d8b9188916000198701908110610d7157fe5b600091825260209091200154600160a060020a031661272b565b60001990920191610d41565b60008681526001602052604081206009015481549093506000198101908110610dbc57fe5b6000918252602082200154815490925082919084908110610dd957fe5b60009182526020909120015414610e1e5780600083815481101515610dfa57fe5b60009182526020808320909101929092558281526001909152604090206009018290555b6000805490610e3190600019830161300d565b5060008681526001602081905260408220828155908101829055600281018054600160a060020a031916905590610e6b6003830182613031565b610e79600583016000613031565b610e87600683016000613031565b50600060099190910181905560405187917fb1dbc279d80967cb8113073651e5919753c82fad7b002581eb7a020eaf89e9a791a2505050505050565b6000818152600560209081526040918290206001018054835181840281018401909452808452606093849390929190830182828015610f2257602002820191906000526020600020905b81548152600190910190602001808311610f0d575b50505060008681526005602090815260409182902060020180548351818402810184019094528084529597509194919350909150830182828015610a67576020028201919060005260206000209081548152600190910190602001808311610a525750505050509050915091565b610f98613052565b6000610fa5886001611c6c565b610fb0886001611d44565b610fbc88886000611de4565b868252604080516020601f880181900481028201810190925286815290879087908190840183828082843750505050602080860193845260008c815260018083526040808320600581015460608b01528e84526007018452909120875181559451805188969550611033945091850192019061307e565b506040820151805161104f916002840191602090910190612fd0565b506060919091015160049091015550600087815260016020818152604083206005018054928301815583528220018790555b828110156110b2576110aa888886868581811061109a57fe5b90506020020135600019166128ad565b600101611081565b604080516020808252810187905288918a917f3229c7118d95880b1bb8abc6231f47f1a63d7b1e7e22fbd91a8ccffc9fa75df9918a918a918190810184848082843760405192018290039550909350505050a35050505050505050565b600082815260016020526040812054819060609081901515611134576000935061127f565b60008681526001602090815260408083208884526007019091529020541515611160576000935061127f565b6000868152600160208181526040808420898552600701825292839020805490830180548551600260001983881615610100020190921691909104601f81018590048502820185019096528581529398509096509192908301828280156112085780601f106111dd57610100808354040283529160200191611208565b820191906000526020600020905b8154815290600101906020018083116111eb57829003601f168201915b50505060008981526001602090815260408083208b84526007018252918290206002018054835181840281018401909452808452959750919491935090915083018282801561127757602002820191906000526020600020905b81548152600190910190602001808311611262575b505050505090505b92959194509250565b6000611295856001611c6c565b6112a0856001611d44565b6112ac85856001611de4565b5060005b8181101561084b576112c9858585858581811061109a57fe5b6001016112b0565b600081815260016020526040812054819081906060908190819015156112fa5760009550611447565b6000878152600160208181526040928390208054600282015460039092018054865181860281018601909752808752949b50909950600160a060020a039091169750919083018282801561137757602002820191906000526020600020905b8154600160a060020a03168152600190910190602001808311611359575b50505060008a815260016020908152604091829020600501805483518184028101840190945280845295985091949193509091508301828280156113db57602002820191906000526020600020905b815481526001909101906020018083116113c6575b50505060008a8152600160209081526040918290206006018054835181840281018401909452808452959750919491935090915083018282801561143f57602002820191906000526020600020905b8154815260019091019060200180831161142a575b505050505090505b91939550919395565b61145b826001611c6c565b611466826001611d44565b611472828260016121d4565b61147c828261258e565b604051819083907f6ede3bb1e53daa5c72ee70092a3ce9a7dadac03f980fe8726ad2716c7f871d5490600090a35050565b600081815260046020908152604091829020600101805483518184028101840190945280845260609384939092919083018282801561150c57602002820191906000526020600020905b815481526001909101906020018083116114f7575b50505060008681526004602090815260409182902060020180548351818402810184019094528084529597509194919350909150830182828015610a67576020028201919060005260206000209081548152600190910190602001808311610a525750505050509050915091565b6000611587856001611c6c565b611592856001611d44565b61159e858560016121d4565b5060005b818110156115d3576115cb85858585858181106115bb57fe5b9050602002013560001916612a37565b6001016115a2565b604051849086907fea3bcbabd0c9d3dae0474b21e6aeef5b2598eafe710788a0da66a15ffb65f44990600090a35050505050565b606060028054806020026020016040519081016040528092919081815260200182805480156109e05760200282019190600052602060002090815481526001909101906020018083116109cb575050505050905090565b600081815260016020526040812054606090151561167f5760009150610a6f565b60008381526001602081815260409283902060060180548451818402810184019095528085529295509190830182828015610a67576020028201919060005260206000209081548152600190910190602001808311610a525750505050509050915091565b6116ef846001611c6c565b6116fa846001611d44565b61170684846001611de4565b600084815260016020818152604080842087855260070190915290912061172f91018383612eb6565b506040805160208082528101839052849186917fb7b13a2b2a9c0147b27815cbec2c7e5ed10588c9d5812211619614c379174c5a91869186918190810184848082843760405192018290039550909350505050a350505050565b6000611796856001611c6c565b6117a1856001611d44565b6117ad858560016121d4565b5060005b818110156115d3576117da85858585858181106117ca57fe5b9050602002013560001916612bbc565b6001016117b1565b6117ed826001611c6c565b6117f8826001611d44565b61180482826001611de4565b61180e82826123d2565b604051819083907f3caed2ddcd24bae20b0075a02d974ba3a229dace98271af93ce8c8f3ebd9d27290600090a35050565b611847613052565b6000611854886001611c6c565b61185f886001611d44565b61186b888860006121d4565b60008881526001602081815260408084208b8552600801825290922084518155828501518051869492936118a49390850192019061307e565b50604082015180516118c0916002840191602090910190612fd0565b506060919091015160049091015560008881526001602081815260408084208b85526008019091529091208881556118fa91018787612eb6565b505060008781526001602081815260408084206006810180548c875260089092018452918520600401819055838352928301815583528220018790555b828110156119585761195088888686858181106115bb57fe5b600101611937565b604051879089907f5124da9b6fa39b72e36fd353b25ddc71861b18c5dcafea15e97a850a1696adbc90600090a35050505050505050565b6000828152600160205260408120548190606090819015156119b4576000935061127f565b600086815260016020908152604080832088845260080190915290205415156119e0576000935061127f565b6000868152600160208181526040808420898552600801825292839020820180548451601f6002610100848816150260001901909316929092049182018490048402810184019095528085529297508896509190830182828015611a855780601f10611a5a57610100808354040283529160200191611a85565b820191906000526020600020905b815481529060010190602001808311611a6857829003601f168201915b50505060008981526001602090815260408083208b845260080182529182902060020180548351818402810184019094528084529597509194919350909150830182828015611277576020028201919060005260206000209081548152600190910190602001808311611262575050505050905092959194509250565b6000611b0f846001611c6c565b611b1a846001611d44565b5060005b81811015611b5357611b4b84848484818110611b3657fe5b90506020020135600160a060020a031661272b565b600101611b1e565b60405184907f06ccb920be65231f5c9d04dd4883d3c7648ebe5f5317cc7177ee4f4a7cc2d03890600090a250505050565b611b8f836001611c6c565b611b9a836001611d44565b611bd183838380806020026020016040519081016040528093929190818152602001838360200280828437506122bf945050505050565b60405183907f06ccb920be65231f5c9d04dd4883d3c7648ebe5f5317cc7177ee4f4a7cc2d03890600090a2505050565b611c0c826001611c6c565b611c17826000611d44565b6000828152600160205260408082206002018054600160a060020a031916600160a060020a0385161790555183917f06ccb920be65231f5c9d04dd4883d3c7648ebe5f5317cc7177ee4f4a7cc2d03891a25050565b8015611cdc576000828152600160205260409020541515611cd7576040805160e560020a62461bcd02815260206004820152601260248201527f6f726720646f6573206e6f742065786973740000000000000000000000000000604482015290519081900360640190fd5b611d40565b60008281526001602052604090205415611d40576040805160e560020a62461bcd02815260206004820152601260248201527f6f726720616c7265616479206578697374730000000000000000000000000000604482015290519081900360640190fd5b5050565b600082815260016020526040902060020154600160a060020a0316331480611d8e5750808015611d8e57506000828152600160209081526040808320338452600401909152812054115b1515611d40576040805160e560020a62461bcd02815260206004820152601760248201527f756e617574686f72697a656420696e766f636174696f6e000000000000000000604482015290519081900360640190fd5b8015611e625760008381526001602090815260408083208584526007019091529020541515611e5d576040805160e560020a62461bcd02815260206004820152601660248201527f7365727669636520646f6573206e6f7420657869737400000000000000000000604482015290519081900360640190fd5b611ed4565b600083815260016020908152604080832085845260070190915290205415611ed4576040805160e560020a62461bcd02815260206004820152601660248201527f7365727669636520616c72656164792065786973747300000000000000000000604482015290519081900360640190fd5b505050565b600083815260016020908152604080832085845260070182528083208484526003019091528120548190819081908190156121ca5760008881526001602081815260408084208b85526007018083528185208b865260038101845291852090930154938b90529190526002018054919650906000198101908110611f5957fe5b60009182526020808320909101548a83526001825260408084208b8552600701909252912060020154909450600019018514611ff75760008881526001602090815260408083208a84526007019091529020600201805485919087908110611fbd57fe5b6000918252602080832090910192909255898152600180835260408083208b84526007018452808320888452600301909352919020018590555b60008881526001602090815260408083208a8452600701909152902060020180549061202790600019830161300d565b5060008881526001602081815260408084208b855260070182528084208a85526003018252808420600201546004909252909220015490955060001901925082851461214f57600086815260046020526040902060010180548490811061208a57fe5b600091825260208083209091015488835260049091526040909120600201805491935090849081106120b857fe5b60009182526020808320909101548883526004909152604090912060010180549192508391879081106120e757fe5b600091825260208083209091019290925587815260049091526040902060020180548291908790811061211657fe5b60009182526020808320909101929092558381526001825260408082208483526007018352808220898352600301909252206002018590555b600086815260046020526040902060010180549061217190600019830161300d565b50600086815260046020526040902060020180549061219490600019830161300d565b5060008881526001602081815260408084208b855260070182528084208a85526003019091528220828155908101829055600201555b5050505050505050565b801561224d5760008381526001602090815260408083208584526008019091529020541515611e5d576040805160e560020a62461bcd02815260206004820152601860248201527f74797065207265706f20646f6573206e6f742065786973740000000000000000604482015290519081900360640190fd5b600083815260016020908152604080832085845260080190915290205415611ed4576040805160e560020a62461bcd02815260206004820152601860248201527f74797065207265706f20616c7265616479206578697374730000000000000000604482015290519081900360640190fd5b60005b8151811015611ed45760008381526001602052604081208351600490910191908490849081106122ee57fe5b90602001906020020151600160a060020a0316600160a060020a0316815260200190815260200160002054600014156123ca576000838152600160205260409020825160039091019083908390811061234357fe5b60209081029190910181015182546001808201855560009485528385209091018054600160a060020a031916600160a060020a0390931692909217909155858352905260408120600381015484519092600490920191908590859081106123a657fe5b6020908102909101810151600160a060020a03168252810191909152604001600020555b6001016122c2565b600082815260016020908152604080832084845260070190915281206002015490805b600083111561245257600085815260016020908152604080832087845260070190915290206002018054612446918791879190600019880190811061243657fe5b9060005260206000200154611ed9565b600019909201916123f5565b60008581526001602081815260408084208885526007810183529084206004015493899052919052600501805491935090600019810190811061249157fe5b60009182526020808320909101548783526001909152604090912060050180549192508291849081106124c057fe5b6000918252602090912001541461251f5760008581526001602052604090206005018054829190849081106124f157fe5b6000918252602080832090910192909255868152600182526040808220848352600701909252206004018290555b600085815260016020526040902060050180549061254190600019830161300d565b5060008581526001602081815260408084208885526007019091528220828155919061256f908301826130ec565b61257d600283016000613031565b600482016000905550505050505050565b600082815260016020908152604080832084845260080190915281206002015490805b600083111561260e5760008581526001602090815260408083208784526008019091529020600201805461260291879187919060001988019081106125f257fe5b9060005260206000200154612bbc565b600019909201916125b1565b60008581526001602081815260408084208885526008810183529084206004015493899052919052600601805491935090600019810190811061264d57fe5b600091825260208083209091015487835260019091526040909120600601805491925082918490811061267c57fe5b600091825260209091200154146126db5760008581526001602052604090206006018054829190849081106126ad57fe5b6000918252602080832090910192909255868152600182526040808220848352600801909252206004018290555b60008581526001602052604090206006018054906126fd90600019830161300d565b5060008581526001602081815260408084208885526008019091528220828155919061256f908301826130ec565b6000828152600160209081526040808320600160a060020a03851684526004019091528120548190156128a7576000848152600160208181526040808420600160a060020a03881685526004810183529084205493889052919052600301805491935090600019810190811061279d57fe5b6000918252602080832090910154868352600190915260409091206003018054600160a060020a039092169250829160001985019081106127da57fe5b600091825260209091200154600160a060020a03161461285d5760008481526001602052604090206003018054829190600019850190811061281857fe5b60009182526020808320919091018054600160a060020a031916600160a060020a03948516179055868252600181526040808320938516835260049093019052208290555b600084815260016020526040902060030180549061287f90600019830161300d565b506000848152600160209081526040808320600160a060020a03871684526004019091528120555b50505050565b6128b5613130565b6128bd613150565b600085815260016020908152604080832087845260070182528083208684526003019091529020541515612a30576000858152600160208181526040808420888552600701825280842087855260038101835281852087840151818601908155888401516002808401918255928b90559190920180549092556004845291852080850154909255805493840181558452908320909101859055908490525460ff1615156129f557600180825260008481526004602090815260409091208351815460ff1916901515178155818401518051859492936129a0938501920190612fd0565b50604082015180516129bc916002840191602090910190612fd0565b5050600280546001810182556000919091527f405787fa12a823e0f2b7631cc41b3ba8828b3321ca811111fa75cd3aa3bb5ace01849055505b600083815260046020908152604082206001808201805480830182559085528385200189905560029091018054918201815583529120018490555b5050505050565b612a3f613130565b612a47613150565b600085815260016020908152604080832087845260080182528083208684526003019091529020541515612a30576000858152600160208181526040808420888552600801825280842087855260038101835281852087840151818601908155888401516002808401918255928b90559190920180549092556005845291852080850154909255805493840181558452908320909101859055908490525460ff161515612b7f57600180825260008481526005602090815260409091208351815460ff191690151517815581840151805185949293612b2a938501920190612fd0565b5060408201518051612b46916002840191602090910190612fd0565b5050600380546001810182556000919091527fc2575a0e9e593c00f959f8c92f12db2869c3395a3b0502d05e2516446f71f85b01849055505b5050600090815260056020908152604082206001808201805480830182559085528385200195909555600201805494850181558252902090910155565b600083815260016020908152604080832085845260080182528083208484526003019091528120548190819081908190156121ca5760008881526001602081815260408084208b85526008018083528185208b865260038101845291852090930154938b90529190526002018054919650906000198101908110612c3c57fe5b60009182526020808320909101548a83526001825260408084208b8552600801909252912060020154909450600019018514612cda5760008881526001602090815260408083208a84526008019091529020600201805485919087908110612ca057fe5b6000918252602080832090910192909255898152600180835260408083208b84526008018452808320888452600301909352919020018590555b60008881526001602090815260408083208a84526008019091529020600201805490612d0a90600019830161300d565b5060008881526001602081815260408084208b855260080182528084208a855260030182528084206002015460059092529092200154909550600019019250828514612e32576000868152600560205260409020600101805484908110612d6d57fe5b60009182526020808320909101548883526005909152604090912060020180549193509084908110612d9b57fe5b6000918252602080832090910154888352600590915260409091206001018054919250839187908110612dca57fe5b6000918252602080832090910192909255878152600590915260409020600201805482919087908110612df957fe5b60009182526020808320909101929092558381526001825260408082208483526008018352808220898352600301909252206002018590555b6000868152600560205260409020600101805490612e5490600019830161300d565b506000868152600560205260409020600201805490612e7790600019830161300d565b5060008881526001602081815260408084208b855260080182528084208a85526003019091528220828155908101829055600201555050505050505050565b828054600181600116156101000203166002900490600052602060002090601f016020900481019282601f10612ef75782800160ff19823516178555612f24565b82800160010185558215612f24579182015b82811115612f24578235825591602001919060010190612f09565b50612f30929150613174565b5090565b6040805160e08101825260008082526020820181905291810182905260608082018190526080820181905260a082015260c081019190915290565b828054828255906000526020600020908101928215612fc4579160200282015b82811115612fc45782518254600160a060020a031916600160a060020a03909116178255602090920191600190910190612f8f565b50612f3092915061318e565b828054828255906000526020600020908101928215612f24579160200282015b82811115612f245782518255602090920191600190910190612ff0565b815481835581811115611ed457600083815260209020611ed4918101908301613174565b508054600082559060005260206000209081019061304f9190613174565b50565b608060405190810160405280600080191681526020016060815260200160608152602001600081525090565b828054600181600116156101000203166002900490600052602060002090601f016020900481019282601f106130bf57805160ff1916838001178555612f24565b82800160010185558215612f24579182015b82811115612f245782518255916020019190600101906130d1565b50805460018160011615610100020316600290046000825580601f10613112575061304f565b601f01602090049060005260206000209081019061304f9190613174565b604080516060810182526000808252602082018190529181019190915290565b60606040519081016040528060001515815260200160608152602001606081525090565b6109e891905b80821115612f30576000815560010161317a565b6109e891905b80821115612f30578054600160a060020a03191681556001016131945600a165627a7a723058208fe77e5d1db56dedfb9a3217b151a94ef5fee55fd179dba7a65dcc7aecc0cbe50029",
  "source": "pragma solidity ^0.4.24;\r\n\r\nimport \"openzeppelin-solidity/contracts/introspection/ERC165.sol\";\r\nimport \"./IRegistry.sol\";\r\n\r\ncontract Registry is IRegistry, ERC165 {\r\n\r\n    struct OrganizationRegistration {\r\n        bytes32 organizationId;\r\n        bytes32 organizationName;\r\n        address owner;\r\n\r\n        // member indexing note:\r\n        // case (members[someAddress]) of\r\n        //   0 -> not a member of this org\r\n        //   n -> member of this org, and memberKeys[n-1] == someAddress\r\n        address[] memberKeys;\r\n        mapping(address => uint) members;\r\n\r\n        bytes32[] serviceKeys;\r\n        bytes32[] typeRepoKeys;\r\n        mapping(bytes32 => ServiceRegistration) servicesById;\r\n        mapping(bytes32 => TypeRepositoryRegistration) typeReposById;\r\n\r\n        uint globalOrgIndex;\r\n    }\r\n\r\n    struct ServiceRegistration {\r\n        bytes32 serviceId;\r\n        bytes   metadataURI;   //Service metadata. metadataURI should contain information for data consistency \r\n                               //validation (for example hash). We support: IPFS URI.\r\n        bytes32[] tags;\r\n        mapping(bytes32 => Tag) tagsByName;\r\n\r\n        uint orgServiceIndex;\r\n    }\r\n\r\n    struct TypeRepositoryRegistration {\r\n        bytes32 repositoryId;\r\n        bytes   repositoryURI;\r\n\r\n        bytes32[] tags;\r\n        mapping(bytes32 => Tag) tagsByName;\r\n\r\n        uint orgTypeRepoIndex;\r\n    }\r\n\r\n    struct Tag {\r\n        bytes32 tagName;\r\n        uint itemTagIndex;\r\n        uint globalTagIndex;\r\n    }\r\n\r\n    struct ServiceOrTypeRepositoryList {\r\n        bool valid;\r\n        bytes32[] orgIds;\r\n        bytes32[] itemNames;\r\n    }\r\n\r\n    bytes32[] orgKeys;\r\n    mapping(bytes32 => OrganizationRegistration) orgsById;\r\n\r\n    bytes32[] serviceTags;\r\n    bytes32[] typeRepoTags;\r\n    mapping(bytes32 => ServiceOrTypeRepositoryList) servicesByTag;\r\n    mapping(bytes32 => ServiceOrTypeRepositoryList) typeReposByTag;\r\n\r\n    /**\r\n      * @dev Guard function that forces a revert if the tx sender is unauthorized.\r\n      *      Always authorizes org owner. Can also authorize org members.\r\n      *\r\n      * @param membersAllowed if true, revert when sender is non-owner and non-member, else revert when sender is non-owner\r\n      */\r\n    function requireAuthorization(bytes32 orgId, bool membersAllowed) internal view {\r\n        require(msg.sender == orgsById[orgId].owner || (membersAllowed && orgsById[orgId].members[msg.sender] > 0)\r\n            , \"unauthorized invocation\");\r\n    }\r\n\r\n    /**\r\n      * @dev Guard function that forces a revert if the referenced org does not meet an existence criteria.\r\n      *\r\n      * @param exists if true, revert when org does not exist, else revert when org exists\r\n      */\r\n    function requireOrgExistenceConstraint(bytes32 orgId, bool exists) internal view {\r\n        if (exists) {\r\n            require(orgsById[orgId].organizationId != bytes32(0x0), \"org does not exist\");\r\n        } else {\r\n            require(orgsById[orgId].organizationId == bytes32(0x0), \"org already exists\");\r\n        }\r\n    }\r\n\r\n    /**\r\n      * @dev Guard function that forces a revert if the referenced service does not meet an existence criteria.\r\n      *\r\n      * @param exists if true, revert when service does not exist, else revert when service exists\r\n      */\r\n    function requireServiceExistenceConstraint(bytes32 orgId, bytes32 serviceId, bool exists) internal view {\r\n        if (exists) {\r\n            require(orgsById[orgId].servicesById[serviceId].serviceId != bytes32(0x0), \"service does not exist\");\r\n        } else {\r\n            require(orgsById[orgId].servicesById[serviceId].serviceId == bytes32(0x0), \"service already exists\");\r\n        }\r\n    }\r\n\r\n    /**\r\n      * @dev Guard function that forces a revert if the referenced type repository does not meet an existence criteria.\r\n      *\r\n      * @param exists if true, revert when type repo does not exist, else revert when type repo exists\r\n      */\r\n    function requireTypeRepositoryExistenceConstraint(bytes32 orgId, bytes32 repositoryId, bool exists) internal view {\r\n        if (exists) {\r\n            require(orgsById[orgId].typeReposById[repositoryId].repositoryId != bytes32(0x0), \"type repo does not exist\");\r\n        } else {\r\n            require(orgsById[orgId].typeReposById[repositoryId].repositoryId == bytes32(0x0), \"type repo already exists\");\r\n        }\r\n    }\r\n\r\n    //    ___                        _          _   _                   __  __                 _\r\n    //   / _ \\ _ __ __ _  __ _ _ __ (_)______ _| |_(_) ___  _ __       |  \\/  | __ _ _ __ ___ | |_\r\n    //  | | | | '__/ _` |/ _` | '_ \\| |_  / _` | __| |/ _ \\| '_ \\      | |\\/| |/ _` | '_ ` _ \\| __|\r\n    //  | |_| | | | (_| | (_| | | | | |/ / (_| | |_| | (_) | | | |     | |  | | (_| | | | | | | |_\r\n    //   \\___/|_|  \\__, |\\__,_|_| |_|_/___\\__,_|\\__|_|\\___/|_| |_|     |_|  |_|\\__, |_| |_| |_|\\__|\r\n    //             |___/                                                       |___/\r\n\r\n    function createOrganization(bytes32 orgId, bytes32 orgName, address[] members) external {\r\n\r\n        requireOrgExistenceConstraint(orgId, false);\r\n\r\n        OrganizationRegistration memory organization;\r\n        orgsById[orgId] = organization;\r\n        orgsById[orgId].organizationId = orgId;\r\n        orgsById[orgId].organizationName = orgName;\r\n        orgsById[orgId].owner = msg.sender;\r\n        orgsById[orgId].globalOrgIndex = orgKeys.length;\r\n        orgKeys.push(orgId);\r\n\r\n        addOrganizationMembersInternal(orgId, members);\r\n\r\n        emit OrganizationCreated(orgId);\r\n    }\r\n\r\n    function changeOrganizationOwner(bytes32 orgId, address newOwner) external {\r\n\r\n        requireOrgExistenceConstraint(orgId, true);\r\n        requireAuthorization(orgId, false);\r\n\r\n        orgsById[orgId].owner = newOwner;\r\n\r\n        emit OrganizationModified(orgId);\r\n    }\r\n\r\n    function addOrganizationMembers(bytes32 orgId, address[] newMembers) external {\r\n\r\n        requireOrgExistenceConstraint(orgId, true);\r\n        requireAuthorization(orgId, true);\r\n\r\n        addOrganizationMembersInternal(orgId, newMembers);\r\n\r\n        emit OrganizationModified(orgId);\r\n    }\r\n\r\n    function addOrganizationMembersInternal(bytes32 orgId, address[] newMembers) internal {\r\n        for (uint i = 0; i < newMembers.length; i++) {\r\n            if (orgsById[orgId].members[newMembers[i]] == 0) {\r\n                orgsById[orgId].memberKeys.push(newMembers[i]);\r\n                orgsById[orgId].members[newMembers[i]] = orgsById[orgId].memberKeys.length;\r\n            }\r\n        }\r\n    }\r\n\r\n    function removeOrganizationMembers(bytes32 orgId, address[] existingMembers) external {\r\n\r\n        requireOrgExistenceConstraint(orgId, true);\r\n        requireAuthorization(orgId, true);\r\n\r\n        for (uint i = 0; i < existingMembers.length; i++) {\r\n            removeOrganizationMemberInternal(orgId, existingMembers[i]);\r\n        }\r\n\r\n        emit OrganizationModified(orgId);\r\n    }\r\n\r\n    function removeOrganizationMemberInternal(bytes32 orgId, address existingMember) internal {\r\n        // see \"member indexing note\"\r\n        if (orgsById[orgId].members[existingMember] != 0) {\r\n            uint storedIndexToRemove = orgsById[orgId].members[existingMember];\r\n            address memberToMove = orgsById[orgId].memberKeys[orgsById[orgId].memberKeys.length - 1];\r\n\r\n            // no-op if we are deleting the last entry\r\n            if (orgsById[orgId].memberKeys[storedIndexToRemove - 1] != memberToMove) {\r\n                // swap lut entries\r\n                orgsById[orgId].memberKeys[storedIndexToRemove - 1] = memberToMove;\r\n                orgsById[orgId].members[memberToMove] = storedIndexToRemove;\r\n            }\r\n\r\n            // shorten keys array\r\n            orgsById[orgId].memberKeys.length--;\r\n\r\n            // delete the mapping entry\r\n            delete orgsById[orgId].members[existingMember];\r\n        }\r\n    }\r\n\r\n    function deleteOrganization(bytes32 orgId) external {\r\n\r\n        requireOrgExistenceConstraint(orgId, true);\r\n        requireAuthorization(orgId, false);\r\n\r\n        for (uint serviceIndex = orgsById[orgId].serviceKeys.length; serviceIndex > 0; serviceIndex--) {\r\n            deleteServiceRegistrationInternal(orgId, orgsById[orgId].serviceKeys[serviceIndex-1]);\r\n        }\r\n\r\n        for (uint repoIndex = orgsById[orgId].typeRepoKeys.length; repoIndex > 0; repoIndex--) {\r\n            deleteTypeRepositoryRegistrationInternal(orgId, orgsById[orgId].typeRepoKeys[repoIndex-1]);\r\n        }\r\n\r\n        for (uint memberIndex = orgsById[orgId].memberKeys.length; memberIndex > 0; memberIndex--) {\r\n            removeOrganizationMemberInternal(orgId, orgsById[orgId].memberKeys[memberIndex-1]);\r\n        }\r\n\r\n        // swap lut entries\r\n        uint    indexToUpdate = orgsById[orgId].globalOrgIndex;\r\n        bytes32 orgToUpdate   = orgKeys[orgKeys.length-1];\r\n\r\n        if (orgKeys[indexToUpdate] != orgToUpdate) {\r\n            orgKeys[indexToUpdate] = orgToUpdate;\r\n            orgsById[orgToUpdate].globalOrgIndex = indexToUpdate;\r\n        }\r\n\r\n        // shorten keys array\r\n        orgKeys.length--;\r\n\r\n        // delete contents of organization registration\r\n        delete orgsById[orgId];\r\n\r\n        emit OrganizationDeleted(orgId);\r\n    }\r\n\r\n    //   ____                  _                __  __                 _\r\n    //  / ___|  ___ _ ____   ___) ___ ___      |  \\/  | __ _ _ __ ___ | |_\r\n    //  \\___ \\ / _ \\ '__\\ \\ / / |/ __/ _ \\     | |\\/| |/ _` | '_ ` _ \\| __|\r\n    //   ___) |  __/ |   \\ V /| | (__  __/     | |  | | (_| | | | | | | |_\r\n    //  |____/ \\___|_|    \\_/ |_|\\___\\___|     |_|  |_|\\__, |_| |_| |_|\\__|\r\n    //                                                 |___/\r\n\r\n    function createServiceRegistration(bytes32 orgId, bytes32 serviceId, bytes metadataURI, bytes32[] tags) external {\r\n\r\n        requireOrgExistenceConstraint(orgId, true);\r\n        requireAuthorization(orgId, true);\r\n        requireServiceExistenceConstraint(orgId, serviceId, false);\r\n\r\n        ServiceRegistration memory service;\r\n        service.serviceId     = serviceId;\r\n        service.metadataURI     = metadataURI;\r\n        service.orgServiceIndex = orgsById[orgId].serviceKeys.length;\r\n        orgsById[orgId].servicesById[serviceId] = service;\r\n        orgsById[orgId].serviceKeys.push(serviceId);\r\n\r\n        for (uint i = 0; i < tags.length; i++) {\r\n            addTagToServiceRegistration(orgId, serviceId, tags[i]);\r\n        }\r\n\r\n        emit ServiceCreated(orgId, serviceId, metadataURI);\r\n    }\r\n\r\n    function updateServiceRegistration(bytes32 orgId, bytes32 serviceId, bytes metadataURI) external {\r\n\r\n        requireOrgExistenceConstraint(orgId, true);\r\n        requireAuthorization(orgId, true);\r\n        requireServiceExistenceConstraint(orgId, serviceId, true);\r\n\r\n        orgsById[orgId].servicesById[serviceId].metadataURI = metadataURI;\r\n\r\n        emit ServiceMetadataModified(orgId, serviceId, metadataURI);\r\n    }\r\n\r\n    function addTagsToServiceRegistration(bytes32 orgId, bytes32 serviceId, bytes32[] tags) external {\r\n\r\n        requireOrgExistenceConstraint(orgId, true);\r\n        requireAuthorization(orgId, true);\r\n        requireServiceExistenceConstraint(orgId, serviceId, true);\r\n\r\n        for (uint i = 0; i < tags.length; i++) {\r\n            addTagToServiceRegistration(orgId, serviceId, tags[i]);\r\n        }\r\n\r\n        emit ServiceTagsModified(orgId, serviceId);\r\n    }\r\n\r\n    function addTagToServiceRegistration(bytes32 orgId, bytes32 serviceId, bytes32 tagName) internal {\r\n\r\n        // no-op if tag already exists\r\n        if (orgsById[orgId].servicesById[serviceId].tagsByName[tagName].tagName == bytes32(0x0)) {\r\n            // add the tag to the service level tag index\r\n            Tag memory tagObj;\r\n            orgsById[orgId].servicesById[serviceId].tagsByName[tagName] = tagObj;\r\n            orgsById[orgId].servicesById[serviceId].tagsByName[tagName].tagName = tagName;\r\n            orgsById[orgId].servicesById[serviceId].tagsByName[tagName].itemTagIndex = orgsById[orgId].servicesById[serviceId].tags.length;\r\n            orgsById[orgId].servicesById[serviceId].tagsByName[tagName].globalTagIndex = servicesByTag[tagName].orgIds.length;\r\n            orgsById[orgId].servicesById[serviceId].tags.push(tagName);\r\n\r\n            // add the service to the global tag index creating a list object for this tag if it does not already exist\r\n            if (!servicesByTag[tagName].valid) {\r\n                ServiceOrTypeRepositoryList memory listObj;\r\n                listObj.valid = true;\r\n                servicesByTag[tagName] = listObj;\r\n                serviceTags.push(tagName);\r\n            }\r\n\r\n            servicesByTag[tagName].orgIds.push(orgId);\r\n            servicesByTag[tagName].itemNames.push(serviceId);\r\n        }\r\n    }\r\n\r\n    function removeTagsFromServiceRegistration(bytes32 orgId, bytes32 serviceId, bytes32[] tags) external {\r\n\r\n        requireOrgExistenceConstraint(orgId, true);\r\n        requireAuthorization(orgId, true);\r\n        requireServiceExistenceConstraint(orgId, serviceId, true);\r\n\r\n        for (uint i = 0; i < tags.length; i++) {\r\n            removeTagFromServiceRegistration(orgId, serviceId, tags[i]);\r\n        }\r\n\r\n        emit ServiceTagsModified(orgId, serviceId);\r\n    }\r\n\r\n    function removeTagFromServiceRegistration(bytes32 orgId, bytes32 serviceId, bytes32 tagName) internal {\r\n\r\n        // no-op if tag does not exist\r\n        if (orgsById[orgId].servicesById[serviceId].tagsByName[tagName].tagName != bytes32(0x0)) {\r\n\r\n            // swap service registration lut entries\r\n            uint tagIndexToReplace = orgsById[orgId].servicesById[serviceId].tagsByName[tagName].itemTagIndex;\r\n            bytes32 tagNameToMove = orgsById[orgId].servicesById[serviceId].tags[orgsById[orgId].servicesById[serviceId].tags.length-1];\r\n\r\n            // no-op if we are deleting the last item\r\n            if (tagIndexToReplace != orgsById[orgId].servicesById[serviceId].tags.length-1) {\r\n                orgsById[orgId].servicesById[serviceId].tags[tagIndexToReplace] = tagNameToMove;\r\n                orgsById[orgId].servicesById[serviceId].tagsByName[tagNameToMove].itemTagIndex = tagIndexToReplace;\r\n            }\r\n\r\n            orgsById[orgId].servicesById[serviceId].tags.length--;\r\n\r\n            // swap global tag index lut entries\r\n            tagIndexToReplace = orgsById[orgId].servicesById[serviceId].tagsByName[tagName].globalTagIndex;\r\n            uint tagIndexToMove = servicesByTag[tagName].orgIds.length-1;\r\n\r\n            // no-op if we are deleting the last item\r\n            if (tagIndexToMove != tagIndexToReplace) {\r\n                bytes32 orgIdToMove  = servicesByTag[tagName].orgIds[tagIndexToMove];\r\n                bytes32 itemNameToMove = servicesByTag[tagName].itemNames[tagIndexToMove];\r\n\r\n                servicesByTag[tagName].orgIds[tagIndexToReplace] = orgIdToMove;\r\n                servicesByTag[tagName].itemNames[tagIndexToReplace] = itemNameToMove;\r\n\r\n                orgsById[orgIdToMove].servicesById[itemNameToMove].tagsByName[tagName].globalTagIndex = tagIndexToReplace;\r\n            }\r\n\r\n            servicesByTag[tagName].orgIds.length--;\r\n            servicesByTag[tagName].itemNames.length--;\r\n\r\n            // delete contents of the tag entry\r\n            delete orgsById[orgId].servicesById[serviceId].tagsByName[tagName];\r\n        }\r\n    }\r\n\r\n    function deleteServiceRegistration(bytes32 orgId, bytes32 serviceId) external {\r\n\r\n        requireOrgExistenceConstraint(orgId, true);\r\n        requireAuthorization(orgId, true);\r\n        requireServiceExistenceConstraint(orgId, serviceId, true);\r\n\r\n        deleteServiceRegistrationInternal(orgId, serviceId);\r\n\r\n        emit ServiceDeleted(orgId, serviceId);\r\n    }\r\n\r\n    function deleteServiceRegistrationInternal(bytes32 orgId, bytes32 serviceId) internal {\r\n        // delete the tags associated with the service\r\n        for (uint i = orgsById[orgId].servicesById[serviceId].tags.length; i > 0; i--) {\r\n            removeTagFromServiceRegistration(orgId, serviceId, orgsById[orgId].servicesById[serviceId].tags[i-1]);\r\n        }\r\n\r\n        // swap lut entries\r\n        uint    indexToUpdate   = orgsById[orgId].servicesById[serviceId].orgServiceIndex;\r\n        bytes32 serviceToUpdate = orgsById[orgId].serviceKeys[orgsById[orgId].serviceKeys.length-1];\r\n\r\n        if (orgsById[orgId].serviceKeys[indexToUpdate] != serviceToUpdate) {\r\n            orgsById[orgId].serviceKeys[indexToUpdate] = serviceToUpdate;\r\n            orgsById[orgId].servicesById[serviceToUpdate].orgServiceIndex = indexToUpdate;\r\n        }\r\n\r\n        orgsById[orgId].serviceKeys.length--;\r\n\r\n        // delete contents of service registration\r\n        delete orgsById[orgId].servicesById[serviceId];\r\n    }\r\n\r\n    //   _____                        ____                        __  __                 _\r\n    //  |_   _|   _ _ __   ___       |  _ \\ ___ _ __   ___       |  \\/  | __ _ _ __ ___ | |_\r\n    //    | || | | | '_ \\ / _ \\      | |_) / _ \\ '_ \\ / _ \\      | |\\/| |/ _` | '_ ` _ \\| __|\r\n    //    | || |_| | |_) |  __/      |  _ <  __/ |_) | (_) |     | |  | | (_| | | | | | | |_\r\n    //    |_| \\__, | .__/ \\___|      |_| \\_\\___| .__/ \\___/      |_|  |_|\\__, |_| |_| |_|\\__|\r\n    //        |___/|_|                         |_|                       |___/\r\n\r\n    function createTypeRepositoryRegistration(bytes32 orgId, bytes32 repositoryId,\r\n            bytes repositoryURI, bytes32[] tags) external {\r\n\r\n        requireOrgExistenceConstraint(orgId, true);\r\n        requireAuthorization(orgId, true);\r\n        requireTypeRepositoryExistenceConstraint(orgId, repositoryId, false);\r\n\r\n        TypeRepositoryRegistration memory typeRepo;\r\n        orgsById[orgId].typeReposById[repositoryId] = typeRepo;\r\n        orgsById[orgId].typeReposById[repositoryId].repositoryId = repositoryId;\r\n        orgsById[orgId].typeReposById[repositoryId].repositoryURI = repositoryURI;\r\n        orgsById[orgId].typeReposById[repositoryId].orgTypeRepoIndex = orgsById[orgId].typeRepoKeys.length;\r\n        orgsById[orgId].typeRepoKeys.push(repositoryId);\r\n\r\n        for (uint i = 0; i < tags.length; i++) {\r\n            addTagToTypeRepositoryRegistration(orgId, repositoryId, tags[i]);\r\n        }\r\n\r\n        emit TypeRepositoryCreated(orgId, repositoryId);\r\n    }\r\n\r\n    function updateTypeRepositoryRegistration(bytes32 orgId, bytes32 repositoryId,\r\n        bytes repositoryURI) external {\r\n\r\n        requireOrgExistenceConstraint(orgId, true);\r\n        requireAuthorization(orgId, true);\r\n        requireTypeRepositoryExistenceConstraint(orgId, repositoryId, true);\r\n\r\n        orgsById[orgId].typeReposById[repositoryId].repositoryURI = repositoryURI;\r\n\r\n        emit TypeRepositoryModified(orgId, repositoryId);\r\n    }\r\n\r\n    function addTagsToTypeRepositoryRegistration(bytes32 orgId, bytes32 repositoryId, bytes32[] tags) external {\r\n\r\n        requireOrgExistenceConstraint(orgId, true);\r\n        requireAuthorization(orgId, true);\r\n        requireTypeRepositoryExistenceConstraint(orgId, repositoryId, true);\r\n\r\n        for (uint i = 0; i < tags.length; i++) {\r\n            addTagToTypeRepositoryRegistration(orgId, repositoryId, tags[i]);\r\n        }\r\n\r\n        emit TypeRepositoryModified(orgId, repositoryId);\r\n    }\r\n\r\n    function addTagToTypeRepositoryRegistration(bytes32 orgId, bytes32 repositoryId, bytes32 tagName) internal {\r\n\r\n        // no-op if tag already exists\r\n        if (orgsById[orgId].typeReposById[repositoryId].tagsByName[tagName].tagName == bytes32(0x0)) {\r\n            // add the tag to the type repository level tag index\r\n            Tag memory tagObj;\r\n            orgsById[orgId].typeReposById[repositoryId].tagsByName[tagName] = tagObj;\r\n            orgsById[orgId].typeReposById[repositoryId].tagsByName[tagName].tagName = tagName;\r\n            orgsById[orgId].typeReposById[repositoryId].tagsByName[tagName].itemTagIndex = orgsById[orgId].typeReposById[repositoryId].tags.length;\r\n            orgsById[orgId].typeReposById[repositoryId].tagsByName[tagName].globalTagIndex = typeReposByTag[tagName].orgIds.length;\r\n            orgsById[orgId].typeReposById[repositoryId].tags.push(tagName);\r\n\r\n            // add the type repository to the global tag index creating a list object for this tag if it does not already exist\r\n            if (!typeReposByTag[tagName].valid) {\r\n                ServiceOrTypeRepositoryList memory listObj;\r\n                listObj.valid = true;\r\n                typeReposByTag[tagName] = listObj;\r\n                typeRepoTags.push(tagName);\r\n            }\r\n            typeReposByTag[tagName].orgIds.push(orgId);\r\n            typeReposByTag[tagName].itemNames.push(repositoryId);\r\n        }\r\n    }\r\n\r\n    function removeTagsFromTypeRepositoryRegistration(bytes32 orgId, bytes32 repositoryId, bytes32[] tags) external {\r\n\r\n        requireOrgExistenceConstraint(orgId, true);\r\n        requireAuthorization(orgId, true);\r\n        requireTypeRepositoryExistenceConstraint(orgId, repositoryId, true);\r\n\r\n        for (uint i = 0; i < tags.length; i++) {\r\n            removeTagFromTypeRepositoryRegistration(orgId, repositoryId, tags[i]);\r\n        }\r\n\r\n        emit TypeRepositoryModified(orgId, repositoryId);\r\n    }\r\n\r\n    function removeTagFromTypeRepositoryRegistration(bytes32 orgId, bytes32 repositoryId, bytes32 tagName) internal {\r\n\r\n        // no-op if tag doesnt exist\r\n        if (orgsById[orgId].typeReposById[repositoryId].tagsByName[tagName].tagName != bytes32(0x0)) {\r\n\r\n            // swap type repository registration lut entries\r\n            uint tagIndexToReplace = orgsById[orgId].typeReposById[repositoryId].tagsByName[tagName].itemTagIndex;\r\n            bytes32 tagNameToMove = orgsById[orgId].typeReposById[repositoryId].tags[orgsById[orgId].typeReposById[repositoryId].tags.length-1];\r\n\r\n            // no-op if we are deleting the last item\r\n            if (tagIndexToReplace != orgsById[orgId].typeReposById[repositoryId].tags.length-1) {\r\n\r\n                orgsById[orgId].typeReposById[repositoryId].tags[tagIndexToReplace] = tagNameToMove;\r\n                orgsById[orgId].typeReposById[repositoryId].tagsByName[tagNameToMove].itemTagIndex = tagIndexToReplace;\r\n            }\r\n\r\n            orgsById[orgId].typeReposById[repositoryId].tags.length--;\r\n\r\n            // swap global tag index lut entries\r\n            tagIndexToReplace = orgsById[orgId].typeReposById[repositoryId].tagsByName[tagName].globalTagIndex;\r\n            uint tagIndexToMove = typeReposByTag[tagName].orgIds.length-1;\r\n\r\n            // no-op if we are deleting the last item\r\n            if (tagIndexToMove != tagIndexToReplace) {\r\n                bytes32 orgIdToMove  = typeReposByTag[tagName].orgIds[tagIndexToMove];\r\n                bytes32 repoNameToMove = typeReposByTag[tagName].itemNames[tagIndexToMove];\r\n\r\n                typeReposByTag[tagName].orgIds[tagIndexToReplace]  = orgIdToMove;\r\n                typeReposByTag[tagName].itemNames[tagIndexToReplace] = repoNameToMove;\r\n\r\n                orgsById[orgIdToMove].typeReposById[repoNameToMove].tagsByName[tagName].globalTagIndex = tagIndexToReplace;\r\n            }\r\n\r\n            typeReposByTag[tagName].orgIds.length--;\r\n            typeReposByTag[tagName].itemNames.length--;\r\n\r\n            // delete contents of the tag entry\r\n            delete orgsById[orgId].typeReposById[repositoryId].tagsByName[tagName];\r\n        }\r\n    }\r\n\r\n    function deleteTypeRepositoryRegistration(bytes32 orgId, bytes32 repositoryId) external {\r\n\r\n        requireOrgExistenceConstraint(orgId, true);\r\n        requireAuthorization(orgId, true);\r\n        requireTypeRepositoryExistenceConstraint(orgId, repositoryId, true);\r\n\r\n        deleteTypeRepositoryRegistrationInternal(orgId, repositoryId);\r\n\r\n        emit TypeRepositoryDeleted(orgId, repositoryId);\r\n    }\r\n\r\n    function deleteTypeRepositoryRegistrationInternal(bytes32 orgId, bytes32 repositoryId) internal {\r\n\r\n        // delete the tags associated with the type repo\r\n        for (uint i = orgsById[orgId].typeReposById[repositoryId].tags.length; i > 0; i--) {\r\n            removeTagFromTypeRepositoryRegistration(orgId, repositoryId, orgsById[orgId].typeReposById[repositoryId].tags[i-1]);\r\n        }\r\n\r\n        // swap lut entries\r\n        uint    indexToUpdate    = orgsById[orgId].typeReposById[repositoryId].orgTypeRepoIndex;\r\n        bytes32 typeRepoToUpdate = orgsById[orgId].typeRepoKeys[orgsById[orgId].typeRepoKeys.length-1];\r\n\r\n        // no-op if we are deleting the last item\r\n        if (orgsById[orgId].typeRepoKeys[indexToUpdate] != typeRepoToUpdate) {\r\n            orgsById[orgId].typeRepoKeys[indexToUpdate] = typeRepoToUpdate;\r\n            orgsById[orgId].typeReposById[typeRepoToUpdate].orgTypeRepoIndex = indexToUpdate;\r\n        }\r\n\r\n        orgsById[orgId].typeRepoKeys.length--;\r\n\r\n        // delete contents of repo registration\r\n        delete orgsById[orgId].typeReposById[repositoryId];\r\n    }\r\n\r\n    //    ____      _   _\r\n    //   / ___| ___| |_| |_ ___ _ __ ___\r\n    //  | |  _ / _ \\ __| __/ _ \\ '__/ __|\r\n    //  | |_| |  __/ |_| |_  __/ |  \\__ \\\r\n    //   \\____|\\___|\\__|\\__\\___|_|  |___/\r\n    //\r\n\r\n    function listOrganizations() external view returns (bytes32[] orgIds) {\r\n        return orgKeys;\r\n    }\r\n\r\n    function getOrganizationById(bytes32 orgId) external view\r\n            returns(bool found, bytes32 id, address owner, address[] members, bytes32[] serviceIds, bytes32[] repositoryIds) {\r\n\r\n        // check to see if this organization exists\r\n        if(orgsById[orgId].organizationId == bytes32(0x0)) {\r\n            found = false;\r\n            return;\r\n        }\r\n\r\n        found = true;\r\n        id = orgsById[orgId].organizationId;\r\n        owner = orgsById[orgId].owner;\r\n        members = orgsById[orgId].memberKeys;\r\n        serviceIds = orgsById[orgId].serviceKeys;\r\n        repositoryIds = orgsById[orgId].typeRepoKeys;\r\n    }\r\n\r\n    function listServicesForOrganization(bytes32 orgId) external view returns (bool found, bytes32[] serviceIds) {\r\n\r\n        // check to see if this organization exists\r\n        if(orgsById[orgId].organizationId == bytes32(0x0)) {\r\n            found = false;\r\n            return;\r\n        }\r\n\r\n        found = true;\r\n        serviceIds = orgsById[orgId].serviceKeys;\r\n    }\r\n\r\n    function getServiceRegistrationById(bytes32 orgId, bytes32 serviceId) external view\r\n            returns (bool found, bytes32 id, bytes metadataURI, bytes32[] tags) {\r\n\r\n        // check to see if this organization exists\r\n        if(orgsById[orgId].organizationId == bytes32(0x0)) {\r\n            found = false;\r\n            return;\r\n        }\r\n\r\n        // check to see if this repo exists\r\n        if(orgsById[orgId].servicesById[serviceId].serviceId == bytes32(0x0)) {\r\n            found = false;\r\n            return;\r\n        }\r\n\r\n        found        = true;\r\n        id           = orgsById[orgId].servicesById[serviceId].serviceId;\r\n        metadataURI  = orgsById[orgId].servicesById[serviceId].metadataURI;\r\n        tags         = orgsById[orgId].servicesById[serviceId].tags;\r\n    }\r\n\r\n    function listTypeRepositoriesForOrganization(bytes32 orgId) external view returns (bool found, bytes32[] repositoryIds) {\r\n\r\n        // check to see if this organization exists\r\n        if(orgsById[orgId].organizationId == bytes32(0x0)) {\r\n            found = false;\r\n            return;\r\n        }\r\n\r\n        found = true;\r\n        repositoryIds = orgsById[orgId].typeRepoKeys;\r\n    }\r\n\r\n    function getTypeRepositoryById(bytes32 orgId, bytes32 repositoryId) external view\r\n            returns (bool found, bytes32 id, bytes repositoryURI, bytes32[] tags) {\r\n\r\n        // check to see if this organization exists\r\n        if(orgsById[orgId].organizationId == bytes32(0x0)) {\r\n            found = false;\r\n            return;\r\n        }\r\n\r\n        // check to see if this repo exists\r\n        if(orgsById[orgId].typeReposById[repositoryId].repositoryId == bytes32(0x0)) {\r\n            found = false;\r\n            return;\r\n        }\r\n\r\n        found = true;\r\n        id = repositoryId;\r\n        repositoryURI = orgsById[orgId].typeReposById[repositoryId].repositoryURI;\r\n        tags = orgsById[orgId].typeReposById[repositoryId].tags;\r\n    }\r\n\r\n    function listServiceTags() external view returns (bytes32[] tags) {\r\n        return serviceTags;\r\n    }\r\n\r\n    function listServicesForTag(bytes32 tag) external view returns (bytes32[] orgIds, bytes32[] serviceIds) {\r\n        orgIds = servicesByTag[tag].orgIds;\r\n        serviceIds = servicesByTag[tag].itemNames;\r\n    }\r\n\r\n    function listTypeRepositoryTags() external view returns (bytes32[] tags) {\r\n        return typeRepoTags;\r\n    }\r\n\r\n    function listTypeRepositoriesForTag(bytes32 tag) external view returns (bytes32[] orgIds, bytes32[] repositoryIds) {\r\n        orgIds = typeReposByTag[tag].orgIds;\r\n        repositoryIds = typeReposByTag[tag].itemNames;\r\n    }\r\n\r\n    // ERC165: https://eips.ethereum.org/EIPS/eip-165\r\n    function supportsInterface(bytes4 interfaceID) external view returns (bool) {\r\n        return\r\n            interfaceID == this.supportsInterface.selector || // ERC165\r\n            interfaceID == 0x312efde5; //0x256b3545; // IRegistry\r\n    }\r\n}\r\n",
  "sourcePath": "C:\\MyProjects\\SingularityNet\\platform-contracts\\platform-contracts\\contracts\\Registry.sol",
  "compiler": {
    "name": "solc",
    "version": "0.4.24+commit.e67f0147.Emscripten.clang"
  },
  "schemaVersion": "2.0.1",
  "updatedAt": "2018-12-06T19:48:31.562Z"
}