{
  "contractName": "Registry",
  "abi": [
    {
      "constant": false,
      "inputs": [
        {
          "name": "orgName",
          "type": "bytes32"
        },
        {
          "name": "members",
          "type": "address[]"
        }
      ],
      "name": "createOrganization",
      "outputs": [],
      "payable": false,
      "stateMutability": "nonpayable",
      "type": "function"
    },
    {
      "constant": false,
      "inputs": [
        {
          "name": "orgName",
          "type": "bytes32"
        },
        {
          "name": "newOwner",
          "type": "address"
        }
      ],
      "name": "changeOrganizationOwner",
      "outputs": [],
      "payable": false,
      "stateMutability": "nonpayable",
      "type": "function"
    },
    {
      "constant": false,
      "inputs": [
        {
          "name": "orgName",
          "type": "bytes32"
        },
        {
          "name": "newMembers",
          "type": "address[]"
        }
      ],
      "name": "addOrganizationMembers",
      "outputs": [],
      "payable": false,
      "stateMutability": "nonpayable",
      "type": "function"
    },
    {
      "constant": false,
      "inputs": [
        {
          "name": "orgName",
          "type": "bytes32"
        },
        {
          "name": "existingMembers",
          "type": "address[]"
        }
      ],
      "name": "removeOrganizationMembers",
      "outputs": [],
      "payable": false,
      "stateMutability": "nonpayable",
      "type": "function"
    },
    {
      "constant": false,
      "inputs": [
        {
          "name": "orgName",
          "type": "bytes32"
        }
      ],
      "name": "deleteOrganization",
      "outputs": [],
      "payable": false,
      "stateMutability": "nonpayable",
      "type": "function"
    },
    {
      "constant": false,
      "inputs": [
        {
          "name": "orgName",
          "type": "bytes32"
        },
        {
          "name": "serviceName",
          "type": "bytes32"
        },
        {
          "name": "servicePath",
          "type": "bytes32"
        },
        {
          "name": "agentAddress",
          "type": "address"
        },
        {
          "name": "tags",
          "type": "bytes32[]"
        }
      ],
      "name": "createServiceRegistration",
      "outputs": [],
      "payable": false,
      "stateMutability": "nonpayable",
      "type": "function"
    },
    {
      "constant": false,
      "inputs": [
        {
          "name": "orgName",
          "type": "bytes32"
        },
        {
          "name": "serviceName",
          "type": "bytes32"
        },
        {
          "name": "servicePath",
          "type": "bytes32"
        },
        {
          "name": "agentAddress",
          "type": "address"
        }
      ],
      "name": "updateServiceRegistration",
      "outputs": [],
      "payable": false,
      "stateMutability": "nonpayable",
      "type": "function"
    },
    {
      "constant": false,
      "inputs": [
        {
          "name": "orgName",
          "type": "bytes32"
        },
        {
          "name": "serviceName",
          "type": "bytes32"
        },
        {
          "name": "tags",
          "type": "bytes32[]"
        }
      ],
      "name": "addTagsToServiceRegistration",
      "outputs": [],
      "payable": false,
      "stateMutability": "nonpayable",
      "type": "function"
    },
    {
      "constant": false,
      "inputs": [
        {
          "name": "orgName",
          "type": "bytes32"
        },
        {
          "name": "serviceName",
          "type": "bytes32"
        },
        {
          "name": "tags",
          "type": "bytes32[]"
        }
      ],
      "name": "removeTagsFromServiceRegistration",
      "outputs": [],
      "payable": false,
      "stateMutability": "nonpayable",
      "type": "function"
    },
    {
      "constant": false,
      "inputs": [
        {
          "name": "orgName",
          "type": "bytes32"
        },
        {
          "name": "serviceName",
          "type": "bytes32"
        }
      ],
      "name": "deleteServiceRegistration",
      "outputs": [],
      "payable": false,
      "stateMutability": "nonpayable",
      "type": "function"
    },
    {
      "constant": false,
      "inputs": [
        {
          "name": "orgName",
          "type": "bytes32"
        },
        {
          "name": "repositoryName",
          "type": "bytes32"
        },
        {
          "name": "repositoryPath",
          "type": "bytes32"
        },
        {
          "name": "repositoryURI",
          "type": "bytes"
        },
        {
          "name": "tags",
          "type": "bytes32[]"
        }
      ],
      "name": "createTypeRepositoryRegistration",
      "outputs": [],
      "payable": false,
      "stateMutability": "nonpayable",
      "type": "function"
    },
    {
      "constant": false,
      "inputs": [
        {
          "name": "orgName",
          "type": "bytes32"
        },
        {
          "name": "repositoryName",
          "type": "bytes32"
        },
        {
          "name": "repositoryPath",
          "type": "bytes32"
        },
        {
          "name": "repositoryURI",
          "type": "bytes"
        }
      ],
      "name": "updateTypeRepositoryRegistration",
      "outputs": [],
      "payable": false,
      "stateMutability": "nonpayable",
      "type": "function"
    },
    {
      "constant": false,
      "inputs": [
        {
          "name": "orgName",
          "type": "bytes32"
        },
        {
          "name": "repositoryName",
          "type": "bytes32"
        },
        {
          "name": "tags",
          "type": "bytes32[]"
        }
      ],
      "name": "addTagsToTypeRepositoryRegistration",
      "outputs": [],
      "payable": false,
      "stateMutability": "nonpayable",
      "type": "function"
    },
    {
      "constant": false,
      "inputs": [
        {
          "name": "orgName",
          "type": "bytes32"
        },
        {
          "name": "repositoryName",
          "type": "bytes32"
        },
        {
          "name": "tags",
          "type": "bytes32[]"
        }
      ],
      "name": "removeTagsFromTypeRepositoryRegistration",
      "outputs": [],
      "payable": false,
      "stateMutability": "nonpayable",
      "type": "function"
    },
    {
      "constant": false,
      "inputs": [
        {
          "name": "orgName",
          "type": "bytes32"
        },
        {
          "name": "repositoryName",
          "type": "bytes32"
        }
      ],
      "name": "deleteTypeRepositoryRegistration",
      "outputs": [],
      "payable": false,
      "stateMutability": "nonpayable",
      "type": "function"
    },
    {
      "constant": true,
      "inputs": [],
      "name": "listOrganizations",
      "outputs": [
        {
          "name": "orgNames",
          "type": "bytes32[]"
        }
      ],
      "payable": false,
      "stateMutability": "view",
      "type": "function"
    },
    {
      "constant": true,
      "inputs": [
        {
          "name": "orgName",
          "type": "bytes32"
        }
      ],
      "name": "getOrganizationByName",
      "outputs": [
        {
          "name": "found",
          "type": "bool"
        },
        {
          "name": "name",
          "type": "bytes32"
        },
        {
          "name": "owner",
          "type": "address"
        },
        {
          "name": "serviceNames",
          "type": "bytes32[]"
        },
        {
          "name": "repositoryNames",
          "type": "bytes32[]"
        }
      ],
      "payable": false,
      "stateMutability": "view",
      "type": "function"
    },
    {
      "constant": true,
      "inputs": [
        {
          "name": "orgName",
          "type": "bytes32"
        }
      ],
      "name": "listServicesForOrganization",
      "outputs": [
        {
          "name": "found",
          "type": "bool"
        },
        {
          "name": "serviceNames",
          "type": "bytes32[]"
        }
      ],
      "payable": false,
      "stateMutability": "view",
      "type": "function"
    },
    {
      "constant": true,
      "inputs": [
        {
          "name": "orgName",
          "type": "bytes32"
        },
        {
          "name": "serviceName",
          "type": "bytes32"
        }
      ],
      "name": "getServiceRegistrationByName",
      "outputs": [
        {
          "name": "found",
          "type": "bool"
        },
        {
          "name": "name",
          "type": "bytes32"
        },
        {
          "name": "path",
          "type": "bytes32"
        },
        {
          "name": "agentAddress",
          "type": "address"
        },
        {
          "name": "tags",
          "type": "bytes32[]"
        }
      ],
      "payable": false,
      "stateMutability": "view",
      "type": "function"
    },
    {
      "constant": true,
      "inputs": [
        {
          "name": "orgName",
          "type": "bytes32"
        }
      ],
      "name": "listTypeRepositoriesForOrganization",
      "outputs": [
        {
          "name": "found",
          "type": "bool"
        },
        {
          "name": "repositoryNames",
          "type": "bytes32[]"
        }
      ],
      "payable": false,
      "stateMutability": "view",
      "type": "function"
    },
    {
      "constant": true,
      "inputs": [
        {
          "name": "orgName",
          "type": "bytes32"
        },
        {
          "name": "repositoryName",
          "type": "bytes32"
        }
      ],
      "name": "getTypeRepositoryByName",
      "outputs": [
        {
          "name": "found",
          "type": "bool"
        },
        {
          "name": "name",
          "type": "bytes32"
        },
        {
          "name": "path",
          "type": "bytes32"
        },
        {
          "name": "uri",
          "type": "bytes"
        },
        {
          "name": "tags",
          "type": "bytes32[]"
        }
      ],
      "payable": false,
      "stateMutability": "view",
      "type": "function"
    },
    {
      "constant": true,
      "inputs": [],
      "name": "listServiceTags",
      "outputs": [
        {
          "name": "tags",
          "type": "bytes32[]"
        }
      ],
      "payable": false,
      "stateMutability": "view",
      "type": "function"
    },
    {
      "constant": true,
      "inputs": [
        {
          "name": "tag",
          "type": "bytes32"
        }
      ],
      "name": "listServicesForTag",
      "outputs": [
        {
          "name": "orgNames",
          "type": "bytes32[]"
        },
        {
          "name": "serviceNames",
          "type": "bytes32[]"
        }
      ],
      "payable": false,
      "stateMutability": "view",
      "type": "function"
    },
    {
      "constant": true,
      "inputs": [],
      "name": "listTypeRepositoryTags",
      "outputs": [
        {
          "name": "tags",
          "type": "bytes32[]"
        }
      ],
      "payable": false,
      "stateMutability": "view",
      "type": "function"
    },
    {
      "constant": true,
      "inputs": [
        {
          "name": "tag",
          "type": "bytes32"
        }
      ],
      "name": "listTypeRepositoriesForTag",
      "outputs": [
        {
          "name": "orgNames",
          "type": "bytes32[]"
        },
        {
          "name": "repositoryNames",
          "type": "bytes32[]"
        }
      ],
      "payable": false,
      "stateMutability": "view",
      "type": "function"
    }
  ],
  "bytecode": "0x608060405234801561001057600080fd5b50612a63806100206000396000f3006080604052600436106101485763ffffffff7c0100000000000000000000000000000000000000000000000000000000600035041663013be2e0811461014d5780632cd4984914610177578063340d84e51461024e5780633a2cb860146102b35780633d408ac01461032a578063520e855b146103c35780635a1589d5146103d85780636928848d14610404578063692c8a921461041c578063781d69d2146104cd57806383c83b79146104f15780638bd79dc81461051b5780638e07e977146105535780639aad8d9d1461057b578063acd298d314610596578063afab986c146105ae578063b7251655146105d6578063bb82354f146105eb578063ca62968a14610603578063ca6993d41461062b578063ca97758c14610664578063d2e544f71461067f578063d9219d28146106a3578063e443852d146106c7578063e5ae53e2146106eb575b600080fd5b34801561015957600080fd5b50610175600480359060248035916044359182019101356107c2565b005b34801561018357600080fd5b5061018f600435610822565b6040805186151581526020808201879052600160a060020a0386169282019290925260a060608201818152855191830191909152845191929091608084019160c0850191878201910280838360005b838110156101f65781810151838201526020016101de565b50505050905001838103825284818151815260200191508051906020019060200280838360005b8381101561023557818101518382015260200161021d565b5050505090500197505050505050505060405180910390f35b34801561025a57600080fd5b50610263610931565b60408051602080825283518183015283519192839290830191858101910280838360005b8381101561029f578181015183820152602001610287565b505050509050019250505060405180910390f35b3480156102bf57600080fd5b506102cb60043561098b565b604051808315151515815260200180602001828103825283818151815260200191508051906020019060200280838360005b838110156103155781810151838201526020016102fd565b50505050905001935050505060405180910390f35b34801561033657600080fd5b50610345600435602435610a14565b6040805186151581526020808201879052918101859052600160a060020a038416606082015260a06080820181815284519183019190915283519192909160c0840191858101910280838360005b838110156103ab578181015183820152602001610393565b50505050905001965050505050505060405180910390f35b3480156103cf57600080fd5b50610263610afe565b3480156103e457600080fd5b506101756004803590602480359160443591606435908101910135610b55565b34801561041057600080fd5b50610175600435610bb0565b34801561042857600080fd5b50610434600435610d56565b604051808060200180602001838103835285818151815260200191508051906020019060200280838360005b83811015610478578181015183820152602001610460565b50505050905001838103825284818151815260200191508051906020019060200280838360005b838110156104b757818101518382015260200161049f565b5050505090500194505050505060405180910390f35b3480156104d957600080fd5b50610175600480359060248035908101910135610e23565b3480156104fd57600080fd5b50610175600435602435604435600160a060020a0360643516610f79565b34801561052757600080fd5b506101756004803590602480359160443591606435808201929081013591608435908101910135610fe0565b34801561055f57600080fd5b5061017560048035906024803591604435918201910135611128565b34801561058757600080fd5b50610175600435602435611181565b3480156105a257600080fd5b506104346004356111b1565b3480156105ba57600080fd5b506101756004803590602480359160443591820191013561127e565b3480156105e257600080fd5b506102636112c7565b3480156105f757600080fd5b506102cb60043561131e565b34801561060f57600080fd5b50610175600480359060248035916044359182019101356113a4565b34801561063757600080fd5b506101756004803590602480359160443591600160a060020a0360643516916084359182019101356113fd565b34801561067057600080fd5b50610175600435602435611534565b34801561068b57600080fd5b50610175600480359060248035908101910135611560565b3480156106af57600080fd5b506101756004803590602480359081019101356115e1565b3480156106d357600080fd5b50610175600435600160a060020a0360243516611662565b3480156106f757600080fd5b506107066004356024356116ab565b604080518615158152602080820187905291810185905260a060608201818152855191830191909152845191929091608084019160c08501919087019080838360005b83811015610761578181015183820152602001610749565b50505050905090810190601f16801561078e5780820380516001836020036101000a031916815260200191505b508381038252845181528451602091820191808701910280838360008381101561023557818101518382015260200161021d565b60006107cf856001611827565b6107da8560016118fb565b6107e68585600161199e565b5060005b8181101561081b57610813858585858581811061080357fe5b9050602002013560001916611a93565b6001016107ea565b5050505050565b60008181526001602052604081205481908190606090819015156108495760009450610928565b60008681526001602081815260409283902080548184015460039092018054865181860281018601909752808752949a50909850600160a060020a03909116965091908301828280156108bc57602002820191906000526020600020905b815481526001909101906020018083116108a7575b5050506000898152600160209081526040918290206004018054835181840281018401909452808452959750919491935090915083018282801561092057602002820191906000526020600020905b8154815260019091019060200180831161090b575b505050505090505b91939590929450565b6060600080548060200260200160405190810160405280929190818152602001828054801561098057602002820191906000526020600020905b8154815260019091019060200180831161096b575b505050505090505b90565b60008181526001602052604081205460609015156109ac5760009150610a0f565b60008381526001602081815260409283902060030180548451818402810184019095528085529295509190830182828015610a0757602002820191906000526020600020905b815481526001909101906020018083116109f2575b505050505090505b915091565b6000828152600160205260408120548190819081906060901515610a3b5760009450610af4565b60008781526001602090815260408083208984526005019091529020541515610a675760009450610af4565b60008781526001602081815260408084208a8552600501825292839020805481840154600283015460039093018054875181870281018701909852808852959b509199509750600160a060020a0390911695509190830182828015610aec57602002820191906000526020600020905b81548152600190910190602001808311610ad7575b505050505090505b9295509295909350565b6060600380548060200260200160405190810160405280929190818152602001828054801561098057602002820191906000526020600020908154815260019091019060200180831161096b575050505050905090565b610b60856001611827565b610b6b8560016118fb565b610b7785856001611d8c565b6000858152600160208181526040808420888552600601909152909120908101849055610ba8906002018383612788565b505050505050565b600080600080610bc1856001611827565b610bcc8560006118fb565b60008581526001602052604090206003015493505b6000841115610c2d5760008581526001602052604090206003018054610c219187916000198801908110610c1157fe5b9060005260206000200154611e77565b60001990930192610be1565b60008581526001602052604090206004015492505b6000831115610c8e5760008581526001602052604090206004018054610c829187916000198701908110610c7257fe5b9060005260206000200154612009565b60001990920191610c42565b60008581526001602052604081206007015481549093506000198101908110610cb357fe5b9060005260206000200154905080600083815481101515610cd057fe5b6000918252602080832090910192909255828152600190915260408120600701839055805490610d04906000198301612806565b50600085815260016020819052604082208281559081018054600160a060020a031916905590610d37600383018261282a565b610d4560048301600061282a565b600782016000905550505050505050565b6000818152600560209081526040918290206001018054835181840281018401909452808452606093849390929190830182828015610db557602002820191906000526020600020905b81548152600190910190602001808311610da0575b50505060008681526005602090815260409182902060020180548351818402810184019094528084529597509194919350909150830182828015610a075760200282019190600052602060002090815481526001909101906020018083116109f25750505050509050915091565b610e2b61284b565b6000610e38856000611827565b60008581526001602081815260409283902085518155858201519281018054600160a060020a031916600160a060020a03909416939093179092559184015180518593610e8c926003850192910190612887565b5060608201518051610ea8916004840191602090910190612887565b5060809190910151600791820155600086815260016020819052604082208881558082018054600160a060020a0319163317905582549301839055820181558080527f290decd9548b62a8d60345a988386fc84ba6bc95484008f6362f93160ef3e56390910186905590505b8281101561081b57600085815260016020819052604082209091600290910190868685818110610f4057fe5b60209081029290920135600160a060020a0316835250810191909152604001600020805460ff1916911515919091179055600101610f14565b610f84846001611827565b610f8f8460016118fb565b610f9b8484600161199e565b60009384526001602081815260408087209587526005909501905292909320918201556002018054600160a060020a031916600160a060020a03909216919091179055565b610fe86128c4565b6000610ff5896001611827565b6110008960016118fb565b61100c89896000611d8c565b60008981526001602081815260408084208c855260060182529283902085518155818601519281019290925591840151805185936110519260028501929101906128fa565b506060820151805161106d916003840191602090910190612887565b506080919091015160059091015560008981526001602081815260408084208c85526006019091529091208981559081018890556110af906002018787612788565b505060008881526001602081815260408084206004810180548d875260069092018452918520600501819055838352928301815583528220018890555b8281101561111d57611115898986868581811061110557fe5b9050602002013560001916612184565b6001016110ec565b505050505050505050565b6000611135856001611827565b6111408560016118fb565b61114c8585600161199e565b5060005b8181101561081b57611179858585858581811061116957fe5b9050602002013560001916612309565b600101611150565b61118c826001611827565b6111978260016118fb565b6111a382826001611d8c565b6111ad8282612009565b5050565b600081815260046020908152604091829020600101805483518184028101840190945280845260609384939092919083018282801561121057602002820191906000526020600020905b815481526001909101906020018083116111fb575b50505060008681526004602090815260409182902060020180548351818402810184019094528084529597509194919350909150830182828015610a075760200282019190600052602060002090815481526001909101906020018083116109f25750505050509050915091565b600061128b856001611827565b6112968560016118fb565b6112a285856001611d8c565b5060005b8181101561081b576112bf858585858581811061110557fe5b6001016112a6565b6060600280548060200260200160405190810160405280929190818152602001828054801561098057602002820191906000526020600020908154815260019091019060200180831161096b575050505050905090565b600081815260016020526040812054606090151561133f5760009150610a0f565b60008381526001602081815260409283902060040180548451818402810184019095528085529295509190830182828015610a075760200282019190600052602060002090815481526001909101906020018083116109f25750505050509050915091565b60006113b1856001611827565b6113bc8560016118fb565b6113c885856001611d8c565b5060005b8181101561081b576113f585858585858181106113e557fe5b905060200201356000191661248e565b6001016113cc565b611405612968565b6000611412886001611827565b61141d8860016118fb565b6114298888600061199e565b60008881526001602081815260408084208b855260050182529283902085518155858201519281019290925591840151600282018054600160a060020a031916600160a060020a03909216919091179055606084015180518593611494926003850192910190612887565b506080919091015160059182015560008981526001602081815260408084208c855280860183529084208c81558084018c9055600281018054600160a060020a031916600160a060020a038d161790556003909101805491909501819055828252918201845592825291812090910188905590505b8281101561152a57611522888886868581811061116957fe5b600101611509565b5050505050505050565b61153f826001611827565b61154a8260016118fb565b6115568282600161199e565b6111ad8282611e77565b600061156d846001611827565b6115788460016118fb565b5060005b818110156115db576000848152600160205260408120600201818585858181106115a257fe5b60209081029290920135600160a060020a0316835250810191909152604001600020805460ff191691151591909117905560010161157c565b50505050565b60006115ee846001611827565b6115f98460016118fb565b5060005b818110156115db5760008481526001602081905260408220909160029091019085858581811061162957fe5b60209081029290920135600160a060020a0316835250810191909152604001600020805460ff19169115159190911790556001016115fd565b61166d826001611827565b6116788260006118fb565b60009182526001602081905260409092209091018054600160a060020a031916600160a060020a03909216919091179055565b60008281526001602052604081205481908190606090819015156116d25760009450610af4565b600087815260016020908152604080832089845260060190915290205415156116fe5760009450610af4565b60008781526001602081815260408084208a85526006018252928390208083015460029182018054865160001982881615610100020190911693909304601f81018590048502840185019096528583529399508a9850965092908301828280156117a95780601f1061177e576101008083540402835291602001916117a9565b820191906000526020600020905b81548152906001019060200180831161178c57829003601f168201915b50505060008a81526001602090815260408083208c845260060182529182902060030180548351818402810184019094528084529597509194919350909150830182828015610aec576020028201919060005260206000209081548152600190910190602001808311610ad757505050505090509295509295909350565b8015611897576000828152600160205260409020541515611892576040805160e560020a62461bcd02815260206004820152601260248201527f6f726720646f6573206e6f742065786973740000000000000000000000000000604482015290519081900360640190fd5b6111ad565b600082815260016020526040902054156111ad576040805160e560020a62461bcd02815260206004820152601260248201527f6f726720616c7265616479206578697374730000000000000000000000000000604482015290519081900360640190fd5b60008281526001602081905260409091200154600160a060020a031633148061194857508080156119485750600082815260016020908152604080832033845260020190915290205460ff165b15156111ad576040805160e560020a62461bcd02815260206004820152601760248201527f756e617574686f72697a656420696e766f636174696f6e000000000000000000604482015290519081900360640190fd5b8015611a1c5760008381526001602090815260408083208584526005019091529020541515611a17576040805160e560020a62461bcd02815260206004820152601660248201527f7365727669636520646f6573206e6f7420657869737400000000000000000000604482015290519081900360640190fd5b611a8e565b600083815260016020908152604080832085845260050190915290205415611a8e576040805160e560020a62461bcd02815260206004820152601660248201527f7365727669636520616c72656164792065786973747300000000000000000000604482015290519081900360640190fd5b505050565b6000838152600160209081526040808320858452600501825280832084845260040190915281205481908190819081901561152a5760008881526001602081815260408084208b85526005018083528185208b865260048101845291852090930154938b90529190526003018054919650906000198101908110611b1357fe5b60009182526020808320909101548a83526001825260408084208b8552600501909252912060030154909450600019018514611bb15760008881526001602090815260408083208a84526005019091529020600301805485919087908110611b7757fe5b6000918252602080832090910192909255898152600180835260408083208b84526005018452808320888452600401909352919020018590555b60008881526001602090815260408083208a84526005019091529020600301805490611be1906000198301612806565b5060008881526001602081815260408084208b855260050182528084208a8552600490810183528185206002015492529092200154909550600019019250828514611d08576000868152600460205260409020600101805484908110611c4357fe5b60009182526020808320909101548883526004909152604090912060020180549193509084908110611c7157fe5b6000918252602080832090910154888352600490915260409091206001018054919250839187908110611ca057fe5b6000918252602080832090910192909255878152600490915260409020600201805482919087908110611ccf57fe5b60009182526020808320909101929092558381526001825260408082208483526005018352808220898352600401909252206002018590555b6000868152600460205260409020600101805490611d2a906000198301612806565b506000868152600460205260409020600201805490611d4d906000198301612806565b5060008881526001602081815260408084208b855260050182528084208a85526004019091528220828155908101829055600201555050505050505050565b8015611e055760008381526001602090815260408083208584526006019091529020541515611a17576040805160e560020a62461bcd02815260206004820152601860248201527f74797065207265706f20646f6573206e6f742065786973740000000000000000604482015290519081900360640190fd5b600083815260016020908152604080832085845260060190915290205415611a8e576040805160e560020a62461bcd02815260206004820152601860248201527f74797065207265706f20616c7265616479206578697374730000000000000000604482015290519081900360640190fd5b600082815260016020908152604080832084845260050190915281206003015490805b6000831115611ef757600085815260016020908152604080832087845260050190915290206003018054611eeb9187918791906000198801908110611edb57fe5b9060005260206000200154611a93565b60001990920191611e9a565b60008581526001602081815260408084208885526005808201845291852090910154938990529190526003018054919350906000198101908110611f3757fe5b6000918252602080832090910154878352600190915260409091206003018054919250829184908110611f6657fe5b6000918252602080832090910192909255868152600180835260408083208584526005808201865291842090910186905591889052909152600301805490611fb2906000198301612806565b5060008581526001602081815260408084208885526005019091528220828155908101829055600281018054600160a060020a031916905590611ff8600383018261282a565b600582016000905550505050505050565b600082815260016020908152604080832084845260060190915281206003015490805b60008311156120895760008581526001602090815260408083208784526006019091529020600301805461207d918791879190600019880190811061206d57fe5b906000526020600020015461248e565b6000199092019161202c565b6000858152600160208181526040808420888552600681018352908420600501549389905291905260040180549193509060001981019081106120c857fe5b60009182526020808320909101548783526001909152604090912060040180549192508291849081106120f757fe5b60009182526020808320909101929092558681526001808352604080832085845260068101855290832060050186905591889052909152600401805490612142906000198301612806565b5060008581526001602081815260408084208885526006019091528220828155908101829055906121766002830182612995565b611ff860038301600061282a565b61218c6129d9565b6121946129f9565b60008581526001602090815260408083208784526006018252808320868452600401909152902054151561081b5760008581526001602081815260408084208885526006018252808420878552600481018352818520878401518186019081558884015160028301908155918a9055600390920180549092556005845291852080850154909255805493840181558452908320909101859055908490525460ff1615156122cc57600180825260008481526005602090815260409091208351815460ff191690151517815581840151805185949293612277938501920190612887565b5060408201518051612293916002840191602090910190612887565b5050600380546001810182556000919091527fc2575a0e9e593c00f959f8c92f12db2869c3395a3b0502d05e2516446f71f85b01849055505b5050600090815260056020908152604082206001808201805480830182559085528385200195909555600201805494850181558252902090910155565b6123116129d9565b6123196129f9565b60008581526001602090815260408083208784526005018252808320868452600401909152902054151561081b576000858152600160208181526040808420888552600501825280842087855260048082018452828620888501518187019081558985015160028301908155918b90556003909301805490935590845291852080850154909255805493840181558452908320909101859055908490525460ff16151561245157600180825260008481526004602090815260409091208351815460ff1916901515178155818401518051859492936123fc938501920190612887565b5060408201518051612418916002840191602090910190612887565b5050600280546001810182556000919091527f405787fa12a823e0f2b7631cc41b3ba8828b3321ca811111fa75cd3aa3bb5ace01849055505b5050600090815260046020908152604082206001808201805480830182559085528385200195909555600201805494850181558252902090910155565b6000838152600160209081526040808320858452600601825280832084845260040190915281205481908190819081901561152a5760008881526001602081815260408084208b85526006018083528185208b865260048101845291852090930154938b9052919052600301805491965090600019810190811061250e57fe5b60009182526020808320909101548a83526001825260408084208b85526006019092529120600301549094506000190185146125ac5760008881526001602090815260408083208a8452600601909152902060030180548591908790811061257257fe5b6000918252602080832090910192909255898152600180835260408083208b84526006018452808320888452600401909352919020018590555b60008881526001602090815260408083208a845260060190915290206003018054906125dc906000198301612806565b5060008881526001602081815260408084208b855260060182528084208a85526004018252808420600201546005909252909220015490955060001901925082851461270457600086815260056020526040902060010180548490811061263f57fe5b6000918252602080832090910154888352600590915260409091206002018054919350908490811061266d57fe5b600091825260208083209091015488835260059091526040909120600101805491925083918790811061269c57fe5b60009182526020808320909101929092558781526005909152604090206002018054829190879081106126cb57fe5b60009182526020808320909101929092558381526001825260408082208483526006018352808220898352600401909252206002018590555b6000868152600560205260409020600101805490612726906000198301612806565b506000868152600560205260409020600201805490612749906000198301612806565b5060008881526001602081815260408084208b855260060182528084208a85526004019091528220828155908101829055600201555050505050505050565b828054600181600116156101000203166002900490600052602060002090601f016020900481019282601f106127c95782800160ff198235161785556127f6565b828001600101855582156127f6579182015b828111156127f65782358255916020019190600101906127db565b50612802929150612a1d565b5090565b815481835581811115611a8e57600083815260209020611a8e918101908301612a1d565b50805460008255906000526020600020908101906128489190612a1d565b50565b60a060405190810160405280600080191681526020016000600160a060020a031681526020016060815260200160608152602001600081525090565b8280548282559060005260206000209081019282156127f6579160200282015b828111156127f657825182556020909201916001909101906128a7565b60a06040519081016040528060008019168152602001600080191681526020016060815260200160608152602001600081525090565b828054600181600116156101000203166002900490600052602060002090601f016020900481019282601f1061293b57805160ff19168380011785556127f6565b828001600101855582156127f6579182015b828111156127f657825182559160200191906001019061294d565b6040805160a081018252600080825260208201819052918101829052606080820152608081019190915290565b50805460018160011615610100020316600290046000825580601f106129bb5750612848565b601f0160209004906000526020600020908101906128489190612a1d565b604080516060810182526000808252602082018190529181019190915290565b60606040519081016040528060001515815260200160608152602001606081525090565b61098891905b808211156128025760008155600101612a235600a165627a7a72305820a138a5e18d596f4bdc1b431b4abcd0b7519d789cafdf221c1d68f3a2a03781d40029",
  "source": "pragma solidity ^0.4.24;\n\nimport \"./IRegistry.sol\";\n\ncontract Registry is IRegistry {\n\n    struct OrganizationRegistration {\n        bytes32 organizationName;\n        address owner;\n        mapping(address => bool) members;\n\n        bytes32[] serviceKeys;\n        bytes32[] typeRepoKeys;\n        mapping(bytes32 => ServiceRegistration) servicesByName;\n        mapping(bytes32 => TypeRepositoryRegistration) typeReposByName;\n\n        uint globalOrgIndex;\n    }\n\n    struct ServiceRegistration {\n        bytes32 serviceName;\n        bytes32 servicePath;\n        address agentAddress;\n\n        bytes32[] tags;\n        mapping(bytes32 => Tag) tagsByName;\n\n        uint orgServiceIndex;\n    }\n\n    struct TypeRepositoryRegistration {\n        bytes32 repositoryName;\n        bytes32 repositoryPath;\n        bytes repositoryURI;\n\n        bytes32[] tags;\n        mapping(bytes32 => Tag) tagsByName;\n\n        uint orgTypeRepoIndex;\n    }\n\n    struct Tag {\n        bytes32 tagName;\n        uint itemTagIndex;\n        uint globalTagIndex;\n    }\n\n    struct ServiceOrTypeRepositoryList {\n        bool valid;\n        bytes32[] orgNames;\n        bytes32[] itemNames;\n    }\n\n    bytes32[] orgKeys;\n    mapping(bytes32 => OrganizationRegistration) orgsByName;\n\n    bytes32[] serviceTags;\n    bytes32[] typeRepoTags;\n    mapping(bytes32 => ServiceOrTypeRepositoryList) servicesByTag;\n    mapping(bytes32 => ServiceOrTypeRepositoryList) typeReposByTag;\n\n    /**\n      * @dev Guard function that forces a revert if the tx sender is unauthorized.\n      *      Always authorizes org owner. Can also authorize org members.\n      *\n      * @param membersAllowed if true, revert when sender is non-owner and non-member, else revert when sender is non-owner\n      */\n    function requireAuthorization(bytes32 orgName, bool membersAllowed) internal view {\n        require(msg.sender == orgsByName[orgName].owner || (membersAllowed && orgsByName[orgName].members[msg.sender])\n            , \"unauthorized invocation\");\n    }\n\n    /**\n      * @dev Guard function that forces a revert if the referenced org does not meet an existence criteria.\n      *\n      * @param exists if true, revert when org does not exist, else revert when org exists\n      */\n    function requireOrgExistenceConstraint(bytes32 orgName, bool exists) internal view {\n        if (exists) {\n            require(orgsByName[orgName].organizationName != bytes32(0x0), \"org does not exist\");\n        } else {\n            require(orgsByName[orgName].organizationName == bytes32(0x0), \"org already exists\");\n        }\n    }\n\n    /**\n      * @dev Guard function that forces a revert if the referenced service does not meet an existence criteria.\n      *\n      * @param exists if true, revert when service does not exist, else revert when service exists\n      */\n    function requireServiceExistenceConstraint(bytes32 orgName, bytes32 serviceName, bool exists) internal view {\n        if (exists) {\n            require(orgsByName[orgName].servicesByName[serviceName].serviceName != bytes32(0x0), \"service does not exist\");\n        } else {\n            require(orgsByName[orgName].servicesByName[serviceName].serviceName == bytes32(0x0), \"service already exists\");\n        }\n    }\n\n    /**\n      * @dev Guard function that forces a revert if the referenced type repository does not meet an existence criteria.\n      *\n      * @param exists if true, revert when type repo does not exist, else revert when type repo exists\n      */\n    function requireTypeRepositoryExistenceConstraint(bytes32 orgName, bytes32 repositoryName, bool exists) internal view {\n        if (exists) {\n            require(orgsByName[orgName].typeReposByName[repositoryName].repositoryName != bytes32(0x0), \"type repo does not exist\");\n        } else {\n            require(orgsByName[orgName].typeReposByName[repositoryName].repositoryName == bytes32(0x0), \"type repo already exists\");\n        }\n    }\n\n    //    ___                        _          _   _                   __  __                 _\n    //   / _ \\ _ __ __ _  __ _ _ __ (_)______ _| |_(_) ___  _ __       |  \\/  | __ _ _ __ ___ | |_\n    //  | | | | '__/ _` |/ _` | '_ \\| |_  / _` | __| |/ _ \\| '_ \\      | |\\/| |/ _` | '_ ` _ \\| __|\n    //  | |_| | | | (_| | (_| | | | | |/ / (_| | |_| | (_) | | | |     | |  | | (_| | | | | | | |_\n    //   \\___/|_|  \\__, |\\__,_|_| |_|_/___\\__,_|\\__|_|\\___/|_| |_|     |_|  |_|\\__, |_| |_| |_|\\__|\n    //             |___/                                                       |___/\n\n    function createOrganization(bytes32 orgName, address[] members) external {\n\n        requireOrgExistenceConstraint(orgName, false);\n\n        OrganizationRegistration memory organization;\n        orgsByName[orgName] = organization;\n        orgsByName[orgName].organizationName = orgName;\n        orgsByName[orgName].owner = msg.sender;\n        orgsByName[orgName].globalOrgIndex = orgKeys.length;\n        orgKeys.push(orgName);\n\n        for (uint i = 0; i < members.length; i++) {\n            orgsByName[orgName].members[members[i]] = true;\n        }\n    }\n\n    function changeOrganizationOwner(bytes32 orgName, address newOwner) external {\n\n        requireOrgExistenceConstraint(orgName, true);\n        requireAuthorization(orgName, false);\n\n        orgsByName[orgName].owner = newOwner;\n    }\n\n    function addOrganizationMembers(bytes32 orgName, address[] newMembers) external {\n\n        requireOrgExistenceConstraint(orgName, true);\n        requireAuthorization(orgName, true);\n\n        for (uint i = 0; i < newMembers.length; i++) {\n            orgsByName[orgName].members[newMembers[i]] = true;\n        }\n    }\n\n    function removeOrganizationMembers(bytes32 orgName, address[] existingMembers) external {\n\n        requireOrgExistenceConstraint(orgName, true);\n        requireAuthorization(orgName, true);\n\n        for (uint i = 0; i < existingMembers.length; i++) {\n            orgsByName[orgName].members[existingMembers[i]] = false;\n        }\n    }\n\n    function deleteOrganization(bytes32 orgName) external {\n\n        requireOrgExistenceConstraint(orgName, true);\n        requireAuthorization(orgName, false);\n\n        for (uint serviceIndex = orgsByName[orgName].serviceKeys.length; serviceIndex > 0; serviceIndex--) {\n            deleteServiceRegistrationInternal(orgName, orgsByName[orgName].serviceKeys[serviceIndex-1]);\n        }\n\n        for (uint repoIndex = orgsByName[orgName].typeRepoKeys.length; repoIndex > 0; repoIndex--) {\n            deleteTypeRepositoryRegistrationInternal(orgName, orgsByName[orgName].typeRepoKeys[repoIndex-1]);\n        }\n\n        // swap lut entries\n        uint    indexToUpdate = orgsByName[orgName].globalOrgIndex;\n        bytes32 orgToUpdate   = orgKeys[orgKeys.length-1];\n\n        orgKeys[indexToUpdate] = orgToUpdate;\n        orgsByName[orgToUpdate].globalOrgIndex = indexToUpdate;\n        orgKeys.length--;\n\n        // delete contents of organization registration\n        delete orgsByName[orgName];\n    }\n\n    //   ____                  _                __  __                 _\n    //  / ___|  ___ _ ____   ___) ___ ___      |  \\/  | __ _ _ __ ___ | |_\n    //  \\___ \\ / _ \\ '__\\ \\ / / |/ __/ _ \\     | |\\/| |/ _` | '_ ` _ \\| __|\n    //   ___) |  __/ |   \\ V /| | (__  __/     | |  | | (_| | | | | | | |_\n    //  |____/ \\___|_|    \\_/ |_|\\___\\___|     |_|  |_|\\__, |_| |_| |_|\\__|\n    //                                                 |___/\n\n    function createServiceRegistration(bytes32 orgName, bytes32 serviceName, bytes32 servicePath, address agentAddress, bytes32[] tags) external {\n\n        requireOrgExistenceConstraint(orgName, true);\n        requireAuthorization(orgName, true);\n        requireServiceExistenceConstraint(orgName, serviceName, false);\n\n        ServiceRegistration memory service;\n        orgsByName[orgName].servicesByName[serviceName] = service;\n        orgsByName[orgName].servicesByName[serviceName].serviceName = serviceName;\n        orgsByName[orgName].servicesByName[serviceName].servicePath = servicePath;\n        orgsByName[orgName].servicesByName[serviceName].agentAddress = agentAddress;\n        orgsByName[orgName].servicesByName[serviceName].orgServiceIndex = orgsByName[orgName].serviceKeys.length;\n        orgsByName[orgName].serviceKeys.push(serviceName);\n\n        for (uint i = 0; i < tags.length; i++) {\n            addTagToServiceRegistration(orgName, serviceName, tags[i]);\n        }\n    }\n\n    function updateServiceRegistration(bytes32 orgName, bytes32 serviceName, bytes32 servicePath, address agentAddress) external {\n\n        requireOrgExistenceConstraint(orgName, true);\n        requireAuthorization(orgName, true);\n        requireServiceExistenceConstraint(orgName, serviceName, true);\n\n        // update the servicePath and agentAddress\n        orgsByName[orgName].servicesByName[serviceName].servicePath = servicePath;\n        orgsByName[orgName].servicesByName[serviceName].agentAddress = agentAddress;\n    }\n\n    function addTagsToServiceRegistration(bytes32 orgName, bytes32 serviceName, bytes32[] tags) external {\n\n        requireOrgExistenceConstraint(orgName, true);\n        requireAuthorization(orgName, true);\n        requireServiceExistenceConstraint(orgName, serviceName, true);\n\n        for (uint i = 0; i < tags.length; i++) {\n            addTagToServiceRegistration(orgName, serviceName, tags[i]);\n        }\n    }\n\n    function addTagToServiceRegistration(bytes32 orgName, bytes32 serviceName, bytes32 tagName) internal {\n\n        // no-op if tag already exists\n        if (orgsByName[orgName].servicesByName[serviceName].tagsByName[tagName].tagName == bytes32(0x0)) {\n            // add the service to the org level tag index\n            Tag memory tagObj;\n            orgsByName[orgName].servicesByName[serviceName].tagsByName[tagName] = tagObj;\n            orgsByName[orgName].servicesByName[serviceName].tagsByName[tagName].tagName = tagName;\n            orgsByName[orgName].servicesByName[serviceName].tagsByName[tagName].itemTagIndex = orgsByName[orgName].servicesByName[serviceName].tags.length;\n            orgsByName[orgName].servicesByName[serviceName].tagsByName[tagName].globalTagIndex = servicesByTag[tagName].orgNames.length;\n            orgsByName[orgName].servicesByName[serviceName].tags.push(tagName);\n\n            // add the service to the global tag index creating a list object for this tag if it does not already exist\n            if (!servicesByTag[tagName].valid) {\n                ServiceOrTypeRepositoryList memory listObj;\n                listObj.valid = true;\n                servicesByTag[tagName] = listObj;\n                serviceTags.push(tagName);\n            }\n\n            servicesByTag[tagName].orgNames.push(orgName);\n            servicesByTag[tagName].itemNames.push(serviceName);\n        }\n    }\n\n    function removeTagsFromServiceRegistration(bytes32 orgName, bytes32 serviceName, bytes32[] tags) external {\n\n        requireOrgExistenceConstraint(orgName, true);\n        requireAuthorization(orgName, true);\n        requireServiceExistenceConstraint(orgName, serviceName, true);\n\n        for (uint i = 0; i < tags.length; i++) {\n            removeTagFromServiceRegistration(orgName, serviceName, tags[i]);\n        }\n    }\n\n    function removeTagFromServiceRegistration(bytes32 orgName, bytes32 serviceName, bytes32 tagName) internal {\n\n        // no-op if tag does not exist\n        if (orgsByName[orgName].servicesByName[serviceName].tagsByName[tagName].tagName != bytes32(0x0)) {\n\n            // swap service registration lut entries\n            uint tagIndexToReplace = orgsByName[orgName].servicesByName[serviceName].tagsByName[tagName].itemTagIndex;\n            bytes32 tagNameToMove = orgsByName[orgName].servicesByName[serviceName].tags[orgsByName[orgName].servicesByName[serviceName].tags.length-1];\n\n            // no-op if we are deleting the last item\n            if (tagIndexToReplace != orgsByName[orgName].servicesByName[serviceName].tags.length-1) {\n                orgsByName[orgName].servicesByName[serviceName].tags[tagIndexToReplace] = tagNameToMove;\n                orgsByName[orgName].servicesByName[serviceName].tagsByName[tagNameToMove].itemTagIndex = tagIndexToReplace;\n            }\n\n            orgsByName[orgName].servicesByName[serviceName].tags.length--;\n\n            // swap global tag index lut entries\n            tagIndexToReplace = orgsByName[orgName].servicesByName[serviceName].tagsByName[tagName].globalTagIndex;\n            uint tagIndexToMove = servicesByTag[tagName].orgNames.length-1;\n\n            // no-op if we are deleting the last item\n            if (tagIndexToMove != tagIndexToReplace) {\n                bytes32 orgNameToMove  = servicesByTag[tagName].orgNames[tagIndexToMove];\n                bytes32 itemNameToMove = servicesByTag[tagName].itemNames[tagIndexToMove];\n\n                servicesByTag[tagName].orgNames[tagIndexToReplace] = orgNameToMove;\n                servicesByTag[tagName].itemNames[tagIndexToReplace] = itemNameToMove;\n\n                orgsByName[orgNameToMove].servicesByName[itemNameToMove].tagsByName[tagName].globalTagIndex = tagIndexToReplace;\n            }\n\n            servicesByTag[tagName].orgNames.length--;\n            servicesByTag[tagName].itemNames.length--;\n\n            // delete contents of the tag entry\n            delete orgsByName[orgName].servicesByName[serviceName].tagsByName[tagName];\n        }\n    }\n\n    function deleteServiceRegistration(bytes32 orgName, bytes32 serviceName) external {\n\n        requireOrgExistenceConstraint(orgName, true);\n        requireAuthorization(orgName, true);\n        requireServiceExistenceConstraint(orgName, serviceName, true);\n\n        deleteServiceRegistrationInternal(orgName, serviceName);\n    }\n\n    function deleteServiceRegistrationInternal(bytes32 orgName, bytes32 serviceName) internal {\n        // delete the tags associated with the service\n        for (uint i = orgsByName[orgName].servicesByName[serviceName].tags.length; i > 0; i--) {\n            removeTagFromServiceRegistration(orgName, serviceName, orgsByName[orgName].servicesByName[serviceName].tags[i-1]);\n        }\n\n        // swap lut entries\n        uint    indexToUpdate   = orgsByName[orgName].servicesByName[serviceName].orgServiceIndex;\n        bytes32 serviceToUpdate = orgsByName[orgName].serviceKeys[orgsByName[orgName].serviceKeys.length-1];\n\n        orgsByName[orgName].serviceKeys[indexToUpdate] = serviceToUpdate;\n        orgsByName[orgName].servicesByName[serviceToUpdate].orgServiceIndex = indexToUpdate;\n        orgsByName[orgName].serviceKeys.length--;\n\n        // delete contents of service registration\n        delete orgsByName[orgName].servicesByName[serviceName];\n    }\n\n    //   _____                        ____                        __  __                 _\n    //  |_   _|   _ _ __   ___       |  _ \\ ___ _ __   ___       |  \\/  | __ _ _ __ ___ | |_\n    //    | || | | | '_ \\ / _ \\      | |_) / _ \\ '_ \\ / _ \\      | |\\/| |/ _` | '_ ` _ \\| __|\n    //    | || |_| | |_) |  __/      |  _ <  __/ |_) | (_) |     | |  | | (_| | | | | | | |_\n    //    |_| \\__, | .__/ \\___|      |_| \\_\\___| .__/ \\___/      |_|  |_|\\__, |_| |_| |_|\\__|\n    //        |___/|_|                         |_|                       |___/\n\n    function createTypeRepositoryRegistration(bytes32 orgName, bytes32 repositoryName, bytes32 repositoryPath,\n            bytes repositoryURI, bytes32[] tags) external {\n\n        requireOrgExistenceConstraint(orgName, true);\n        requireAuthorization(orgName, true);\n        requireTypeRepositoryExistenceConstraint(orgName, repositoryName, false);\n\n        TypeRepositoryRegistration memory typeRepo;\n        orgsByName[orgName].typeReposByName[repositoryName] = typeRepo;\n        orgsByName[orgName].typeReposByName[repositoryName].repositoryName = repositoryName;\n        orgsByName[orgName].typeReposByName[repositoryName].repositoryPath = repositoryPath;\n        orgsByName[orgName].typeReposByName[repositoryName].repositoryURI = repositoryURI;\n        orgsByName[orgName].typeReposByName[repositoryName].orgTypeRepoIndex = orgsByName[orgName].typeRepoKeys.length;\n        orgsByName[orgName].typeRepoKeys.push(repositoryName);\n\n        for (uint i = 0; i < tags.length; i++) {\n            addTagToTypeRepositoryRegistration(orgName, repositoryName, tags[i]);\n        }\n    }\n\n    function updateTypeRepositoryRegistration(bytes32 orgName, bytes32 repositoryName, bytes32 repositoryPath,\n        bytes repositoryURI) external {\n\n        requireOrgExistenceConstraint(orgName, true);\n        requireAuthorization(orgName, true);\n        requireTypeRepositoryExistenceConstraint(orgName, repositoryName, true);\n\n        orgsByName[orgName].typeReposByName[repositoryName].repositoryPath = repositoryPath;\n        orgsByName[orgName].typeReposByName[repositoryName].repositoryURI = repositoryURI;\n    }\n\n    function addTagsToTypeRepositoryRegistration(bytes32 orgName, bytes32 repositoryName, bytes32[] tags) external {\n\n        requireOrgExistenceConstraint(orgName, true);\n        requireAuthorization(orgName, true);\n        requireTypeRepositoryExistenceConstraint(orgName, repositoryName, true);\n\n        for (uint i = 0; i < tags.length; i++) {\n            addTagToTypeRepositoryRegistration(orgName, repositoryName, tags[i]);\n        }\n    }\n\n    function addTagToTypeRepositoryRegistration(bytes32 orgName, bytes32 repositoryName, bytes32 tagName) internal {\n\n        // no-op if tag already exists\n        if (orgsByName[orgName].typeReposByName[repositoryName].tagsByName[tagName].tagName == bytes32(0x0)) {\n            // add the type repository to the org level tag index\n            Tag memory tagObj;\n            orgsByName[orgName].typeReposByName[repositoryName].tagsByName[tagName] = tagObj;\n            orgsByName[orgName].typeReposByName[repositoryName].tagsByName[tagName].tagName = tagName;\n            orgsByName[orgName].typeReposByName[repositoryName].tagsByName[tagName].itemTagIndex = orgsByName[orgName].typeReposByName[repositoryName].tags.length;\n            orgsByName[orgName].typeReposByName[repositoryName].tagsByName[tagName].globalTagIndex = typeReposByTag[tagName].orgNames.length;\n            orgsByName[orgName].typeReposByName[repositoryName].tags.push(tagName);\n\n            // add the type repository to the global tag index creating a list object for this tag if it does not already exist\n            if (!typeReposByTag[tagName].valid) {\n                ServiceOrTypeRepositoryList memory listObj;\n                listObj.valid = true;\n                typeReposByTag[tagName] = listObj;\n                typeRepoTags.push(tagName);\n            }\n            typeReposByTag[tagName].orgNames.push(orgName);\n            typeReposByTag[tagName].itemNames.push(repositoryName);\n        }\n    }\n\n    function removeTagsFromTypeRepositoryRegistration(bytes32 orgName, bytes32 repositoryName, bytes32[] tags) external {\n\n        requireOrgExistenceConstraint(orgName, true);\n        requireAuthorization(orgName, true);\n        requireTypeRepositoryExistenceConstraint(orgName, repositoryName, true);\n\n        for (uint i = 0; i < tags.length; i++) {\n            removeTagFromTypeRepositoryRegistration(orgName, repositoryName, tags[i]);\n        }\n    }\n\n    function removeTagFromTypeRepositoryRegistration(bytes32 orgName, bytes32 repositoryName, bytes32 tagName) internal {\n\n        // no-op if tag doesnt exist\n        if (orgsByName[orgName].typeReposByName[repositoryName].tagsByName[tagName].tagName != bytes32(0x0)) {\n\n            // swap type repository registration lut entries\n            uint tagIndexToReplace = orgsByName[orgName].typeReposByName[repositoryName].tagsByName[tagName].itemTagIndex;\n            bytes32 tagNameToMove = orgsByName[orgName].typeReposByName[repositoryName].tags[orgsByName[orgName].typeReposByName[repositoryName].tags.length-1];\n\n            // no-op if we are deleting the last item\n            if (tagIndexToReplace != orgsByName[orgName].typeReposByName[repositoryName].tags.length-1) {\n\n                orgsByName[orgName].typeReposByName[repositoryName].tags[tagIndexToReplace] = tagNameToMove;\n                orgsByName[orgName].typeReposByName[repositoryName].tagsByName[tagNameToMove].itemTagIndex = tagIndexToReplace;\n            }\n\n            orgsByName[orgName].typeReposByName[repositoryName].tags.length--;\n\n            // swap global tag index lut entries\n            tagIndexToReplace = orgsByName[orgName].typeReposByName[repositoryName].tagsByName[tagName].globalTagIndex;\n            uint tagIndexToMove = typeReposByTag[tagName].orgNames.length-1;\n\n            // no-op if we are deleting the last item\n            if (tagIndexToMove != tagIndexToReplace) {\n                bytes32 orgNameToMove  = typeReposByTag[tagName].orgNames[tagIndexToMove];\n                bytes32 repoNameToMove = typeReposByTag[tagName].itemNames[tagIndexToMove];\n\n                typeReposByTag[tagName].orgNames[tagIndexToReplace]  = orgNameToMove;\n                typeReposByTag[tagName].itemNames[tagIndexToReplace] = repoNameToMove;\n\n                orgsByName[orgNameToMove].typeReposByName[repoNameToMove].tagsByName[tagName].globalTagIndex = tagIndexToReplace;\n            }\n\n            typeReposByTag[tagName].orgNames.length--;\n            typeReposByTag[tagName].itemNames.length--;\n\n            // delete contents of the tag entry\n            delete orgsByName[orgName].typeReposByName[repositoryName].tagsByName[tagName];\n        }\n    }\n\n    function deleteTypeRepositoryRegistration(bytes32 orgName, bytes32 repositoryName) external {\n\n        requireOrgExistenceConstraint(orgName, true);\n        requireAuthorization(orgName, true);\n        requireTypeRepositoryExistenceConstraint(orgName, repositoryName, true);\n\n        deleteTypeRepositoryRegistrationInternal(orgName, repositoryName);\n    }\n\n    function deleteTypeRepositoryRegistrationInternal(bytes32 orgName, bytes32 repositoryName) internal {\n\n        // delete the tags associated with the type repo\n        for (uint i = orgsByName[orgName].typeReposByName[repositoryName].tags.length; i > 0; i--) {\n            removeTagFromTypeRepositoryRegistration(orgName, repositoryName, orgsByName[orgName].typeReposByName[repositoryName].tags[i-1]);\n        }\n\n        // swap lut entries\n        uint    indexToUpdate    = orgsByName[orgName].typeReposByName[repositoryName].orgTypeRepoIndex;\n        bytes32 typeRepoToUpdate = orgsByName[orgName].typeRepoKeys[orgsByName[orgName].typeRepoKeys.length-1];\n\n        orgsByName[orgName].typeRepoKeys[indexToUpdate] = typeRepoToUpdate;\n        orgsByName[orgName].typeReposByName[typeRepoToUpdate].orgTypeRepoIndex = indexToUpdate;\n        orgsByName[orgName].typeRepoKeys.length--;\n\n        // delete contents of repo registration\n        delete orgsByName[orgName].typeReposByName[repositoryName];\n    }\n\n    //    ____      _   _\n    //   / ___| ___| |_| |_ ___ _ __ ___\n    //  | |  _ / _ \\ __| __/ _ \\ '__/ __|\n    //  | |_| |  __/ |_| |_  __/ |  \\__ \\\n    //   \\____|\\___|\\__|\\__\\___|_|  |___/\n    //\n\n    function listOrganizations() external view returns (bytes32[] orgNames) {\n        return orgKeys;\n    }\n\n    function getOrganizationByName(bytes32 orgName) external view\n            returns(bool found, bytes32 name, address owner, bytes32[] serviceNames, bytes32[] repositoryNames) {\n\n        // check to see if this organization exists\n        if(orgsByName[orgName].organizationName == bytes32(0x0)) {\n            found = false;\n            return;\n        }\n\n        found = true;\n        name = orgsByName[orgName].organizationName;\n        owner = orgsByName[orgName].owner;\n        serviceNames = orgsByName[orgName].serviceKeys;\n        repositoryNames = orgsByName[orgName].typeRepoKeys;\n    }\n\n    function listServicesForOrganization(bytes32 orgName) external view returns (bool found, bytes32[] serviceNames) {\n\n        // check to see if this organization exists\n        if(orgsByName[orgName].organizationName == bytes32(0x0)) {\n            found = false;\n            return;\n        }\n\n        found = true;\n        serviceNames = orgsByName[orgName].serviceKeys;\n    }\n\n    function getServiceRegistrationByName(bytes32 orgName, bytes32 serviceName) external view\n            returns (bool found, bytes32 name, bytes32 path, address agentAddress, bytes32[] tags) {\n\n        // check to see if this organization exists\n        if(orgsByName[orgName].organizationName == bytes32(0x0)) {\n            found = false;\n            return;\n        }\n\n        // check to see if this repo exists\n        if(orgsByName[orgName].servicesByName[serviceName].serviceName == bytes32(0x0)) {\n            found = false;\n            return;\n        }\n\n        found = true;\n        name = orgsByName[orgName].servicesByName[serviceName].serviceName;\n        path = orgsByName[orgName].servicesByName[serviceName].servicePath;\n        agentAddress = orgsByName[orgName].servicesByName[serviceName].agentAddress;\n        tags = orgsByName[orgName].servicesByName[serviceName].tags;\n    }\n\n    function listTypeRepositoriesForOrganization(bytes32 orgName) external view returns (bool found, bytes32[] repositoryNames) {\n\n        // check to see if this organization exists\n        if(orgsByName[orgName].organizationName == bytes32(0x0)) {\n            found = false;\n            return;\n        }\n\n        found = true;\n        repositoryNames = orgsByName[orgName].typeRepoKeys;\n    }\n\n    function getTypeRepositoryByName(bytes32 orgName, bytes32 repositoryName) external view\n            returns (bool found, bytes32 name, bytes32 path, bytes uri, bytes32[] tags) {\n\n        // check to see if this organization exists\n        if(orgsByName[orgName].organizationName == bytes32(0x0)) {\n            found = false;\n            return;\n        }\n\n        // check to see if this repo exists\n        if(orgsByName[orgName].typeReposByName[repositoryName].repositoryName == bytes32(0x0)) {\n            found = false;\n            return;\n        }\n\n        found = true;\n        name = repositoryName;\n        path = orgsByName[orgName].typeReposByName[repositoryName].repositoryPath;\n        uri = orgsByName[orgName].typeReposByName[repositoryName].repositoryURI;\n        tags = orgsByName[orgName].typeReposByName[repositoryName].tags;\n    }\n\n    function listServiceTags() external view returns (bytes32[] tags) {\n        return serviceTags;\n    }\n\n    function listServicesForTag(bytes32 tag) external view returns (bytes32[] orgNames, bytes32[] serviceNames) {\n        orgNames = servicesByTag[tag].orgNames;\n        serviceNames = servicesByTag[tag].itemNames;\n    }\n\n    function listTypeRepositoryTags() external view returns (bytes32[] tags) {\n        return typeRepoTags;\n    }\n\n    function listTypeRepositoriesForTag(bytes32 tag) external view returns (bytes32[] orgNames, bytes32[] repositoryNames) {\n        orgNames = typeReposByTag[tag].orgNames;\n        repositoryNames = typeReposByTag[tag].itemNames;\n    }\n}",
  "sourcePath": "/Users/lev/dev/alpha-blockchain/contracts/Registry.sol",
  "compiler": {
    "name": "solc",
    "version": "0.4.24+commit.e67f0147.Emscripten.clang"
  },
  "schemaVersion": "2.0.1",
  "updatedAt": "2018-07-11T19:57:50.521Z"
}